:100000000C9434000C9451000C9451000C94510049
:100010000C9451000C9451000C9451000C9451001C
:100020000C9451000C9451000C9451000C9451000C
:100030000C9451000C9451000C9451000C945100FC
:100040000C9451000C9451000C9451000C945100EC
:100050000C9451000C9451000C9451000C945100DC
:100060000C9451000C94510011241FBECFEFD8E026
:10007000DEBFCDBF11E0A0E0B1E0E2EEF9E102C0E9
:1000800005900D92A831B107D9F711E0A8E1B1E0D0
:1000900001C01D92AF31B107E1F70E948B090C94AA
:1000A000EF0C0C940000CF93DF93CDB7DEB70E9426
:1000B0002C0380E00E94600381E00E948003DF91B6
:1000C000CF910895CF93DF9300D0CDB7DEB789836A
:1000D0006A838A8180931901698185E00E94B40254
:1000E00060E081E10E94B40280911901682F82E1F1
:1000F0000E94B40260E083E10E94B40260E084E107
:100100000E94B40260E085E10E94B40260E086E1F2
:100110000E94B40266E086E00E94B40268E080E0DB
:100120000E94B40263E081E00E94B40263E082E0D6
:100130000E94B4026FE484E00E94B40260E08CE1AB
:100140000E94B4020E94D6010F900F90DF91CF91D0
:100150000895CF93DF9300D0CDB7DEB79A8389831C
:1001600080E00E94600389819A8145E0BC018BE0B8
:100170000E94F10281E00E9460030F900F90DF91D6
:10018000CF910895CF93DF93CDB7DEB7809119015A
:10019000DF91CF910895CF93DF9300D0CDB7DEB735
:1001A0009A83898389819A8145E0BC018AE00E9413
:1001B000F10289819A8145E0BC0180E10E94F1024F
:1001C0000F900F90DF91CF910895CF93DF931F92FF
:1001D000CDB7DEB70E94A30189838981882F90E083
:1001E00080749927009711F081E007C00E940101F7
:1001F000982F81E0992309F080E00F90DF91CF9153
:100200000895CF93DF931F92CDB7DEB741E0CE01C3
:100210000196BC0187E10E94CE02898181700F9016
:10022000DF91CF910895CF93DF931F92CDB7DEB7C3
:1002300080E00E94800380E60E94110280E00E941C
:100240001102898381E00E94800389810F90DF91F0
:10025000CF910895CF93DF9300D0CDB7DEB79A83C7
:10026000898380E00E94800381E60E941102409110
:10027000190129813A8189819A81B9010E94590223
:1002800081E00E94800360E487E00E94B4020F9046
:100290000F90DF91CF910895CF93DF931F92CDB749
:1002A000DEB741E0CE010196BC0188E00E94CE029B
:1002B00089818F70898389810F90DF91CF91089513
:1002C000CF93DF9300D0CDB7DEB79A83898380E0E8
:1002D0000E9460030E94F40180E00E94800381EE8E
:1002E0000E94110281E00E94800380E00E9480034E
:1002F00080EA0E9411022091190189819A81622F5E
:100300000E94900281E00E94800381E00E946003CD
:100310000F900F90DF91CF910895CF93DF931F92AD
:10032000CDB7DEB70E94A30189838981882F90E031
:1003300080739927009711F080E001C081E00F9051
:10034000DF91CF910895CF93DF931F92CDB7DEB7A2
:1003500080E00E9480038FEF0E941102898381E078
:100360000E94800389810F90DF91CF910895CF93F0
:10037000DF931F92CDB7DEB70E94A30189838981E5
:10038000882F90E080729927009711F080E00AC0D2
:100390008981882F90E080719927009711F081E082
:1003A00001C08FEF0F90DF91CF910895CF93DF932E
:1003B000CDB7DEB780E00E94800382EE0E9411027A
:1003C00081E00E94800360E787E00E94B40280E041
:1003D0000E9460036BE080E00E94B40281E00E9412
:1003E0006003DF91CF910895CF93DF93CDB7DEB750
:1003F00060E787E00E94B4026AE080E00E94B402F5
:10040000DF91CF910895CF93DF93CDB7DEB780E032
:100410000E94600368E080E00E94B402DF91CF9107
:100420000895CF93DF9300D01F92CDB7DEB78B83B3
:1004300019821A8280E00E94A003198230C08B8149
:10044000882F90E02981222F30E047E050E0BA0168
:10045000621B730B9B01022E02C0959587950A942F
:10046000E2F781709927009721F081E00E94C00394
:1004700003C080E00E94C00381E00E94A0038A8143
:10048000880F8A830E94E003882319F08A818160A3
:100490008A8380E00E94A00389818F5F898389819C
:1004A000883068F28A810F900F900F90DF91CF9182
:1004B00008950F931F93CF93DF9300D000D000D007
:1004C000CDB7DEB79B838A837D836C834E8319828D
:1004D00018C08981882F90E02C813D818901080F07
:1004E000191F8981882F90E02A813B81820F931FF9
:1004F000FC0180810E941102F801808389818F5F55
:10050000898399818E81981720F326960FB6F894E7
:10051000DEBF0FBECDBFDF91CF911F910F91089528
:10052000CF93DF9300D000D0CDB7DEB79B838A8313
:100530006C8319820EC08981882F90E02A813B81CB
:10054000820F931FFC0180810E94110289818F5FBD
:10055000898399818C81981770F30F900F900F9079
:100560000F90DF91CF910895CF93DF9300D0CDB757
:10057000DEB789836A8380E00E94800389818F715E
:1005800080620E9411028A810E94110281E00E9411
:1005900080030F900F90DF91CF910895CF93DF9359
:1005A00000D000D0CDB7DEB789837B836A834C83CC
:1005B00080E00E94800389818F710E9411022A814C
:1005C0003B818A819B814C81B9010E94590281E063
:1005D0000E9480030F900F900F900F90DF91CF91AA
:1005E0000895CF93DF9300D000D0CDB7DEB78983D5
:1005F0007B836A834C8380E00E94800389818F71B2
:1006000080620E9411028A819B816C810E9490020B
:1006100081E00E9480030F900F900F900F90DF9168
:10062000CF910895CF93DF931F92CDB7DEB7898323
:10063000898180931A010F90DF91CF910895CF9314
:10064000DF931F92CDB7DEB789838981809318012C
:100650000F90DF91CF910895CF93DF93CDB7DEB7A1
:1006600087E290E027E230E0F90120812062FC017E
:10067000208387E290E027E230E0F90120812061C9
:10068000FC01208384E290E024E230E0F901208143
:100690002062FC01208384E290E024E230E0F90152
:1006A00020812860FC01208384E290E024E230E095
:1006B000F90120812F7EFC012083DF91CF910895E5
:1006C000CF93DF931F92CDB7DEB7898389818823CB
:1006D00051F088E290E028E230E0F90120812062C8
:1006E000FC01208309C088E290E028E230E0F901B3
:1006F00020812F7DFC0120830F90DF91CF91089501
:10070000CF93DF931F92CDB7DEB78983898188238A
:1007100051F088E290E028E230E0F9012081206188
:10072000FC01208309C088E290E028E230E0F90172
:1007300020812F7EFC0120830F90DF91CF910895BF
:10074000CF93DF931F92CDB7DEB78983898188234A
:1007500051F085E290E025E230E0F901208120624D
:10076000FC01208309C085E290E025E230E0F90138
:1007700020812F7DFC0120830F90DF91CF91089580
:10078000CF93DF931F92CDB7DEB78983898188230A
:1007900051F085E290E025E230E0F9012081286007
:1007A000FC01208309C085E290E025E230E0F901F8
:1007B0002081277FFC0120830F90DF91CF91089546
:1007C000CF93DF93CDB7DEB783E290E0FC01808169
:1007D0008071DF91CF910895CF93DF93CDB7DEB7CE
:1007E0008BE290E02BE230E0F90120812B7FFC01CD
:1007F0002083DF91CF910895CF93DF93CDB7DEB7FC
:100800008BE290E02BE230E0F90120812460FC01D2
:100810002083DF91CF910895CF93DF93CDB7DEB7DB
:100820008AE290E02AE230E0F90120812460FC01B4
:100830002083DF91CF910895CF93DF9300D0CDB780
:10084000DEB78A838A81882351F08BE290E02BE225
:1008500030E0F90120812160FC01208309C08BE296
:1008600090E02BE230E0F90120812E7FFC01208313
:100870008BE290E02BE230E0F90120812260FC0164
:1008800020838AE290E02AE230E0F90120812F778C
:10089000FC0120838AE290E02AE230E0F901208125
:1008A0002F7BFC0120838AE290E02AE230E0F9010C
:1008B00020812F7DFC0120838AE290E02AE230E053
:1008C000F90120812F7EFC0120830E94FC03F2E0CD
:1008D000FA95F1F700C089E290E0FC018081282FB1
:1008E000207189E290E0FC0180818072282B89E2EE
:1008F00090E0FC0180818074282B89E290E0FC016B
:1009000080818078822B89830E94EC03F2E0FA9543
:10091000F1F700C00E94FC0382E08A95F1F700C065
:1009200089E290E0FC018081882F90E08071992716
:1009300021E0009709F420E0222F30E089E290E0E6
:10094000FC018081882F90E080729927009719F030
:1009500082E090E002C080E090E0282B392B89E211
:1009600090E0FC018081882F90E0807499270097A7
:1009700019F084E090E002C080E090E0282B392B51
:1009800089E290E0FC01808188231CF488E090E0FB
:1009900002C080E090E0822B932B982F8981892BD5
:1009A00089830E94EC038AE290E02AE230E0F901B8
:1009B00020812068FC0120838AE290E02AE230E076
:1009C000F90120812064FC0120838AE290E02AE280
:1009D00030E0F90120812062FC0120838AE290E06E
:1009E0002AE230E0F90120812061FC0120838BE2C2
:1009F00090E02BE230E0F90120812068FC012083A7
:100A00008BE290E02BE230E0F90120812064FC01D0
:100A100020838BE290E02BE230E0F901208120621C
:100A2000FC0120838BE290E02BE230E0F901208191
:100A30002061FC0120838BE290E02BE230E0F901A1
:100A400020812D7FFC0120838A81882329F0F5ED08
:100A5000FA95F1F7000004C085E08A95F1F70000EF
:100A600089810F900F90DF91CF910895CF93DF93FD
:100A7000CDB7DEB781E00E941C04DF91CF910895CD
:100A8000CF93DF9300D0CDB7DEB789836A838A81A5
:100A9000882351F08BE290E02BE230E0F9012081D5
:100AA0002160FC01208309C08BE290E02BE230E062
:100AB000F90120812E7FFC0120838981882354F451
:100AC0008BE290E02BE230E0F90120812068FC010C
:100AD000208309C08BE290E02BE230E0F901208115
:100AE0002F77FC0120838981882F90E080749927DB
:100AF000009751F08BE290E02BE230E0F901208189
:100B00002064FC01208309C08BE290E02BE230E0FE
:100B1000F90120812F7BFC0120838981882F90E0BF
:100B200080729927009751F08BE290E02BE230E041
:100B3000F90120812062FC01208309C08BE290E052
:100B40002BE230E0F90120812F7DFC012083898197
:100B5000882F90E080719927009751F08BE290E008
:100B60002BE230E0F90120812061FC01208309C0E3
:100B70008BE290E02BE230E0F90120812F7EFC0136
:100B8000208300C00E94FC03F2E0FA95F1F700C058
:100B90000E94EC038981882F90E088709927009744
:100BA00051F08BE290E02BE230E0F90120812068E7
:100BB000FC01208309C08BE290E02BE230E0F901D8
:100BC00020812F77FC0120838981882F90E0847019
:100BD0009927009751F08BE290E02BE230E0F90189
:100BE00020812064FC01208309C08BE290E02BE28D
:100BF00030E0F90120812F7BFC0120838981882F3F
:100C000090E082709927009751F08BE290E02BE200
:100C100030E0F90120812062FC01208309C08BE2D1
:100C200090E02BE230E0F90120812F7DFC01208350
:100C30008981882F90E081709927009751F08BE28D
:100C400090E02BE230E0F90120812061FC0120835B
:100C500009C08BE290E02BE230E0F90120812F7E89
:100C6000FC01208300C00E94FC03F2E0FA95F1F73A
:100C700000C00E94EC038BE290E02BE230E0F9012F
:100C800020812068FC0120838BE290E02BE230E0A1
:100C9000F90120812064FC0120838BE290E02BE2AB
:100CA00030E0F90120812062FC0120838BE290E09A
:100CB0002BE230E0F90120812061FC0120838A8150
:100CC000882351F48981843038F48FE999E10197C0
:100CD000F1F700C0000004C095ED9A95F1F700000F
:100CE0000F900F90DF91CF910895CF93DF931F92D4
:100CF000CDB7DEB7898360E089810E9440050F90FF
:100D0000DF91CF910895CF93DF931F92CDB7DEB7D8
:100D10008983898180580E9475060F90DF91CF9159
:100D20000895CF93DF93CDB7DEB781E00E947506BB
:100D3000DF91CF910895CF93DF93CDB7DEB782E0F7
:100D40000E947506DF91CF910895CF93DF931F9294
:100D5000CDB7DEB7898361E089810E9440050F909D
:100D6000DF91CF9108951F93CF93DF9300D0CDB73C
:100D7000DEB79A83898303C0812F0E94A5068981EB
:100D80009A819C012F5F3F4F3A832983FC01108198
:100D9000112391F70F900F90DF91CF911F9108953C
:100DA0001F93CF93DF9300D000D01F92CDB7DEB753
:100DB0009D838C8303C0812F0E94A5068C819D8119
:100DC0009C012F5F3F4F3D832C839A8389838981C8
:100DD0009A81FC0184918B838B81182F112359F701
:100DE0000F900F900F900F900F90DF91CF911F9168
:100DF0000895CF93DF93CDB7DEB70E940C048AE24B
:100E000090E02AE230E0F90120812160FC0120839A
:100E10008AE290E02AE230E0F90120812260FC01C0
:100E200020838AE290E02AE230E0F9012081206804
:100E3000FC0120838AE290E02AE230E0F90120817F
:100E40002064FC0120838AE290E02AE230E0F9018C
:100E500020812062FC0120838AE290E02AE230E0D7
:100E6000F90120812061FC0120830E94EC038BE2C8
:100E700090E02BE230E0F90120812E7FFC012083FD
:100E80008BE290E02BE230E0F90120812D7FFC0124
:100E900020838BE290E02BE230E0F9012081206892
:100EA000FC0120838BE290E02BE230E0F90120810D
:100EB0002064FC0120838BE290E02BE230E0F9011A
:100EC00020812062FC0120838BE290E02BE230E065
:100ED000F90120812061FC0120838FE59AEE0197C2
:100EE000F1F700C000008BE290E02BE230E0F90166
:100EF00020812F77FC0120838BE290E02BE230E011
:100F0000F90120812F7BFC01208300C00E94FC039B
:100F1000F2E0FA95F1F700C00E94EC038FE090E454
:100F20000197F1F700C000000E94FC0392E09A953F
:100F3000F1F700C00E94EC03EFE8F1E03197F1F720
:100F400000C000000E94FC03F2E0FA95F1F700C037
:100F50000E94EC0385ED8A95F1F700008BE290E0AA
:100F60002BE230E0F90120812F7EFC01208300C0BC
:100F70000E94FC03F2E0FA95F1F700C00E94EC0336
:100F800085ED8A95F1F700008BE290E02BE230E0EE
:100F9000F90120812F7EFC01208300C00E94FC0308
:100FA000F2E0FA95F1F700C00E94EC0382E08A9526
:100FB000F1F700C08BE290E02BE230E0F9012081F4
:100FC0002068FC01208300C00E94FC03F2E0FA9537
:100FD000F1F700C00E94EC0385ED8A95F1F700005F
:100FE00088E00E9475060E94910686E00E947506C0
:100FF0008CE00E947506DF91CF910895CF93DF9327
:10100000CDB7DEB70E945300DF91CF910895CF9303
:10101000DF93CDB7DEB765970FB6F894DEBF0FBE8E
:10102000CDBF9D8B8C8B8C899D890E946A098B8B8F
:101030008C899D890E947A099A83898383E090E054
:101040000E94B60B9C838B839E012D5E3F4F8B814C
:101050009C81B9010E94E80C29813A818B819C8195
:10106000B9010E94DD0C8B819C810E94600100000F
:101070000E948D018823E1F780E090E0A8ECB2E4C3
:101080008D839E83AF83B88720E030E04AE755E444
:101090006D817E818F8198850E942B0BDC01CB01B5
:1010A00089879A87AB87BC8720E030E040E85FE320
:1010B00069857A858B859C850E94AA0A88232CF4F1
:1010C00081E090E09E878D873FC020E03FEF4FE7B3
:1010D00057E469857A858B859C850E94270B1816B5
:1010E0004CF520E030E040E251E46D817E818F815B
:1010F00098850E942B0BDC01CB01BC01CD010E9425
:10110000AE0ADC01CB019E878D870FC080E991E09C
:10111000988B8F878F8598890197F1F7988B8F87A8
:101120008D859E8501979E878D878D859E850097ED
:1011300069F714C069857A858B859C850E94AE0A03
:10114000DC01CB019E878D878D859E859A8B898B4F
:1011500089899A890197F1F79A8B898B8B819C8178
:101160000E944E0C65960FB6F894DEBF0FBECDBF41
:10117000DF91CF910895CF93DF9300D000D01F92DD
:10118000CDB7DEB780911801882F90E00E94B60B92
:101190009A8389830E94E500882321F089819A81BE
:1011A0000E942A0189819A81FC012081CE01039647
:1011B000622F0E943E0989819A819C012F5F3F4FD7
:1011C000CE010396B9010E94520989819A810E9439
:1011D0004E0C8B819C81AD81BC018A2F0F900F90AA
:1011E0000F900F900F90DF91CF910895CF93DF93E1
:1011F00000D0CDB7DEB79A83898389819A810E9416
:10120000CB000F900F90DF91CF910895CF93DF9394
:1012100000D0CDB7DEB79A83898389819A810E94F5
:10122000A9000F900F90DF91CF910895CF93DF9396
:10123000CDB7DEB79091180180911A01692F0E94F5
:101240006200DF91CF910895CF93DF931F92CDB7C6
:10125000DEB7898389810E9412030F90DF91CF91BD
:101260000895CF93DF931F92CDB7DEB7898389812D
:101270000E941F030F90DF91CF910895CF93DF93CA
:1012800000D01F92CDB7DEB79A8389836B838981A3
:101290009A812B81FC0120830F900F900F90DF919A
:1012A000CF910895CF93DF9300D000D0CDB7DEB7B4
:1012B0009A8389837C836B8389819A812B813C818A
:1012C000FC01328321830F900F900F900F90DF91DC
:1012D000CF910895CF93DF9300D0CDB7DEB79A8337
:1012E000898389819A81FC0180810F900F90DF9121
:1012F000CF910895CF93DF9300D0CDB7DEB79A8317
:10130000898389819A81FC01818192810F900F905C
:10131000DF91CF910895CF93DF93CDB7DEB7AD972F
:101320000FB6F894DEBF0FBECDBF85E0E2E1F1E07D
:10133000DE01999601900D928A95E1F70E94F906D7
:101340000E94FE0782E00E94240988E00E94310981
:101350000E941609CE0189960E9406090E949B06EA
:1013600086E091E00E94B30680E090E0AAE7B4E452
:1013700089839A83AB83BC8320E030E04AE755E45D
:1013800069817A818B819C810E942B0BDC01CB01CE
:101390008D839E83AF83B88720E030E040E85FE331
:1013A0006D817E818F8198850E94AA0A88232CF402
:1013B00081E090E09A8789873FC020E03FEF4FE7C8
:1013C00057E46D817E818F8198850E94270B1816C6
:1013D0004CF520E030E040E251E469817A818B8174
:1013E0009C810E942B0BDC01CB01BC01CD010E9432
:1013F000AE0ADC01CB019A8789870FC080E991E0B2
:101400009C878B878B859C850197F1F79C878B87C1
:1014100089859A8501979A87898789859A85009712
:1014200069F714C06D817E818F8198850E94AE0A14
:10143000DC01CB019A87898789859A859E878D876C
:101440008D859E850197F1F79E878D870E94910675
:101450000E94BB08A82FCB018D8F9E8FAF8F0E945B
:101460009B068E8D9F8D0E94B30680E090E0AAE7D8
:10147000B4E48F87988BA98BBA8B20E030E04AE7E1
:1014800055E46F85788989899A890E942B0BDC0144
:10149000CB018B8B9C8BAD8BBE8B20E030E040E88A
:1014A0005FE36B897C898D899E890E94AA0A8823C3
:1014B0002CF481E090E0988F8F8B3FC020E03FEFCD
:1014C0004FE757E46B897C898D899E890E94270BA1
:1014D00018164CF520E030E040E251E46F85788941
:1014E00089899A890E942B0BDC01CB01BC01CD01BB
:1014F0000E94AE0ADC01CB01988F8F8B0FC080E970
:1015000091E09A8F898F898D9A8D0197F1F79A8F43
:10151000898F8F89988D0197988F8F8B8F89988D60
:10152000009769F714C06B897C898D899E890E9418
:10153000AE0ADC01CB01988F8F8B8F89988D9C8FA1
:101540008B8F8B8D9C8D0197F1F79C8F8B8F0E94D9
:1015500091067ECF2FD008F481E0089557D088F00F
:101560009F5790F0B92F9927B751A0F0D1F0660F8F
:10157000771F881F991F1AF0BA95C9F712C0B130AA
:1015800081F05ED0B1E008955BC0672F782F882787
:10159000B85F39F0B93FCCF3869577956795B395E9
:1015A000D9F73EF490958095709561957F4F8F4F58
:1015B0009F4F0895990F0008550FAA0BE0E8FEEF22
:1015C00016161706E807F907C0F012161306E40707
:1015D000F50798F0621B730B840B950B39F40A2600
:1015E00061F0232B242B252B21F408950A2609F4DE
:1015F000A140A6958FEF811D811D089557FD90583C
:10160000440F551F59F05F3F71F04795880F97FBC6
:10161000991F61F09F3F79F0879508951216130680
:101620001406551FF2CF4695F1DF08C016161706AF
:101630001806991FF1CF86957105610508940895E4
:10164000E894BB2766277727CB0197F90895B2DF87
:1016500008F48FEF08950BD078C069D028F06ED0D1
:1016600018F0952309F05AC05FC01124EACFC6DFF5
:10167000A0F3959FD1F3950F50E0551F629FF001A5
:10168000729FBB27F00DB11D639FAA27F00DB11DFE
:10169000AA1F649F6627B00DA11D661F829F222787
:1016A000B00DA11D621F739FB00DA11D621F839F0E
:1016B000A00D611D221F749F3327A00D611D231FE4
:1016C000849F600D211D822F762F6A2F11249F5732
:1016D00050408AF0E1F088234AF0EE0FFF1FBB1F55
:1016E000661F771F881F91505040A9F79E3F5105F4
:1016F00070F014C0A6CF5F3FECF3983EDCF3869504
:1017000077956795B795F795E7959F5FC1F7FE2B9E
:10171000880F911D9695879597F9089597F99F677A
:1017200080E870E060E008959FEF80EC0895002469
:101730000A941616170618060906089500240A9436
:1017400012161306140605060895092E0394000CBC
:1017500011F4882352F0BB0F40F4BF2B11F460FF4B
:1017600004C06F5F7F4F8F4F9F4F0895CF93DF93DC
:101770008230910510F482E090E0E0911D01F0913B
:101780001E0120E030E0A0E0B0E0309739F1408168
:10179000518148175907B8F04817590771F48281E9
:1017A0009381109729F013969C938E9312972CC0D7
:1017B00090931E0180931D0127C02115310531F042
:1017C0004217530718F0A901DB0101C0EF019A018C
:1017D000BD01DF010280F381E02DD7CF2115310556
:1017E000F9F0281B390B2430310580F48A819B8164
:1017F0006115710521F0FB019383828304C09093EE
:101800001E0180931D01FE01329644C0FE01E20FCD
:10181000F31F8193919322503109398328833AC071
:1018200020911B0130911C01232B41F420910201D6
:101830003091030130931C0120931B012091000182
:10184000309101012115310541F42DB73EB740918A
:10185000040150910501241B350BE0911B01F0910F
:101860001C01E217F307A0F42E1B3F0B28173907C2
:1018700078F0AC014E5F5F4F2417350748F04E0FEC
:101880005F1F50931C0140931B018193919302C0F1
:10189000E0E0F0E0CF01DF91CF910895CF93DF93A7
:1018A000009709F487C0FC01329713821282C0911D
:1018B0001D01D0911E01209781F420813181280FD4
:1018C000391F80911B0190911C018217930779F5B4
:1018D000F0931C01E0931B016DC0DE0120E030E0BD
:1018E000AE17BF0750F412964D915C9113979D016E
:1018F0004115510509F1DA01F3CFB383A283408189
:101900005181840F951F8A179B0771F48D919C91CB
:101910001197840F951F02969183808312968D9163
:101920009C911397938382832115310529F4F093B9
:101930001E01E0931D013EC0D9011396FC93EE9366
:1019400012974D915D91A40FB51FEA17FB0779F42B
:1019500080819181840F951F0296D90111969C93E5
:101960008E938281938113969C938E931297E0E0DD
:10197000F0E08A819B81009719F0FE01EC01F9CF1C
:10198000CE01029628813981820F931F20911B017D
:1019900030911C012817390769F4309729F4109207
:1019A0001E0110921D0102C013821282D0931C01ED
:1019B000C0931B01DF91CF910895FB01DC010D90D5
:1019C0000020E9F7119701900D920020E1F70895AA
:1019D000FB01DC0101900D920020E1F70895F894DD
:0219E000FFCF37
:1019E20000001F0120005374617274696E672E2E0D
:0819F2002E00E7E7E7E7E7003C
:00000001FF
