:100000000C9434000C9451000C9451000C94510049
:100010000C9451000C9451000C9451000C9451001C
:100020000C9451000C9451000C9451000C9451000C
:100030000C9451000C9451000C9451000C945100FC
:100040000C9451000C9451000C9451000C945100EC
:100050000C9451000C9451000C9451000C945100DC
:100060000C9451000C94510011241FBECFEFD8E026
:10007000DEBFCDBF11E0A0E0B1E0E0ECF4E102C0F2
:1000800005900D92AA31B107D9F711E0AAE1B1E0CC
:1000900001C01D92AB31B107E1F70E9431080C9409
:1000A0005E0A0C940000CF93DF93CDB7DEB70E94B9
:1000B000120380E00E94460381E00E946603DF9104
:1000C000CF910895CF93DF9300D0CDB7DEB789836A
:1000D0006A838A8180931A01698185E00E94B40253
:1000E00060E081E10E94B40280911A01682F82E1F0
:1000F0000E94B40260E083E10E94B40260E084E107
:100100000E94B40260E085E10E94B40260E086E1F2
:100110000E94B40266E086E00E94B40268E080E0DB
:100120000E94B40263E081E00E94B40263E082E0D6
:100130000E94B4026FE484E00E94B40260E08CE1AB
:100140000E94B4020E94D6010F900F90DF91CF91D0
:100150000895CF93DF9300D0CDB7DEB79A8389831C
:1001600080E00E94460389819A8145E0BC018BE0D2
:100170000E94F10281E00E9446030F900F90DF91F0
:10018000CF910895CF93DF93CDB7DEB780911A0159
:10019000DF91CF910895CF93DF9300D0CDB7DEB735
:1001A0009A83898389819A8145E0BC018AE00E9413
:1001B000F10289819A8145E0BC0180E10E94F1024F
:1001C0000F900F90DF91CF910895CF93DF931F92FF
:1001D000CDB7DEB70E94A30189838981882F90E083
:1001E00080749927009711F081E007C00E940101F7
:1001F000982F81E0992309F080E00F90DF91CF9153
:100200000895CF93DF931F92CDB7DEB741E0CE01C3
:100210000196BC0187E10E94CE02898181700F9016
:10022000DF91CF910895CF93DF931F92CDB7DEB7C3
:1002300080E00E94660380E60E94110280E00E9436
:100240001102898381E00E94660389810F90DF910A
:10025000CF910895CF93DF9300D0CDB7DEB79A83C7
:10026000898380E00E94660381E60E94110240912A
:100270001A0129813A8189819A81B9010E94590222
:1002800081E00E94660360E487E00E94B4020F9060
:100290000F90DF91CF910895CF93DF931F92CDB749
:1002A000DEB741E0CE010196BC0188E00E94CE029B
:1002B00089818F70898389810F90DF91CF91089513
:1002C000CF93DF9300D0CDB7DEB79A83898380E0E8
:1002D0000E9446030E94F40180E00E94660381EEC2
:1002E0000E94110281E00E94660380E00E94660382
:1002F00080EA0E94110220911A0189819A81622F5D
:100300000E94900281E00E94660381E00E94460301
:100310000F900F90DF91CF910895CF93DF931F92AD
:10032000CDB7DEB70E94A30189838981882F90E031
:1003300080739927009711F080E001C081E00F9051
:10034000DF91CF910895CF93DF931F92CDB7DEB7A2
:1003500080E00E9466038FEF0E941102898381E092
:100360000E94660389810F90DF91CF910895CF930A
:10037000DF931F92CDB7DEB70E94A30189838981E5
:10038000882F90E080729927009711F080E00AC0D2
:100390008981882F90E080719927009711F081E082
:1003A00001C08FEF0F90DF91CF910895CF93DF932E
:1003B000CDB7DEB780E00E94660382EE0E94110294
:1003C00081E00E94660360E787E00E94B40280E05B
:1003D0000E9446036BE080E00E94B40281E00E942C
:1003E0004603DF91CF910895CF93DF93CDB7DEB76A
:1003F00060E787E00E94B4026AE080E00E94B402F5
:10040000DF91CF910895CF93DF93CDB7DEB780E032
:100410000E94460368E080E00E94B402DF91CF9121
:100420000895CF93DF9300D01F92CDB7DEB78B83B3
:1004300019821A8280E00E948603198230C08B8163
:10044000882F90E02981222F30E047E050E0BA0168
:10045000621B730B9B01022E02C0959587950A942F
:10046000E2F781709927009721F081E00E94A603AE
:1004700003C080E00E94A60381E00E9486038A8177
:10048000880F8A830E94C603882319F08A818160BD
:100490008A8380E00E94860389818F5F89838981B6
:1004A000883068F28A810F900F900F90DF91CF9182
:1004B00008950F931F93CF93DF9300D000D000D007
:1004C000CDB7DEB79B838A837D836C834E8319828D
:1004D00018C08981882F90E02C813D818901080F07
:1004E000191F8981882F90E02A813B81820F931FF9
:1004F000FC0180810E941102F801808389818F5F55
:10050000898399818E81981720F326960FB6F894E7
:10051000DEBF0FBECDBFDF91CF911F910F91089528
:10052000CF93DF9300D000D0CDB7DEB79B838A8313
:100530006C8319820EC08981882F90E02A813B81CB
:10054000820F931FFC0180810E94110289818F5FBD
:10055000898399818C81981770F30F900F900F9079
:100560000F90DF91CF910895CF93DF9300D0CDB757
:10057000DEB789836A8380E00E94660389818F7178
:1005800080620E9411028A810E94110281E00E9411
:1005900066030F900F90DF91CF910895CF93DF9373
:1005A00000D000D0CDB7DEB789837B836A834C83CC
:1005B00080E00E94660389818F710E9411022A8166
:1005C0003B818A819B814C81B9010E94590281E063
:1005D0000E9466030F900F900F900F90DF91CF91C4
:1005E0000895CF93DF9300D000D0CDB7DEB78983D5
:1005F0007B836A834C8380E00E94660389818F71CC
:1006000080620E9411028A819B816C810E9490020B
:1006100081E00E9466030F900F900F900F90DF9182
:10062000CF910895CF93DF93CDB7DEB787E290E007
:1006300027E230E0F90120812062FC01208387E27B
:1006400090E027E230E0F90120812061FC01208365
:1006500084E290E024E230E0F90120812062FC0194
:10066000208384E290E024E230E0F90120812860D8
:10067000FC01208384E290E024E230E0F901208153
:100680002F7EFC012083DF91CF910895CF93DF93DC
:100690001F92CDB7DEB789838981882351F088E224
:1006A00090E028E230E0F90120812062FC01208303
:1006B00009C088E290E028E230E0F90120812F7D36
:1006C000FC0120830F90DF91CF910895CF93DF93AA
:1006D0001F92CDB7DEB789838981882351F088E2E4
:1006E00090E028E230E0F90120812061FC012083C4
:1006F00009C088E290E028E230E0F90120812F7EF5
:10070000FC0120830F90DF91CF910895CF93DF9369
:100710001F92CDB7DEB789838981882351F085E2A6
:1007200090E025E230E0F90120812062FC01208385
:1007300009C085E290E025E230E0F90120812F7DBB
:10074000FC0120830F90DF91CF910895CF93DF9329
:100750001F92CDB7DEB789838981882351F085E266
:1007600090E025E230E0F90120812860FC0120833F
:1007700009C085E290E025E230E0F9012081277F81
:10078000FC0120830F90DF91CF910895CF93DF93E9
:10079000CDB7DEB783E290E0FC0180818071DF910C
:1007A000CF910895CF93DF93CDB7DEB78BE290E082
:1007B0002BE230E0F90120812B7FFC012083DF91C7
:1007C000CF910895CF93DF93CDB7DEB78BE290E062
:1007D0002BE230E0F90120812460FC012083DF91CD
:1007E000CF910895CF93DF93CDB7DEB78AE290E043
:1007F0002AE230E0F90120812460FC012083DF91AE
:10080000CF910895CF93DF9300D0CDB7DEB78A8321
:100810008A81882351F08BE290E02BE230E0F901ED
:1008200020812160FC01208309C08BE290E02BE253
:1008300030E0F90120812E7FFC0120838BE290E0E3
:100840002BE230E0F90120812260FC0120838AE262
:1008500090E02AE230E0F90120812F77FC0120832B
:100860008AE290E02AE230E0F90120812F7BFC014E
:1008700020838AE290E02AE230E0F90120812F7D96
:10088000FC0120838AE290E02AE230E0F901208135
:100890002F7EFC0120830E94E203F2E0FA95F1F73B
:1008A00000C089E290E0FC018081282F207189E25C
:1008B00090E0FC0180818072282B89E290E0FC01AD
:1008C00080818074282B89E290E0FC01808180780F
:1008D000822B89830E94D203F2E0FA95F1F700C0DF
:1008E0000E94E20382E08A95F1F700C089E290E07D
:1008F000FC018081882F90E08071992721E000978A
:1009000009F420E0222F30E089E290E0FC018081B0
:10091000882F90E080729927009719F082E090E08C
:1009200002C080E090E0282B392B89E290E0FC01A6
:100930008081882F90E080749927009719F084E0D7
:1009400090E002C080E090E0282B392B89E290E013
:10095000FC01808188231CF488E090E002C080E0E4
:1009600090E0822B932B982F8981892B89830E9479
:10097000D2038AE290E02AE230E0F9012081206887
:10098000FC0120838AE290E02AE230E0F901208134
:100990002064FC0120838AE290E02AE230E0F90141
:1009A00020812062FC0120838AE290E02AE230E08C
:1009B000F90120812061FC0120838BE290E02BE291
:1009C00030E0F90120812068FC0120838BE290E077
:1009D0002BE230E0F90120812064FC0120838BE2CE
:1009E00090E02BE230E0F90120812062FC012083BD
:1009F0008BE290E02BE230E0F90120812061FC01E4
:100A000020838BE290E02BE230E0F90120812D7F02
:100A1000FC0120838A81882329F0F5EDFA95F1F70E
:100A2000000004C085E08A95F1F7000089810F90ED
:100A30000F90DF91CF910895CF93DF93CDB7DEB7BD
:100A400081E00E940204DF91CF910895CF93DF935C
:100A500000D0CDB7DEB789836A838A81882351F0BD
:100A60008BE290E02BE230E0F90120812160FC0173
:100A7000208309C08BE290E02BE230E0F901208175
:100A80002E7FFC0120838981882354F48BE290E03F
:100A90002BE230E0F90120812068FC01208309C0AD
:100AA0008BE290E02BE230E0F90120812F77FC010E
:100AB00020838981882F90E080749927009751F0D6
:100AC0008BE290E02BE230E0F90120812064FC0110
:100AD000208309C08BE290E02BE230E0F901208115
:100AE0002F7BFC0120838981882F90E080729927D9
:100AF000009751F08BE290E02BE230E0F901208189
:100B00002062FC01208309C08BE290E02BE230E000
:100B1000F90120812F7DFC0120838981882F90E0BD
:100B200080719927009751F08BE290E02BE230E042
:100B3000F90120812061FC01208309C08BE290E053
:100B40002BE230E0F90120812F7EFC01208300C0E0
:100B50000E94E203F2E0FA95F1F700C00E94D2038E
:100B60008981882F90E088709927009751F08BE257
:100B700090E02BE230E0F90120812068FC01208325
:100B800009C08BE290E02BE230E0F90120812F7761
:100B9000FC0120838981882F90E084709927009739
:100BA00051F08BE290E02BE230E0F90120812064EB
:100BB000FC01208309C08BE290E02BE230E0F901D8
:100BC00020812F7BFC0120838981882F90E0827017
:100BD0009927009751F08BE290E02BE230E0F90189
:100BE00020812062FC01208309C08BE290E02BE28F
:100BF00030E0F90120812F7DFC0120838981882F3D
:100C000090E081709927009751F08BE290E02BE201
:100C100030E0F90120812061FC01208309C08BE2D2
:100C200090E02BE230E0F90120812F7EFC0120834F
:100C300000C00E94E203F2E0FA95F1F700C00E94C2
:100C4000D2038BE290E02BE230E0F90120812068B2
:100C5000FC0120838BE290E02BE230E0F90120815F
:100C60002064FC0120838BE290E02BE230E0F9016C
:100C700020812062FC0120838BE290E02BE230E0B7
:100C8000F90120812061FC0120838A81882351F4AD
:100C90008981843038F48FE999E10197F1F700C038
:100CA000000004C095ED9A95F1F700000F900F90A9
:100CB000DF91CF910895CF93DF931F92CDB7DEB729
:100CC000898360E089810E9426050F90DF91CF9192
:100CD0000895CF93DF931F92CDB7DEB789838981C3
:100CE00080580E945B060F90DF91CF910895CF93BB
:100CF000DF93CDB7DEB781E00E945B06DF91CF9135
:100D00000895CF93DF93CDB7DEB782E00E945B06F4
:100D1000DF91CF910895CF93DF931F92CDB7DEB7C8
:100D2000898361E089810E9426050F90DF91CF9130
:100D300008951F93CF93DF9300D0CDB7DEB79A838A
:100D4000898303C0812F0E948B0689819A819C012F
:100D50002F5F3F4F3A832983FC011081112391F7C4
:100D60000F900F90DF91CF911F9108951F93CF9314
:100D7000DF9300D000D01F92CDB7DEB79D838C8368
:100D800003C0812F0E948B068C819D819C012F5F67
:100D90003F4F3D832C839A83898389819A81FC010B
:100DA00084918B838B81182F112359F70F900F900B
:100DB0000F900F900F90DF91CF911F910895CF93D7
:100DC000DF93CDB7DEB70E94F2038AE290E02AE219
:100DD00030E0F90120812160FC0120838AE290E06B
:100DE0002AE230E0F90120812260FC0120838AE2BE
:100DF00090E02AE230E0F90120812068FC012083A4
:100E00008AE290E02AE230E0F90120812064FC01CE
:100E100020838AE290E02AE230E0F901208120621A
:100E2000FC0120838AE290E02AE230E0F90120818F
:100E30002061FC0120830E94D2038BE290E02BE230
:100E400030E0F90120812E7FFC0120838BE290E0CD
:100E50002BE230E0F90120812D7FFC0120838BE221
:100E600090E02BE230E0F90120812068FC01208332
:100E70008BE290E02BE230E0F90120812064FC015C
:100E800020838BE290E02BE230E0F90120812062A8
:100E9000FC0120838BE290E02BE230E0F90120811D
:100EA0002061FC0120838FE59AEE0197F1F700C0E5
:100EB00000008BE290E02BE230E0F90120812F77F7
:100EC000FC0120838BE290E02BE230E0F9012081ED
:100ED0002F7BFC01208300C00E94E203F2E0FA9520
:100EE000F1F700C00E94D2038FE090E40197F1F780
:100EF00000C000000E94E20392E09A95F1F700C062
:100F00000E94D203EFE8F1E03197F1F700C0000052
:100F10000E94E203F2E0FA95F1F700C00E94D203CA
:100F200085ED8A95F1F700008BE290E02BE230E04E
:100F3000F90120812F7EFC01208300C00E94E20382
:100F4000F2E0FA95F1F700C00E94D20385ED8A9590
:100F5000F1F700008BE290E02BE230E0F901208114
:100F60002F7EFC01208300C00E94E203F2E0FA958C
:100F7000F1F700C00E94D20382E08A95F1F700C029
:100F80008BE290E02BE230E0F90120812068FC0147
:100F9000208300C00E94E203F2E0FA95F1F700C05E
:100FA0000E94D20385ED8A95F1F7000088E00E9447
:100FB0005B060E94770686E00E945B068CE00E943A
:100FC0005B06DF91CF910895CF93DF9300D01F92FE
:100FD000CDB7DEB79A8389836B8389819A812B8110
:100FE000FC0120830F900F900F90DF91CF91089517
:100FF000CF93DF9300D000D0CDB7DEB79A8389833B
:101000007C836B8389819A812B813C81FC013283B3
:1010100021830F900F900F900F90DF91CF91089543
:10102000CF93DF9300D0CDB7DEB79A8389838981D0
:101030009A81FC0180810F900F90DF91CF910895EC
:10104000CF93DF9300D0CDB7DEB79A8389838981B0
:101050009A81FC01818192810F900F90DF91CF9155
:101060000895CF93DF93CDB7DEB7A9970FB6F89465
:10107000DEBF0FBECDBF85E0E4E1F1E0DE01959675
:1010800001900D928A95E1F70E9453000E94DF06BD
:1010900068E082E00E946200CE0185960E94A9006D
:1010A0000E94810680E091E00E94990680E090E035
:1010B000AAE7B4E489839A83AB83BC8320E030E061
:1010C0004AE755E469817A818B819C810E94D3092A
:1010D000DC01CB018D839E83AF83B88720E030E0B5
:1010E00040E85FE36D817E818F8198850E9452097F
:1010F00088232CF481E090E09A8789873FC020E024
:101100003FEF4FE757E46D817E818F8198850E9484
:10111000CF0918164CF520E030E040E251E4698137
:101120007A818B819C810E94D309DC01CB01BC01B7
:10113000CD010E945609DC01CB019A8789870FC037
:1011400080E991E09C878B878B859C850197F1F7DF
:101150009C878B8789859A8501979A878987898556
:101160009A85009769F714C06D817E818F8198857B
:101170000E945609DC01CB019A87898789859A8567
:101180009E878D878D859E850197F1F79E878D8738
:101190000E9477060E94E500882309F482C0CE01F0
:1011A0004D960E942A010E9477060E948106CE0178
:1011B0004D960E9499068CE091E00E94990680E08D
:1011C00090E0A0E2B1E48F87988BA98BBA8B20E0E6
:1011D00030E04AE755E46F85788989899A890E94C9
:1011E000D309DC01CB018B8B9C8BAD8BBE8B20E0BC
:1011F00030E040E85FE36B897C898D899E890E949D
:10120000520988232CF481E090E0988F8F8B3FC0A7
:1012100020E03FEF4FE757E46B897C898D899E89F9
:101220000E94CF0918164CF520E030E040E251E46E
:101230006F85788989899A890E94D309DC01CB015D
:10124000BC01CD010E945609DC01CB01988F8F8B28
:101250000FC080E991E09A8F898F898D9A8D0197CF
:10126000F1F79A8F898F8F89988D0197988F8F8B3F
:101270008F89988D009769F714C06B897C898D8957
:101280009E890E945609DC01CB01988F8F8B8F8934
:10129000988D9C8F8B8F8B8D9C8D0197F1F79C8FF8
:1012A0008B8F78CF2FD008F481E0089557D088F045
:1012B0009F5790F0B92F9927B751A0F0D1F0660F42
:1012C000771F881F991F1AF0BA95C9F712C0B1305D
:1012D00081F05ED0B1E008955BC0672F782F88273A
:1012E000B85F39F0B93FCCF3869577956795B3959C
:1012F000D9F73EF490958095709561957F4F8F4F0B
:101300009F4F0895990F0008550FAA0BE0E8FEEFD4
:1013100016161706E807F907C0F012161306E407B9
:10132000F50798F0621B730B840B950B39F40A26B2
:1013300061F0232B242B252B21F408950A2609F490
:10134000A140A6958FEF811D811D089557FD9058EE
:10135000440F551F59F05F3F71F04795880F97FB79
:10136000991F61F09F3F79F0879508951216130633
:101370001406551FF2CF4695F1DF08C01616170662
:101380001806991FF1CF8695710561050894089597
:10139000E894BB2766277727CB0197F90895B2DF3A
:1013A00008F48FEF08950BD078C069D028F06ED084
:1013B00018F0952309F05AC05FC01124EACFC6DFA8
:1013C000A0F3959FD1F3950F50E0551F629FF00158
:1013D000729FBB27F00DB11D639FAA27F00DB11DB1
:1013E000AA1F649F6627B00DA11D661F829F22273A
:1013F000B00DA11D621F739FB00DA11D621F839FC1
:10140000A00D611D221F749F3327A00D611D231F96
:10141000849F600D211D822F762F6A2F11249F57E4
:1014200050408AF0E1F088234AF0EE0FFF1FBB1F07
:10143000661F771F881F91505040A9F79E3F5105A6
:1014400070F014C0A6CF5F3FECF3983EDCF38695B6
:1014500077956795B795F795E7959F5FC1F7FE2B51
:10146000880F911D9695879597F9089597F99F672D
:1014700080E870E060E008959FEF80EC089500241C
:101480000A941616170618060906089500240A94E9
:1014900012161306140605060895092E0394000C6F
:1014A00011F4882352F0BB0F40F4BF2B11F460FFFE
:1014B00004C06F5F7F4F8F4F9F4F0895F894FFCF09
:1014C0005374617274696E672E2E2E0020202020C6
:0A14D00020202000E7E7E7E7E7002F
:00000001FF
