:100000000C9434000C9451000C9451000C94510049
:100010000C9451000C9451000C9451000C9451001C
:100020000C9451000C9451000C9451000C9451000C
:100030000C9451000C9451000C9451000C945100FC
:100040000C9451000C9451000C9451000C945100EC
:100050000C9451000C9451000C9451000C945100DC
:100060000C9451000C94510011241FBECFEFD8E026
:10007000DEBFCDBF11E0A0E0B1E0ECE0F4E102C0F2
:1000800005900D92A231B107D9F711E0A2E1B1E0DC
:1000900001C01D92AB31B107E1F70E9465040C94D9
:1000A000040A0C940000CF93DF93CDB7DEB78BE248
:1000B00090E02BE230E0F90120812B7FFC012083CE
:1000C000DF91CF910895CF93DF93CDB7DEB78BE269
:1000D00090E02BE230E0F90120812460FC012083D4
:1000E000DF91CF910895CF93DF93CDB7DEB78AE24A
:1000F00090E02AE230E0F90120812460FC012083B5
:10010000DF91CF910895CF93DF9300D0CDB7DEB7C5
:100110008A838A81882351F08BE290E02BE230E0E1
:10012000F90120812160FC01208309C08BE290E06D
:100130002BE230E0F90120812E7FFC0120838BE24D
:1001400090E02BE230E0F90120812260FC01208365
:100150008AE290E02AE230E0F90120812F77FC0169
:1001600020838AE290E02AE230E0F90120812F7BAF
:10017000FC0120838AE290E02AE230E0F90120814C
:100180002F7DFC0120838AE290E02AE230E0F90131
:1001900020812F7EFC0120830E946300F2E0FA950B
:1001A000F1F700C089E290E0FC018081282F2071E6
:1001B00089E290E0FC0180818072282B89E290E046
:1001C000FC0180818074282B89E290E0FC01808111
:1001D0008078822B89830E945300F2E0FA95F1F730
:1001E00000C00E94630082E08A95F1F700C089E2B6
:1001F00090E0FC018081882F90E08071992721E0B8
:10020000009709F420E0222F30E089E290E0FC0121
:100210008081882F90E080729927009719F082E002
:1002200090E002C080E090E0282B392B89E290E03A
:10023000FC018081882F90E080749927009719F045
:1002400084E090E002C080E090E0282B392B89E226
:1002500090E0FC01808188231CF488E090E002C0DB
:1002600080E090E0822B932B982F8981892B8983C2
:100270000E9453008AE290E02AE230E0F9012081F6
:100280002068FC0120838AE290E02AE230E0F90154
:1002900020812064FC0120838AE290E02AE230E0A1
:1002A000F90120812062FC0120838AE290E02AE2A9
:1002B00030E0F90120812061FC0120838BE290E095
:1002C0002BE230E0F90120812068FC0120838BE2E1
:1002D00090E02BE230E0F90120812064FC012083D2
:1002E0008BE290E02BE230E0F90120812062FC01FA
:1002F00020838BE290E02BE230E0F9012081206145
:10030000FC0120838BE290E02BE230E0F9012081B8
:100310002D7FFC0120838A81882329F0F5EDFA9551
:10032000F1F7000004C085E08A95F1F700008981AB
:100330000F900F90DF91CF910895CF93DF93CDB7BA
:10034000DEB781E00E948300DF91CF910895CF93C3
:10035000DF9300D0CDB7DEB789836A838A81882393
:1003600051F08BE290E02BE230E0F9012081216036
:10037000FC01208309C08BE290E02BE230E0F90120
:1003800020812E7FFC0120838981882354F48BE215
:1003900090E02BE230E0F90120812068FC0120830D
:1003A00009C08BE290E02BE230E0F90120812F7749
:1003B000FC0120838981882F90E080749927009721
:1003C00051F08BE290E02BE230E0F90120812064D3
:1003D000FC01208309C08BE290E02BE230E0F901C0
:1003E00020812F7BFC0120838981882F90E08072FF
:1003F0009927009751F08BE290E02BE230E0F90171
:1004000020812062FC01208309C08BE290E02BE276
:1004100030E0F90120812F7DFC0120838981882F24
:1004200090E080719927009751F08BE290E02BE2E9
:1004300030E0F90120812061FC01208309C08BE2BA
:1004400090E02BE230E0F90120812F7EFC01208337
:1004500000C00E946300F2E0FA95F1F700C00E942C
:1004600053008981882F90E088709927009751F078
:100470008BE290E02BE230E0F90120812068FC0162
:10048000208309C08BE290E02BE230E0F90120816B
:100490002F77FC0120838981882F90E08470992731
:1004A000009751F08BE290E02BE230E0F9012081DF
:1004B0002064FC01208309C08BE290E02BE230E055
:1004C000F90120812F7BFC0120838981882F90E016
:1004D00082709927009751F08BE290E02BE230E098
:1004E000F90120812062FC01208309C08BE290E0A9
:1004F0002BE230E0F90120812F7DFC0120838981EE
:10050000882F90E081709927009751F08BE290E05E
:100510002BE230E0F90120812061FC01208309C039
:100520008BE290E02BE230E0F90120812F7EFC018C
:10053000208300C00E946300F2E0FA95F1F700C04A
:100540000E9453008BE290E02BE230E0F901208121
:100550002068FC0120838BE290E02BE230E0F9017F
:1005600020812064FC0120838BE290E02BE230E0CC
:10057000F90120812062FC0120838BE290E02BE2D4
:1005800030E0F90120812061FC0120838A818823E9
:1005900051F48981843038F48FE999E10197F1F7BA
:1005A00000C0000004C095ED9A95F1F700000F908F
:1005B0000F90DF91CF910895CF93DF931F92CDB726
:1005C000DEB7898360E089810E94A7010F90DF91E7
:1005D000CF910895CF93DF931F92CDB7DEB7898374
:1005E000898180580E94DC020F90DF91CF9108959D
:1005F000CF93DF93CDB7DEB781E00E94DC02DF91BD
:10060000CF910895CF93DF93CDB7DEB782E00E94FC
:10061000DC02DF91CF910895CF93DF931F92CDB786
:10062000DEB7898361E089810E94A7010F90DF9185
:10063000CF9108951F93CF93DF9300D0CDB7DEB74E
:100640009A83898303C0812F0E940C0389819A8138
:100650009C012F5F3F4F3A832983FC0110811123B6
:1006600091F70F900F90DF91CF911F9108951F93F5
:10067000CF93DF9300D000D01F92CDB7DEB79D831C
:100680008C8303C0812F0E940C038C819D819C016F
:100690002F5F3F4F3D832C839A83898389819A8181
:1006A000FC0184918B838B81182F112359F70F90B4
:1006B0000F900F900F900F90DF91CF911F910895A1
:1006C000CF93DF93CDB7DEB70E9473008AE290E04C
:1006D0002AE230E0F90120812160FC0120838AE2D6
:1006E00090E02AE230E0F90120812260FC012083C1
:1006F0008AE290E02AE230E0F90120812068FC01E2
:1007000020838AE290E02AE230E0F901208120642F
:10071000FC0120838AE290E02AE230E0F9012081A6
:100720002062FC0120838AE290E02AE230E0F901B5
:1007300020812061FC0120830E9453008BE290E025
:100740002BE230E0F90120812E7FFC0120838BE237
:1007500090E02BE230E0F90120812D7FFC01208325
:100760008BE290E02BE230E0F90120812068FC016F
:1007700020838BE290E02BE230E0F90120812064BD
:10078000FC0120838BE290E02BE230E0F901208134
:100790002062FC0120838BE290E02BE230E0F90143
:1007A00020812061FC0120838FE59AEE0197F1F70B
:1007B00000C000008BE290E02BE230E0F9012081E4
:1007C0002F77FC0120838BE290E02BE230E0F901EF
:1007D00020812F7BFC01208300C00E946300F2E097
:1007E000FA95F1F700C00E9453008FE090E4019762
:1007F000F1F700C000000E94630092E09A95F1F7C3
:1008000000C00E945300EFE8F1E03197F1F700C01B
:1008100000000E946300F2E0FA95F1F700C00E9428
:10082000530085ED8A95F1F700008BE290E02BE212
:1008300030E0F90120812F7EFC01208300C00E945E
:100840006300F2E0FA95F1F700C00E94530085EDD5
:100850008A95F1F700008BE290E02BE230E0F9019D
:1008600020812F7EFC01208300C00E946300F2E003
:10087000FA95F1F700C00E94530082E08A95F1F7E3
:1008800000C08BE290E02BE230E0F901208120688B
:10089000FC01208300C00E946300F2E0FA95F1F7AA
:1008A00000C00E94530085ED8A95F1F7000088E0B2
:1008B0000E94DC020E94F80286E00E94DC028CE0CA
:1008C0000E94DC02DF91CF910895CF93DF93CDB7E3
:1008D000DEB76C970FB6F894DEBF0FBECDBF0E9497
:1008E00079050E94600368E082E00E94880580E04C
:1008F00091E00E94CF050E94020385E091E00E94F2
:100900001A0380E090E0AAE7B4E489839A83AB837A
:10091000BC8320E030E04AE755E469817A818B812D
:100920009C810E947909DC01CB018D839E83AF837A
:10093000B88720E030E040E85FE36D817E818F8101
:1009400098850E94F80888232CF481E090E09A872B
:1009500089873FC020E03FEF4FE757E46D817E81FC
:100960008F8198850E94750918164CF520E030E0BB
:1009700040E251E469817A818B819C810E947909EE
:10098000DC01CB01BC01CD010E94FC08DC01CB01E4
:100990009A8789870FC080E991E09C878B878B8538
:1009A0009C850197F1F79C878B8789859A850197AC
:1009B0009A87898789859A85009769F714C06D8120
:1009C0007E818F8198850E94FC08DC01CB019A878B
:1009D000898789859A859E878D878D859E850197D4
:1009E000F1F79E878D870E94F8020E940B068823EC
:1009F00009F47EC082E191E00E9450060E94F80254
:100A00000E94020382E191E00E941A0380E090E0DC
:100A1000A0E2B1E48F87988BA98BBA8B20E030E0FD
:100A20004AE755E46F85788989899A890E9479090E
:100A3000DC01CB018B8B9C8BAD8BBE8B20E030E03F
:100A400040E85FE36B897C898D899E890E94F80864
:100A500088232CF481E090E0988F8F8B3FC020E0BA
:100A60003FEF4FE757E46B897C898D899E890E940F
:100A7000750918164CF520E030E040E251E46F852E
:100A8000788989899A890E947909DC01CB01BC01A6
:100A9000CD010E94FC08DC01CB01988F8F8B0FC029
:100AA00080E991E09A8F898F898D9A8D0197F1F76E
:100AB0009A8F898F8F89988D0197988F8F8B8F89C7
:100AC000988D009769F714C06B897C898D899E8900
:100AD0000E94FC08DC01CB01988F8F8B8F89988D49
:100AE0009C8F8B8F8B8D9C8D0197F1F79C8F8B8FBB
:100AF0007CCFCF93DF93CDB7DEB70E94380880E07C
:100B00000E946C0881E00E948C08DF91CF910895CB
:100B1000CF93DF9300D0CDB7DEB789836A838A8114
:100B200080931A01698185E00E94DA0760E081E123
:100B30000E94DA0780911A01682F82E10E94DA0789
:100B400060E083E10E94DA0760E084E10E94DA0756
:100B500060E085E10E94DA0760E086E10E94DA0742
:100B600066E086E00E94DA0768E080E00E94DA072B
:100B700063E081E00E94DA0763E082E00E94DA0726
:100B80006FE484E00E94DA0760E08CE10E94DA07FB
:100B90000E94FC060F900F90DF91CF910895CF93A4
:100BA000DF9300D0CDB7DEB79A83898380E00E94BF
:100BB0006C0889819A8145E0BC018BE00E9417088E
:100BC00081E00E946C080F900F90DF91CF91089503
:100BD000CF93DF93CDB7DEB780911A01DF91CF912C
:100BE0000895CF93DF9300D0CDB7DEB79A83898382
:100BF00089819A8145E0BC018AE00E9417088981B9
:100C00009A8145E0BC0180E10E9417080F900F9087
:100C1000DF91CF910895CF93DF931F92CDB7DEB7C9
:100C20000E94C90689838981882F90E08074992762
:100C3000009711F081E007C00E942706982F81E0FD
:100C4000992309F080E00F90DF91CF910895CF9321
:100C5000DF931F92CDB7DEB741E0CE010196BC0114
:100C600087E10E94F407898181700F90DF91CF9115
:100C70000895CF93DF931F92CDB7DEB780E00E9437
:100C80008C0880E60E94370780E00E94370789833E
:100C900081E00E948C0889810F90DF91CF910895A7
:100CA000CF93DF9300D0CDB7DEB79A83898380E0FE
:100CB0000E948C0881E60E94370740911A01298121
:100CC0003A8189819A81B9010E947F0781E00E945F
:100CD0008C0860E487E00E94DA070F900F90DF91A4
:100CE000CF910895CF93DF931F92CDB7DEB741E048
:100CF000CE010196BC0188E00E94F40789818F70C3
:100D0000898389810F90DF91CF910895CF93DF93ED
:100D100000D0CDB7DEB79A83898380E00E946C084B
:100D20000E941A0780E00E948C0881EE0E9437071B
:100D300081E00E948C0880E00E948C0880EA0E947A
:100D4000370720911A0189819A81622F0E94B60784
:100D500081E00E948C0881E00E946C080F900F9047
:100D6000DF91CF910895CF93DF931F92CDB7DEB778
:100D70000E94C90689838981882F90E08073992712
:100D8000009711F080E001C081E00F90DF91CF91DA
:100D90000895CF93DF931F92CDB7DEB780E00E9416
:100DA0008C088FEF0E943707898381E00E948C08AE
:100DB00089810F90DF91CF910895CF93DF931F9298
:100DC000CDB7DEB70E94C90689838981882F90E05C
:100DD00080729927009711F080E00AC08981882FDE
:100DE00090E080719927009711F081E001C08FEFAA
:100DF0000F90DF91CF910895CF93DF93CDB7DEB7FA
:100E000080E00E948C0882EE0E94370781E00E94F9
:100E10008C0860E787E00E94DA0780E00E946C0897
:100E20006BE080E00E94DA0781E00E946C08DF91AD
:100E3000CF910895CF93DF93CDB7DEB760E787E01A
:100E40000E94DA076AE080E00E94DA07DF91CF9122
:100E50000895CF93DF93CDB7DEB780E00E946C0892
:100E600068E080E00E94DA07DF91CF910895CF9388
:100E7000DF9300D01F92CDB7DEB78B8319821A8221
:100E800080E00E94AC08198230C08B81882F90E0EE
:100E90002981222F30E047E050E0BA01621B730B3A
:100EA0009B01022E02C0959587950A94E2F7817006
:100EB0009927009721F081E00E94CC0803C080E0D0
:100EC0000E94CC0881E00E94AC088A81880F8A8346
:100ED0000E94EC08882319F08A8181608A8380E06F
:100EE0000E94AC0889818F5F89838981883068F28C
:100EF0008A810F900F900F90DF91CF9108950F93FB
:100F00001F93CF93DF9300D000D000D0CDB7DEB7D2
:100F10009B838A837D836C834E83198218C0898169
:100F2000882F90E02C813D818901080F191F89814C
:100F3000882F90E02A813B81820F931FFC018081E2
:100F40000E943707F801808389818F5F89839981A7
:100F50008E81981720F326960FB6F894DEBF0FBE49
:100F6000CDBFDF91CF911F910F910895CF93DF9364
:100F700000D000D0CDB7DEB79B838A836C83198203
:100F80000EC08981882F90E02A813B81820F931FB8
:100F9000FC0180810E94370789818F5F8983998155
:100FA0008C81981770F30F900F900F900F90DF9136
:100FB000CF910895CF93DF9300D0CDB7DEB789836B
:100FC0006A8380E00E948C0889818F7180620E9410
:100FD00037078A810E94370781E00E948C080F90B2
:100FE0000F90DF91CF910895CF93DF9300D000D081
:100FF000CDB7DEB789837B836A834C8380E00E9410
:101000008C0889818F710E9437072A813B818A81F0
:101010009B814C81B9010E947F0781E00E948C086E
:101020000F900F900F900F90DF91CF910895CF9375
:10103000DF9300D000D0CDB7DEB789837B836A838E
:101040004C8380E00E948C0889818F7180620E94AD
:1010500037078A819B816C810E94B60781E00E94DC
:101060008C080F900F900F900F90DF91CF91089503
:10107000CF93DF93CDB7DEB787E290E027E230E091
:10108000F90120812062FC01208387E290E027E2C1
:1010900030E0F90120812061FC01208384E290E0AE
:1010A00024E230E0F90120812062FC01208384E207
:1010B00090E024E230E0F90120812860FC012083E7
:1010C00084E290E024E230E0F90120812F7EFC01EF
:1010D0002083DF91CF910895CF93DF931F92CDB7F7
:1010E000DEB789838981882351F088E290E028E285
:1010F00030E0F90120812062FC01208309C088E2F0
:1011000090E028E230E0F90120812F7DFC0120836E
:101110000F90DF91CF910895CF93DF931F92CDB7BA
:10112000DEB789838981882351F088E290E028E244
:1011300030E0F90120812061FC01208309C088E2B0
:1011400090E028E230E0F90120812F7EFC0120832D
:101150000F90DF91CF910895CF93DF931F92CDB77A
:10116000DEB789838981882351F085E290E025E20A
:1011700030E0F90120812062FC01208309C085E272
:1011800090E025E230E0F90120812F7DFC012083F1
:101190000F90DF91CF910895CF93DF931F92CDB73A
:1011A000DEB789838981882351F085E290E025E2CA
:1011B00030E0F90120812860FC01208309C085E22C
:1011C00090E025E230E0F9012081277FFC012083B7
:1011D0000F90DF91CF910895CF93DF93CDB7DEB716
:1011E00083E290E0FC0180818071DF91CF910895CE
:1011F0002FD008F481E0089557D088F09F5790F0E1
:10120000B92F9927B751A0F0D1F0660F771F881F2B
:10121000991F1AF0BA95C9F712C0B13081F05ED0AB
:10122000B1E008955BC0672F782F8827B85F39F049
:10123000B93FCCF3869577956795B395D9F73EF48A
:1012400090958095709561957F4F8F4F9F4F089532
:10125000990F0008550FAA0BE0E8FEEF16161706C7
:10126000E807F907C0F012161306E407F50798F02F
:10127000621B730B840B950B39F40A2661F0232B48
:10128000242B252B21F408950A2609F4A140A695C4
:101290008FEF811D811D089557FD9058440F551FF4
:1012A00059F05F3F71F04795880F97FB991F61F0E8
:1012B0009F3F79F087950895121613061406551F5F
:1012C000F2CF4695F1DF08C0161617061806991FCB
:1012D000F1CF86957105610508940895E894BB27C0
:1012E00066277727CB0197F90895B2DF08F48FEFCF
:1012F00008950BD078C069D028F06ED018F09523EF
:1013000009F05AC05FC01124EACFC6DFA0F3959F51
:10131000D1F3950F50E0551F629FF001729FBB27DC
:10132000F00DB11D639FAA27F00DB11DAA1F649F88
:101330006627B00DA11D661F829F2227B00DA11D3B
:10134000621F739FB00DA11D621F839FA00D611DC1
:10135000221F749F3327A00D611D231F849F600DE2
:10136000211D822F762F6A2F11249F5750408AF01B
:10137000E1F088234AF0EE0FFF1FBB1F661F771FA7
:10138000881F91505040A9F79E3F510570F014C03E
:10139000A6CF5F3FECF3983EDCF386957795679593
:1013A000B795F795E7959F5FC1F7FE2B880F911DC5
:1013B0009695879597F9089597F99F6780E870E06B
:1013C00060E008959FEF80EC089500240A941616BB
:1013D000170618060906089500240A941216130623
:1013E000140605060895092E0394000C11F48823B1
:1013F00052F0BB0F40F4BF2B11F460FF04C06F5FCD
:0C1400007F4F8F4F9F4F0895F894FFCF4F
:10140C00E7E7E7E7E75374617274696E672E2E2E77
:02141C000000CE
:00000001FF
