:100000000C9434000C9451000C9451000C94510049
:100010000C9451000C9451000C9451000C9451001C
:100020000C9451000C943F050C9451000C94510019
:100030000C9451000C9451000C9451000C945100FC
:100040000C9451000C9451000C9451000C945100EC
:100050000C9451000C9451000C9451000C945100DC
:100060000C9451000C94510011241FBECFEFD8E026
:10007000DEBFCDBF11E0A0E0B1E0E6EDF3E102C0EC
:1000800005900D92A630B107D9F711E0A6E0B1E0D6
:1000900001C01D92A531B107E1F70E947D040C94C7
:1000A000E9090C940000CF93DF93CDB7DEB78BE264
:1000B00090E02BE230E0F90120812B7FFC012083CE
:1000C000DF91CF910895CF93DF93CDB7DEB78BE269
:1000D00090E02BE230E0F90120812460FC012083D4
:1000E000DF91CF910895CF93DF93CDB7DEB78AE24A
:1000F00090E02AE230E0F90120812460FC012083B5
:10010000DF91CF910895CF93DF9300D0CDB7DEB7C5
:100110008A838A81882351F08BE290E02BE230E0E1
:10012000F90120812160FC01208309C08BE290E06D
:100130002BE230E0F90120812E7FFC0120838BE24D
:1001400090E02BE230E0F90120812260FC01208365
:100150008AE290E02AE230E0F90120812F77FC0169
:1001600020838AE290E02AE230E0F90120812F7BAF
:10017000FC0120838AE290E02AE230E0F90120814C
:100180002F7DFC0120838AE290E02AE230E0F90131
:1001900020812F7EFC0120830E946300000089E201
:1001A00090E0FC018081282F207189E290E0FC0121
:1001B00080818072282B89E290E0FC01808180742C
:1001C000282B89E290E0FC0180818078822B898352
:1001D0000E94530000000E946300000089E290E04A
:1001E000FC018081882F90E08071992721E00097A1
:1001F00009F420E0222F30E089E290E0FC018081C8
:10020000882F90E080729927009719F082E090E0A3
:1002100002C080E090E0282B392B89E290E0FC01BD
:100220008081882F90E080749927009719F084E0EE
:1002300090E002C080E090E0282B392B89E290E02A
:10024000FC01808188231CF488E090E002C080E0FB
:1002500090E0822B932B982F8981892B89830E9490
:1002600053008AE290E02AE230E0F9012081206820
:10027000FC0120838AE290E02AE230E0F90120814B
:100280002064FC0120838AE290E02AE230E0F90158
:1002900020812062FC0120838AE290E02AE230E0A3
:1002A000F90120812061FC0120838BE290E02BE2A8
:1002B00030E0F90120812068FC0120838BE290E08E
:1002C0002BE230E0F90120812064FC0120838BE2E5
:1002D00090E02BE230E0F90120812062FC012083D4
:1002E0008BE290E02BE230E0F90120812061FC01FB
:1002F00020838BE290E02BE230E0F90120812D7F1A
:10030000FC0120838A81882321F0F2E0FA95F1F73D
:1003100001C0000089810F900F90DF91CF91089567
:10032000CF93DF93CDB7DEB781E00E948300DF91EA
:10033000CF910895CF93DF9300D0CDB7DEB78983F7
:100340006A838A81882351F08BE290E02BE230E0CF
:10035000F90120812160FC01208309C08BE290E03B
:100360002BE230E0F90120812E7FFC01208389817E
:10037000882354F48BE290E02BE230E0F9012081F5
:100380002068FC01208309C08BE290E02BE230E082
:10039000F90120812F77FC0120838981882F90E04B
:1003A00080749927009751F08BE290E02BE230E0C7
:1003B000F90120812064FC01208309C08BE290E0D8
:1003C0002BE230E0F90120812F7BFC012083898121
:1003D000882F90E080729927009751F08BE290E08F
:1003E0002BE230E0F90120812062FC01208309C06A
:1003F0008BE290E02BE230E0F90120812F7DFC01BF
:1004000020838981882F90E080719927009751F08F
:100410008BE290E02BE230E0F90120812061FC01C9
:10042000208309C08BE290E02BE230E0F9012081CB
:100430002F7EFC01208300000E94630000000E94C8
:1004400053008981882F90E088709927009751F098
:100450008BE290E02BE230E0F90120812068FC0182
:10046000208309C08BE290E02BE230E0F90120818B
:100470002F77FC0120838981882F90E08470992751
:10048000009751F08BE290E02BE230E0F9012081FF
:100490002064FC01208309C08BE290E02BE230E075
:1004A000F90120812F7BFC0120838981882F90E036
:1004B00082709927009751F08BE290E02BE230E0B8
:1004C000F90120812062FC01208309C08BE290E0C9
:1004D0002BE230E0F90120812F7DFC01208389810E
:1004E000882F90E081709927009751F08BE290E07F
:1004F0002BE230E0F90120812061FC01208309C05A
:100500008BE290E02BE230E0F90120812F7EFC01AC
:10051000208300000E94630000000E9453008BE2D1
:1005200090E02BE230E0F90120812068FC0120837B
:100530008BE290E02BE230E0F90120812064FC01A5
:1005400020838BE290E02BE230E0F90120812062F1
:10055000FC0120838BE290E02BE230E0F901208166
:100560002061FC0120838A81882339F489818430C9
:1005700020F4F6E4FA95F1F703C082E08A95F1F7EA
:100580000F900F90DF91CF910895CF93DF931F923B
:10059000CDB7DEB7898360E089810E949A010F9010
:1005A000DF91CF910895CF93DF931F92CDB7DEB740
:1005B0008983898180580E94C5020F90DF91CF9175
:1005C0000895CF93DF93CDB7DEB781E00E94C502D7
:1005D000DF91CF910895CF93DF93CDB7DEB782E05F
:1005E0000E94C502DF91CF910895CF93DF931F92B0
:1005F000CDB7DEB7898361E089810E949A010F90AF
:10060000DF91CF9108951F93CF93DF9300D0CDB7A3
:10061000DEB79A83898303C0812F0E94F502898106
:100620009A819C012F5F3F4F3A832983FC011081FF
:10063000112391F70F900F90DF91CF911F910895A3
:100640001F93CF93DF9300D000D01F92CDB7DEB7BA
:100650009D838C8303C0812F0E94F5028C819D8134
:100660009C012F5F3F4F3D832C839A83898389812F
:100670009A81FC0184918B838B81182F112359F768
:100680000F900F900F900F900F90DF91CF911F91CF
:100690000895CF93DF93CDB7DEB70E9473008AE24F
:1006A00090E02AE230E0F90120812160FC01208302
:1006B0008AE290E02AE230E0F90120812260FC0128
:1006C00020838AE290E02AE230E0F901208120686C
:1006D000FC0120838AE290E02AE230E0F9012081E7
:1006E0002064FC0120838AE290E02AE230E0F901F4
:1006F00020812062FC0120838AE290E02AE230E03F
:10070000F90120812061FC0120830E9453008BE2CB
:1007100090E02BE230E0F90120812E7FFC01208364
:100720008BE290E02BE230E0F90120812D7FFC018B
:1007300020838BE290E02BE230E0F90120812068F9
:10074000FC0120838BE290E02BE230E0F901208174
:100750002064FC0120838BE290E02BE230E0F90181
:1007600020812062FC0120838BE290E02BE230E0CC
:10077000F90120812061FC0120838FED91E0019738
:10078000F1F700C000008BE290E02BE230E0F901CD
:1007900020812F77FC0120838BE290E02BE230E078
:1007A000F90120812F7BFC01208300000E9463005F
:1007B00000000E945300FFEAFA95F1F70E946300DF
:1007C00000000E94530084E08A95F1F700000E9427
:1007D000630000000E94530092E09A95F1F78BE2CB
:1007E00090E02BE230E0F90120812F7EFC01208394
:1007F00000000E94630000000E945300F2E0FA959E
:10080000F1F78BE290E02BE230E0F90120812F7EBE
:10081000FC01208300000E94630000000E9453003E
:1008200000008BE290E02BE230E0F90120812068AB
:10083000FC01208300000E94630000000E9453001E
:10084000F2E0FA95F1F788E00E94C5020E94E10209
:1008500086E00E94C5028CE00E94C502DF91CF9124
:100860000895CF93DF93CDB7DEB781EB90E021EB16
:1008700030E0F90120812460FC01208381EB90E0CD
:1008800021EB30E0F90120812260FC01208381EB23
:1008900090E021EB30E0F90120812160FC01208310
:1008A00082EB90E0FC01108280E790E020E730E0EE
:1008B000F90120812160FC0120837894DF91CF91A0
:1008C0000895CF93DF93CDB7DEB7F89483E590E03A
:1008D00023E530E0F90120812160FC012083789438
:1008E000889583E590E023E530E0F90120812E7FB3
:1008F000FC012083DF91CF910895CF93DF93CDB793
:10090000DEB72E970FB6F894DEBF0FBECDBF0E94A4
:100910005E050E9431048AE290E02AE230E0F901AB
:1009200020812062FC01208383E590E023E530E014
:10093000F9012081217F2660FC01208368E082E0AC
:100940000E946D0580E091E00E94D605809106012D
:1009500090910701853091050CF48EC0F8941092A7
:100960000701109206018BE290E02BE230E0F901E2
:1009700020812062FC01208300000E9498068823C9
:10098000E1F780E090E0A8ECB2E489839A83AB833E
:10099000BC8320E030E040E052E469817A818B81C1
:1009A0009C810E945E09DC01CB018D839E83AF8315
:1009B000B88720E030E040E85FE36D817E818F8181
:1009C00098850E94DD0888232CF481E090E09A87C6
:1009D00089873FC020E03FEF4FE757E46D817E817C
:1009E0008F8198850E945A0918164CF520E030E056
:1009F00040E251E469817A818B819C810E945E0989
:100A0000DC01CB01BC01CD010E94E108DC01CB017E
:100A10009A8789870FC083E090E09C878B878B85BE
:100A20009C850197F1F79C878B8789859A8501972B
:100A30009A87898789859A85009769F714C06D819F
:100A40007E818F8198850E94E108DC01CB019A8725
:100A5000898789859A859E878D878D859E85019753
:100A6000F1F79E878D878BE290E02BE230E0F90171
:100A700020812F7DFC0120830E94610467CF1F929B
:100A80000F9200905F000F9211248F939F93CF934A
:100A9000DF93CDB7DEB780910601909107010196F3
:100AA0009093070180930601DF91CF919F918F91E1
:100AB0000F9000925F000F901F901895CF93DF93D7
:100AC000CDB7DEB70E941D0880E00E94510881E08A
:100AD0000E947108DF91CF910895CF93DF9300D0EA
:100AE000CDB7DEB789836A838A81809314016981D7
:100AF00085E00E94BF0760E081E10E94BF0780910E
:100B00001401682F82E10E94BF0760E083E10E9428
:100B1000BF0760E084E10E94BF0760E085E10E94BA
:100B2000BF0760E086E10E94BF0766E086E00E94A2
:100B3000BF0768E080E00E94BF0763E081E00E9499
:100B4000BF0763E082E00E94BF076FE484E00E9479
:100B5000BF0760E08CE10E94BF070E94E1060F9092
:100B60000F90DF91CF910895CF93DF9300D0CDB751
:100B7000DEB79A83898380E00E94510889819A8137
:100B800045E0BC018BE00E94FC0781E00E94510817
:100B90000F900F90DF91CF910895CF93DF93CDB752
:100BA000DEB780911401DF91CF910895CF93DF9349
:100BB00000D0CDB7DEB79A83898389819A8145E0D9
:100BC000BC018AE00E94FC0789819A8145E0BC0152
:100BD00080E10E94FC070F900F90DF91CF91089564
:100BE000CF93DF931F92CDB7DEB70E94AE06898305
:100BF0008981882F90E080749927009711F081E017
:100C000007C00E940C06982F81E0992309F080E02C
:100C10000F90DF91CF910895CF93DF931F92CDB7BF
:100C2000DEB741E0CE010196BC0187E10E94D90701
:100C3000898181700F90DF91CF910895CF93DF93D9
:100C40001F92CDB7DEB780E00E94710880E60E9457
:100C50001C0780E00E941C07898381E00E947108C4
:100C600089810F90DF91CF910895CF93DF9300D0CA
:100C7000CDB7DEB79A83898380E00E94710881E650
:100C80000E941C074091140129813A8189819A812F
:100C9000B9010E94640781E00E94710860E487E066
:100CA0000E94BF070F900F90DF91CF910895CF93CF
:100CB000DF931F92CDB7DEB741E0CE010196BC01B4
:100CC00088E00E94D90789818F70898389810F907C
:100CD000DF91CF910895CF93DF9300D0CDB7DEB7EA
:100CE0009A83898380E00E9451080E94FF0680E079
:100CF0000E94710881EE0E941C0781E00E94710829
:100D000080E00E94710880EA0E941C072091140173
:100D100089819A81622F0E949B0781E00E9471085D
:100D200081E00E9451080F900F90DF91CF910895BC
:100D3000CF93DF931F92CDB7DEB70E94AE068983B3
:100D40008981882F90E080739927009711F080E0C7
:100D500001C081E00F90DF91CF910895CF93DF9391
:100D60001F92CDB7DEB780E00E9471088FEF0E941E
:100D70001C07898381E00E94710889810F90DF91AF
:100D8000CF910895CF93DF931F92CDB7DEB70E9426
:100D9000AE0689838981882F90E080729927009719
:100DA00011F080E00AC08981882F90E08071992736
:100DB000009711F081E001C08FEF0F90DF91CF918C
:100DC0000895CF93DF93CDB7DEB780E00E9471081E
:100DD00082EE0E941C0781E00E94710860E787E0B4
:100DE0000E94BF0780E00E9451086BE080E00E94F3
:100DF000BF0781E00E945108DF91CF910895CF9302
:100E0000DF93CDB7DEB760E787E00E94BF076AE0F7
:100E100080E00E94BF07DF91CF910895CF93DF93C9
:100E2000CDB7DEB780E00E94510868E080E00E9404
:100E3000BF07DF91CF910895CF93DF9300D01F922A
:100E4000CDB7DEB78B8319821A8280E00E949108A9
:100E5000198230C08B81882F90E02981222F30E0C9
:100E600047E050E0BA01621B730B9B01022E02C0E7
:100E7000959587950A94E2F781709927009721F05C
:100E800081E00E94B10803C080E00E94B10881E0C7
:100E90000E9491088A81880F8A830E94D108882342
:100EA00019F08A8181608A8380E00E94910889819B
:100EB0008F5F89838981883068F28A810F900F90D3
:100EC0000F90DF91CF9108950F931F93CF93DF93EE
:100ED00000D000D000D0CDB7DEB79B838A837D835E
:100EE0006C834E83198218C08981882F90E02C81F1
:100EF0003D818901080F191F8981882F90E02A817F
:100F00003B81820F931FFC0180810E941C07F80126
:100F1000808389818F5F898399818E81981720F3DF
:100F200026960FB6F894DEBF0FBECDBFDF91CF91EE
:100F30001F910F910895CF93DF9300D000D0CDB7CC
:100F4000DEB79B838A836C8319820EC08981882FC8
:100F500090E02A813B81820F931FFC0180810E94D7
:100F60001C0789818F5F898399818C81981770F321
:100F70000F900F900F900F90DF91CF910895CF9326
:100F8000DF9300D0CDB7DEB789836A8380E00E940B
:100F9000710889818F7180620E941C078A810E947A
:100FA0001C0781E00E9471080F900F90DF91CF9194
:100FB0000895CF93DF9300D000D0CDB7DEB78983FB
:100FC0007B836A834C8380E00E94710889818F71E2
:100FD0000E941C072A813B818A819B814C81B90137
:100FE0000E94640781E00E9471080F900F900F909B
:100FF0000F90DF91CF910895CF93DF9300D000D071
:10100000CDB7DEB789837B836A834C8380E00E94FF
:10101000710889818F7180620E941C078A819B817F
:101020006C810E949B0781E00E9471080F900F90D5
:101030000F900F90DF91CF910895CF93DF93CDB7AD
:10104000DEB787E290E027E230E0F90120812062FC
:10105000FC01208387E290E027E230E0F901208163
:101060002061FC01208384E290E024E230E0F90179
:1010700020812062FC01208384E290E024E230E0C1
:10108000F90120812860FC01208384E290E024E2C1
:1010900030E0F90120812F7EFC012083DF91CF9188
:1010A0000895CF93DF931F92CDB7DEB789838981EF
:1010B000882351F088E290E028E230E0F9012081B5
:1010C0002062FC01208309C088E290E028E230E041
:1010D000F90120812F7DFC0120830F90DF91CF91BA
:1010E0000895CF93DF931F92CDB7DEB789838981AF
:1010F000882351F088E290E028E230E0F901208175
:101100002061FC01208309C088E290E028E230E001
:10111000F90120812F7EFC0120830F90DF91CF9178
:101120000895CF93DF931F92CDB7DEB7898389816E
:10113000882351F085E290E025E230E0F90120813A
:101140002062FC01208309C085E290E025E230E0C6
:10115000F90120812F7DFC0120830F90DF91CF9139
:101160000895CF93DF931F92CDB7DEB7898389812E
:10117000882351F085E290E025E230E0F9012081FA
:101180002860FC01208309C085E290E025E230E080
:10119000F9012081277FFC0120830F90DF91CF91FF
:1011A0000895CF93DF93CDB7DEB783E290E0FC01E3
:1011B00080818071DF91CF9108952FD008F481E074
:1011C000089557D088F09F5790F0B92F9927B751BD
:1011D000A0F0D1F0660F771F881F991F1AF0BA95FB
:1011E000C9F712C0B13081F05ED0B1E008955BC0A4
:1011F000672F782F8827B85F39F0B93FCCF38695F1
:1012000077956795B395D9F73EF49095809570954D
:1012100061957F4F8F4F9F4F0895990F0008550F8D
:10122000AA0BE0E8FEEF16161706E807F907C0F06C
:1012300012161306E407F50798F0621B730B840B74
:10124000950B39F40A2661F0232B242B252B21F44E
:1012500008950A2609F4A140A6958FEF811D811DEE
:10126000089557FD9058440F551F59F05F3F71F096
:101270004795880F97FB991F61F09F3F79F08795FD
:101280000895121613061406551FF2CF4695F1DF86
:1012900008C0161617061806991FF1CF8695710516
:1012A000610508940895E894BB2766277727CB014A
:1012B00097F90895B2DF08F48FEF08950BD078C046
:1012C00069D028F06ED018F0952309F05AC05FC09D
:1012D0001124EACFC6DFA0F3959FD1F3950F50E01C
:1012E000551F629FF001729FBB27F00DB11D639FD8
:1012F000AA27F00DB11DAA1F649F6627B00DA11D7E
:10130000661F829F2227B00DA11D621F739FB00D23
:10131000A11D621F839FA00D611D221F749F332793
:10132000A00D611D231F849F600D211D822F762F2C
:101330006A2F11249F5750408AF0E1F088234AF029
:10134000EE0FFF1FBB1F661F771F881F9150504075
:10135000A9F79E3F510570F014C0A6CF5F3FECF394
:10136000983EDCF3869577956795B795F795E79561
:101370009F5FC1F7FE2B880F911D9695879597F972
:10138000089597F99F6780E870E060E008959FEF07
:1013900080EC089500240A9416161706180609060C
:1013A000089500240A9412161306140605060895DB
:1013B000092E0394000C11F4882352F0BB0F40F463
:1013C000BF2B11F460FF04C06F5F7F4F8F4F9F4FA3
:0613D0000895F894FFCF20
:0613D600E7E7E7E7E7008E
:00000001FF
