:100000000C9434000C9451000C9451000C94510049
:100010000C9451000C9451000C9451000C9451001C
:100020000C9451000C943C0C0C9451000C94510015
:100030000C9451000C9451000C9451000C945100FC
:100040000C9451000C9451000C9453000C94A80093
:100050000C9451000C9451000C9451000C945100DC
:100060000C9451000C94510011241FBECFEFD8E026
:10007000DEBFCDBF11E0A0E0B1E0E8E5F3E202C0F1
:1000800005900D92A635B107D9F712E0A6E5B1E0CB
:1000900001C01D92AC35B107E1F70E949F090C9495
:1000A000AA110C9400001F920F9200905F000F9213
:1000B00011242F933F938F939F93EF93FF93CF93AD
:1000C000DF93CDB7DEB72597DEBFCDBF80EC90E0E4
:1000D000FC0180818A8386EC90E0FC0180818B8327
:1000E0008A818871898380915802882F90E00196D7
:1000F0008F7799279D838C8380915902282F30E038
:100100008C819D812817390719F482E089830AC000
:100110008C81809358028C819D818A529E4F2B81C5
:10012000FC012083898180935A020F900F900F90D9
:100130000F900F90DF91CF91FF91EF919F918F9151
:100140003F912F910F9000925F000F901F90189594
:100150001F920F9200905F000F9211242F933F93F4
:100160008F939F93EF93FF93CF93DF9300D0CDB7FF
:10017000DEB790915602809157029817B9F080919E
:100180005702882F90E001968F7799279A83898369
:1001900089818093570286EC90E029813A812A5A1E
:1001A0003E4FF9012081FC01208309C081EC90E0E1
:1001B00021EC30E0F90120812F7DFC0120830F909C
:1001C0000F90DF91CF91FF91EF919F918F913F9190
:1001D0002F910F9000925F000F901F901895CF9372
:1001E000DF9300D0CDB7DEB79A8389831092560291
:1001F00010925702109258021092590289819A81E6
:10020000992354F480EC90E022E0FC012083898162
:100210009A819F779A83898385EC90E029813A813E
:10022000232F3327FC01208384EC90E02981FC01FB
:10023000208381EC90E028E9FC01208382EC90E0AF
:1002400026E0FC0120830F900F90DF91CF9108955D
:10025000CF93DF9300D01F92CDB7DEB790915802B5
:1002600080915902981719F480E091E01EC08091A6
:100270005902882F90E001968F7799279A83898376
:1002800089818093590289819A818A529E4FFC010B
:1002900080818B8380915A02882F90E0382F22270B
:1002A0008B81882F90E0820F931F0F900F900F90FB
:1002B000DF91CF910895CF93DF9300D01F92CDB7F8
:1002C000DEB79091580280915902981719F480E096
:1002D00091E01BC080915902882F90E001968F77A2
:1002E00099279A83898389819A818A529E4FFC013A
:1002F00080818B8380915A02882F90E0382F2227AB
:100300008B81882F90E0820F931F0F900F900F909A
:10031000DF91CF910895CF93DF9300D01F92CDB797
:10032000DEB78B8380915602882F90E001968F77FD
:1003300099279A838983000080915702282F30E003
:1003400089819A8128173907B9F389819A818A5A54
:100350009E4F2B81FC01208389818093560281EC82
:1003600090E021EC30E0F90120812062FC01208343
:100370000F900F900F90DF91CF910895CF93DF935F
:1003800000D0CDB7DEB79A8389830BC089819A816B
:100390009C012F5F3F4F3A832983FC0180810E949B
:1003A0008B0189819A81FC018081882379F70F90E4
:1003B0000F90DF91CF9108951F93CF93DF9300D0DB
:1003C00000D01F92CDB7DEB79D838C8303C0812FF1
:1003D0000E948B018C819D819C012F5F3F4F3D834B
:1003E0002C839A83898389819A81FC0184918B83F0
:1003F0008B81182F112359F70F900F900F900F90AA
:100400000F90DF91CF911F910895CF93DF9300D08C
:10041000CDB7DEB780915802882F90E09C0121581B
:100420003F4F80915902882F90E0A901481B590B3A
:10043000CA012FE730E0B9010E94550C0F900F90D0
:10044000DF91CF910895CF93DF93CDB7DEB7809141
:10045000590280935802DF91CF910895CF93DF9393
:10046000CDB7DEB781EB90E021EB30E0F9012081E0
:100470002460FC01208381EB90E021EB30E0F90166
:1004800020812260FC01208381EB90E021EB30E0B1
:10049000F90120812160FC01208382EB90E0FC01C6
:1004A00010820E945602DF91CF910895CF93DF937F
:1004B000CDB7DEB780E790E020E730E0F90120819A
:1004C0002160FC0120837894DF91CF910895CF9330
:1004D000DF93CDB7DEB780E790E020E730E0F901A9
:1004E0002081FC012083DF91CF910895CF93DF938A
:1004F0001F92CDB7DEB789838AE790E02AE730E024
:10050000F90120812F77FC0120838CE790E02CE714
:1005100030E0F9012081322F387F29812770232B89
:10052000FC0120838AE790E02AE730E0F90120818E
:100530002068FC0120830F90DF91CF910895CF9325
:10054000DF9300D0CDB7DEB78AE790E02AE730E04E
:10055000F90120812064FC01208300008AE790E0FB
:10056000FC018081882F90E0807499270097B1F773
:1005700088E790E0FC01808191819A838983898159
:100580009A810F900F90DF91CF910895CF93DF93D1
:100590001F92CDB7DEB7898389810E9476020E94BF
:1005A0009F020F90DF91CF910895CF93DF93CDB746
:1005B000DEB78CE790E02CE730E0F9012081206C79
:1005C000FC0120838AE790E02AE730E0F9012081EE
:1005D0002760FC0120838CE790E02CE730E0F901F4
:1005E0002081FC0120838BE790E02BE730E0F901CC
:1005F0002081FC0120838AE790E02AE730E0F901BE
:1006000020812068FC012083DF91CF910895CF9352
:10061000DF93CDB7DEB7A2970FB6F894DEBF0FBE5B
:10062000CDBF19821A821B821C828EE00E94760244
:1006300080E090E0AAE7B3E48F839887A987BA8720
:100640002EE333EC4EE25DE36F81788589859A85F0
:100650000E94760EDC01CB018B879C87AD87BE871D
:1006600020E030E040E85FE36B857C858D859E85EA
:100670000E94230D88231CF481E08F8791C020E025
:1006800030E04FE753E46B857C858D859E850E9425
:10069000720E18160CF07BC020E030E04AE754E4FC
:1006A0006F81788589859A850E94270DDC01CB01B1
:1006B000888B998BAA8BBB8B20E030E040E052E422
:1006C000688979898A899B890E94760EDC01CB0131
:1006D0008C8B9D8BAE8BBF8B20E030E040E85FE3DE
:1006E0006C897D898E899F890E94230D88232CF433
:1006F00081E090E0998F888F3FC020E03FEF4FE787
:1007000057E46C897D898E899F890E94720E181624
:100710004CF520E030E040E251E4688979898A892B
:100720009B890E94760EDC01CB01BC01CD010E94A9
:10073000940DDC01CB01998F888F0FC083E090E08E
:100740009B8F8A8F8A8D9B8D0197F1F79B8F8A8F64
:10075000888D998D0197998F888F888D998D0097B5
:1007600069F724C06C897D898E899F890E94940DC8
:10077000DC01CB01998F888F888D998D9D8F8C8F0F
:100780008C8D9D8D0197F1F79D8F8C8F0FC06B85A0
:100790007C858D859E850E94940DDC01CB018F8721
:1007A0008F858E8F8E8D8A95F1F78E8F0E949F0296
:1007B0009E838D838D819E819C0140E050E080E08E
:1007C00090E3A1E1B0E0BC01CD010E94690CDA0127
:1007D000C901BC01CD010E94C20DDC01CB0120E0AA
:1007E00030E04AE754E4BC01CD010E94270DDC0152
:1007F000CB0189839A83AB83BC8389819A81AB8146
:10080000BC81BC01CD01A2960FB6F894DEBF0FBE2D
:10081000CDBFDF91CF910895EF92FF920F931F9379
:10082000CF93DF93CDB7DEB728970FB6F894DEBF2E
:100830000FBECDBF9A8389837C836B8389819A8124
:10084000009721F480E090E0DC0128C08B819C813E
:10085000CC01A0E0B0E0072E7AE0880F991FAA1F14
:10086000BB1F7A95D1F7702D29813A81990140E01B
:1008700050E0BC01CD010E94690CDA01C9019C0164
:10088000AD018B819C81CC01A0E0B0E079018A01AF
:10089000E81AF90A0A0B1B0BD801C701BC01CD01EC
:1008A00028960FB6F894DEBF0FBECDBFDF91CF9173
:1008B0001F910F91FF90EF900895CF93DF9300D099
:1008C00000D000D0CDB7DEB79A8389834B835C8399
:1008D0006D837E8389819A81009721F480E090E086
:1008E000DC011FC089819A81CC01A0E0B0E0BC018D
:1008F000CD010E94C00DDC01CB012B813C814D81DB
:100900005E81BC01CD010E94760EDC01CB0120E0AE
:1009100030E040E854E4BC01CD010E94270DDC0129
:10092000CB01BC01CD0126960FB6F894DEBF0FBEF9
:10093000CDBFDF91CF910895CF93DF9300D000D04A
:10094000CDB7DEB79A8389837C836B838B819C814F
:1009500042E2489F9001499F300D112449815A81FC
:100960006EE1649FC001659F900D1124820F931F5B
:100970009C838B838B819C810024880F991F001C92
:10098000880F991F001C892F902D9C838B838B814E
:100990009C810F900F900F900F90DF91CF91089551
:1009A000CF93DF93CDB7DEB72A970FB6F894DEBFAB
:1009B0000FBECDBF6D837E838F8398875A8749870B
:1009C0001C821B821A8219826D817E818F8198859B
:1009D0000E948F0DDC01CB019C838B838B819C81DA
:1009E000AA2797FDA095BA2FBC01CD010E94C20D88
:1009F000DC01CB019C01AD016D817E818F819885E9
:100A00000E94BE0CDC01CB0120E030E048EC52E457
:100A1000BC01CD010E94760EDC01CB01BC01CD01F1
:100A20000E948F0DDC01CB019A83898389819A8191
:100A300099233CF489819A819195819591099A83B2
:100A400089838A818F9389818F938C818F938B8106
:100A50008F9381E091E0892F8F9381E091E08F93D4
:100A60008A858F9389858F930E94D90E8DB79EB703
:100A700008960FB6F894DEBF0FBECDBF2A960FB60C
:100A8000F894DEBF0FBECDBFDF91CF910895CF9315
:100A9000DF93CDB7DEB727970FB6F894DEBF0FBE52
:100AA000CDBF8F831B821C821D821E828F810E947C
:100AB00076021A82198216C00E949F02CC01A0E021
:100AC000B0E02B813C814D815E81820F931FA41F7A
:100AD000B51F8B839C83AD83BE8389819A810196E8
:100AE0009A83898389819A81803891052CF38B813F
:100AF0009C81AD81BE81BB2324F481589F4FAF4FB1
:100B0000BF4F689416F8B595A79597958795169455
:100B1000D1F727960FB6F894DEBF0FBECDBFDF9199
:100B2000CF910895CF93DF9300D0CDB7DEB79A83EE
:100B3000898389819A81CC01A0E0B0E0BC01CD011C
:100B40000E94C00DDC01CB012FE23AEB48EE53E4EA
:100B5000BC01CD010E94BE0CDC01CB0120E030E8DD
:100B600049E854E4BC01CD010E94760EDC01CB01C2
:100B700020E030E040E854E4BC01CD010E94270DA4
:100B8000DC01CB0120E030E040E251E4BC01CD01CA
:100B90000E94270DDC01CB01BC01CD010F900F900D
:100BA000DF91CF910895CF93DF93CDB7DEB70E9449
:100BB000920880E00E94C60881E00E94E608DF916A
:100BC000CF910895CF93DF9300D0CDB7DEB789835F
:100BD0006A838A8180935B02698185E00E94340880
:100BE00060E081E10E94340880915B02682F82E11D
:100BF0000E94340860E083E10E94340860E084E1F0
:100C00000E94340860E085E10E94340860E086E1DB
:100C10000E94340866E086E00E94340868E080E0C4
:100C20000E94340863E081E00E94340863E082E0BF
:100C30000E9434086FE484E00E94340860E08CE194
:100C40000E9434080E9456070F900F90DF91CF91B9
:100C50000895CF93DF9300D0CDB7DEB79A83898311
:100C600080E00E94C60889819A8145E0BC018BE042
:100C70000E94710881E00E94C6080F900F90DF91DA
:100C8000CF910895CF93DF93CDB7DEB780915B020C
:100C9000DF91CF910895CF93DF9300D0CDB7DEB72A
:100CA0009A83898389819A8145E0BC018AE00E9408
:100CB000710889819A8145E0BC0180E10E94710838
:100CC0000F900F90DF91CF910895CF93DF931F92F4
:100CD000CDB7DEB70E94230789838981882F90E0F2
:100CE00080749927009711F081E007C00E94810667
:100CF000982F81E0992309F080E00F90DF91CF9148
:100D00000895CF93DF931F92CDB7DEB741E0CE01B8
:100D10000196BC0187E10E944E08898181700F9085
:100D2000DF91CF910895CF93DF931F92CDB7DEB7B8
:100D300080E00E94E60880E60E94910780E00E9421
:100D40009107898381E00E94E60889810F90DF91F5
:100D5000CF910895CF93DF9300D0CDB7DEB79A83BC
:100D6000898380E00E94E60881E60E949107409115
:100D70005B0229813A8189819A81B9010E94D90750
:100D800081E00E94E60860E487E00E9434080F904A
:100D90000F90DF91CF910895CF93DF931F92CDB73E
:100DA000DEB741E0CE010196BC0188E00E944E080A
:100DB00089818F70898389810F90DF91CF91089508
:100DC000CF93DF9300D0CDB7DEB79A83898380E0DD
:100DD0000E94C6080E94740780E00E94E60881EE27
:100DE0000E94910781E00E94E60880E00E94E608E8
:100DF00080EA0E94910720915B0289819A81622F8B
:100E00000E94100881E00E94E60881E00E94C60866
:100E10000F900F90DF91CF910895CF93DF931F92A2
:100E2000CDB7DEB70E94230789838981882F90E0A0
:100E300080739927009711F080E001C081E00F9046
:100E4000DF91CF910895CF93DF931F92CDB7DEB797
:100E500080E00E94E6088FEF0E949107898381E07D
:100E60000E94E60889810F90DF91CF910895CF937A
:100E7000DF931F92CDB7DEB70E9423078983898154
:100E8000882F90E080729927009711F080E00AC0C7
:100E90008981882F90E080719927009711F081E077
:100EA00001C08FEF0F90DF91CF910895CF93DF9323
:100EB000CDB7DEB780E00E94E60882EE0E9491077F
:100EC00081E00E94E60860E787E00E94340880E045
:100ED0000E94C6086BE080E00E94340881E00E9416
:100EE000C608DF91CF910895CF93DF93CDB7DEB7DA
:100EF00060E787E00E9434086AE080E00E943408DE
:100F0000DF91CF910895CF93DF93CDB7DEB780E027
:100F10000E94C60868E080E00E943408DF91CF910B
:100F20000895CF93DF9300D01F92CDB7DEB78B83A8
:100F300019821A8280E00E940609198230C08B81D2
:100F4000882F90E02981222F30E047E050E0BA015D
:100F5000621B730B9B01022E02C0959587950A9424
:100F6000E2F781709927009721F081E00E9426091D
:100F700003C080E00E94260981E00E9406098A8160
:100F8000880F8A830E944609882319F08A8181602C
:100F90008A8380E00E94060989818F5F8983898125
:100FA000883068F28A810F900F900F90DF91CF9177
:100FB00008950F931F93CF93DF9300D000D000D0FC
:100FC000CDB7DEB79B838A837D836C834E83198282
:100FD00018C08981882F90E02C813D818901080FFC
:100FE000191F8981882F90E02A813B81820F931FEE
:100FF000FC0180810E949107F801808389818F5FC5
:10100000898399818E81981720F326960FB6F894DC
:10101000DEBF0FBECDBFDF91CF911F910F9108951D
:10102000CF93DF9300D000D0CDB7DEB79B838A8308
:101030006C8319820EC08981882F90E02A813B81C0
:10104000820F931FFC0180810E94910789818F5F2D
:10105000898399818C81981770F30F900F900F906E
:101060000F90DF91CF910895CF93DF9300D0CDB74C
:10107000DEB789836A8380E00E94E60889818F71E8
:1010800080620E9491078A810E94910781E00E94FC
:10109000E6080F900F90DF91CF910895CF93DF93E3
:1010A00000D000D0CDB7DEB789837B836A834C83C1
:1010B00080E00E94E60889818F710E9491072A8151
:1010C0003B818A819B814C81B9010E94D90781E0D3
:1010D0000E94E6080F900F900F900F90DF91CF9134
:1010E0000895CF93DF9300D000D0CDB7DEB78983CA
:1010F0007B836A834C8380E00E94E60889818F713C
:1011000080620E9491078A819B816C810E941008F5
:1011100081E00E94E6080F900F900F900F90DF91F2
:10112000CF910895CF93DF93CDB7DEB787E290E0FC
:1011300027E230E0F90120812062FC01208387E270
:1011400090E027E230E0F90120812061FC0120835A
:1011500084E290E024E230E0F90120812062FC0189
:10116000208384E290E024E230E0F90120812860CD
:10117000FC01208384E290E024E230E0F901208148
:101180002F7EFC012083DF91CF910895CF93DF93D1
:101190001F92CDB7DEB789838981882351F088E219
:1011A00090E028E230E0F90120812062FC012083F8
:1011B00009C088E290E028E230E0F90120812F7D2B
:1011C000FC0120830F90DF91CF910895CF93DF939F
:1011D0001F92CDB7DEB789838981882351F088E2D9
:1011E00090E028E230E0F90120812061FC012083B9
:1011F00009C088E290E028E230E0F90120812F7EEA
:10120000FC0120830F90DF91CF910895CF93DF935E
:101210001F92CDB7DEB789838981882351F085E29B
:1012200090E025E230E0F90120812062FC0120837A
:1012300009C085E290E025E230E0F90120812F7DB0
:10124000FC0120830F90DF91CF910895CF93DF931E
:101250001F92CDB7DEB789838981882351F085E25B
:1012600090E025E230E0F90120812860FC01208334
:1012700009C085E290E025E230E0F9012081277F76
:10128000FC0120830F90DF91CF910895CF93DF93DE
:10129000CDB7DEB783E290E0FC0180818071DF9101
:1012A000CF910895CF93DF9300D01F92CDB7DEB7D3
:1012B0009A8389836B8389819A812B81FC012083A6
:1012C0000F900F900F90DF91CF910895CF93DF9300
:1012D00000D000D0CDB7DEB79A8389837C836B833F
:1012E00089819A812B813C81FC01328321830F907B
:1012F0000F900F900F90DF91CF910895CF93DF93D0
:1013000000D0CDB7DEB79A83898389819A81FC01A9
:1013100080810F900F90DF91CF910895CF93DF934D
:1013200000D0CDB7DEB79A83898389819A81FC0189
:10133000818192810F900F90DF91CF910895CF938B
:10134000DF93CDB7DEB7C257D1090FB6F894DEBF31
:101350000FBECDBFCE0185599F4F25E0E1E5F1E0FD
:10136000DC0101900D922A95E1F789E190E00E945D
:10137000EF000E94D50278940E942E02CE0180597F
:101380009F4F61E00E9452098AE290E02AE230E039
:10139000F90120812064FC0120838BE290E02BE2A4
:1013A00030E0F90120812F7BFC01208384E290E072
:1013B00024E230E0F90120812460FC01208385E2F1
:1013C00090E025E230E0F90120812460FC012083D7
:1013D00083E590E023E530E0F9012081217F26605C
:1013E000FC01208384E690E024E630E0F9012081CE
:1013F0002F6EFC01208384E690E024E630E0F901C2
:1014000020812F7BFC01208384E690E024E630E0FD
:10141000F90120812D7FFC0120838BE091E00E9467
:10142000BE0180E090E0AAE7B4E48F839887A987A3
:10143000BA8720E030E040E052E46F81788589850A
:101440009A850E94760EDC01CB018B879C87AD8745
:10145000BE8720E030E040E85FE36B857C858D85CA
:101460009E850E94230D88232CF481E090E0988BC8
:101470008F873FC020E03FEF4FE757E46B857C85C7
:101480008D859E850E94720E18164CF520E030E086
:1014900040E251E46F81788589859A850E94760EB5
:1014A000DC01CB01BC01CD010E94940DDC01CB011C
:1014B000988B8F870FC083E090E09A8B898B898906
:1014C0009A890197F1F79A8B898B8F859889019773
:1014D000988B8F878F859889009769F714C06B85E3
:1014E0007C858D859E850E94940DDC01CB01988BB7
:1014F0008F878F8598899C8B8B8B8B899C89019793
:10150000F1F79C8B8B8B809100018A3008F49EC18F
:101510000E9467021092000184E690E024E630E029
:10152000F90120812E7FFC01208384E690E024E6EF
:1015300030E0F90120812B7FFC01208384E690E0DC
:1015400024E630E0F90120812D7FFC0120838BE22D
:1015500090E02BE230E0F90120812064FC0120833F
:1015600085E290E025E230E0F90120812460FC0171
:1015700020830E94D30568E082E00E94E205CE014C
:1015800085599F4F0E94290680E00E9447059A8353
:1015900089838A818F9389818F938BE291E0892F50
:1015A0008F938BE291E08F93CE01C196292F2F93D9
:1015B0008F930E94D90E0F900F900F900F900F9065
:1015C0000F90CE01C1960E94BE018AE391E00E9475
:1015D000BE0180E090E0AAEFB3E48D8B9E8BAF8BD1
:1015E000B88F20E030E040E052E46D897E898F8939
:1015F000988D0E94760EDC01CB01898F9A8FAB8F7C
:10160000BC8F20E030E040E85FE3698D7A8D8B8D00
:101610009C8D0E94230D88232CF481E090E09E8F06
:101620008D8F3FC020E03FEF4FE757E4698D7A8D03
:101630008B8D9C8D0E94720E18164CF520E030E0C8
:1016400040E251E46D897E898F89988D0E94760EE3
:10165000DC01CB01BC01CD010E94940DDC01CB016A
:101660009E8F8D8F0FC083E090E098A38F8F8F8D1A
:1016700098A10197F1F798A38F8F8D8D9E8D01977B
:101680009E8F8D8F8D8D9E8D009769F714C0698D0B
:101690007A8D8B8D9C8D0E94940DDC01CB019E8FE9
:1016A0008D8F8D8D9E8D9AA389A389A19AA1019773
:1016B000F1F79AA389A389819A810E949205DC019E
:1016C000CB018B839C83AD83BE839E012D593F4FFD
:1016D0008B819C81AD81BE81A901BC01CD010E949D
:1016E000D0048DE391E00E94BE01CE018D599F4F41
:1016F0000E94BE018CE491E00E94BE0180E090E077
:10170000A8E4B4E48BA39CA3ADA3BEA320E030E087
:1017100040E052E46BA17CA18DA19EA10E94760EB7
:10172000DC01CB018FA398A7A9A7BAA720E030E0DE
:1017300040E85FE36FA178A589A59AA50E94230DD3
:1017400088232CF481E090E09CA78BA73FC020E089
:101750003FEF4FE757E46FA178A589A59AA50E94AE
:10176000720E18164CF520E030E040E251E46BA117
:101770007CA18DA19EA10E94760EDC01CB01BC0153
:10178000CD010E94940DDC01CB019CA78BA70FC05B
:1017900083E090E09EA78DA78DA59EA50197F1F708
:1017A0009EA78DA78BA59CA501979CA78BA78BA512
:1017B0009CA5009769F714C06FA178A589A59AA583
:1017C0000E94940DDC01CB019CA78BA78BA59CA547
:1017D00098AB8FA78FA598A90197F1F798AB8FA722
:1017E000CE018D599F4F0E94E0068BE290E02BE2E4
:1017F00030E0F90120812F7BFC01208385E290E01D
:1018000025E230E0F90120812B7FFC01208384E672
:1018100090E024E630E0F90120812160FC01208382
:1018200084E690E024E630E0F90120812460FC01A8
:10183000208384E690E024E630E0F90120812260F4
:10184000FC0120830E9456020E948307F89483E5DE
:1018500090E023E530E0F90120812160FC01208344
:101860007894889583E590E023E530E0F9012081C4
:101870002E7FFC01208347CE1F920F9200905F00C5
:101880000F9211248F93CF93DF93CDB7DEB7809162
:1018900000018F5F80930001DF91CF918F910F90B6
:1018A00000925F000F901F90189597FB072E16F47B
:1018B000009407D077FD09D00E94880C07FC05D062
:1018C0003EF4909581959F4F0895709561957F4F57
:1018D0000895052E97FB1EF400940E94800C57FD7E
:1018E00007D00E949C0C07FC03D04EF40C94800C93
:1018F00050954095309521953F4F4F4F5F4F08953C
:1019000090958095709561957F4F8F4F9F4F08956B
:10191000AA1BBB1B51E107C0AA1FBB1FA617B70715
:1019200010F0A61BB70B881F991F5A95A9F7809531
:101930009095BC01CD010895A1E21A2EAA1BBB1BF4
:10194000FD010DC0AA1FBB1FEE1FFF1FA217B3078B
:10195000E407F50720F0A21BB30BE40BF50B661FA1
:10196000771F881F991F1A9469F760957095809565
:1019700090959B01AC01BD01CF0108955058BB2744
:10198000AA270ED075C166D130F06BD120F031F4AA
:101990009F3F11F41EF45BC10EF4E095E7FB51C1CB
:1019A000E92F77D180F3BA17620773078407950789
:1019B00018F071F49EF58FC10EF4E0950B2EBA2F3E
:1019C000A02D0B01B90190010C01CA01A001112445
:1019D000FF27591B99F0593F50F4503E68F11A16F1
:1019E000F040A22F232F342F4427585FF3CF469582
:1019F00037952795A795F0405395C9F77EF41F16A4
:101A0000BA0B620B730B840BBAF09150A1F0FF0F6D
:101A1000BB1F661F771F881FC2F70EC0BA0F621F59
:101A2000731F841F48F4879577956795B795F79549
:101A30009E3F08F0B3CF9395880F08F09927EE0FDB
:101A4000979587950895D9D008F481E008950CD032
:101A50000FC107D140F0FED030F021F45F3F19F004
:101A6000F0C0511139C1F3C014D198F39923C9F3CF
:101A70005523B1F3951B550BBB27AA276217730794
:101A8000840738F09F5F5F4F220F331F441FAA1F48
:101A9000A9F333D00E2E3AF0E0E830D09150504008
:101AA000E695001CCAF729D0FE2F27D0660F771FB6
:101AB000881FBB1F261737074807AB07B0E809F098
:101AC000BB0B802DBF01FF2793585F4F2AF09E3F2D
:101AD000510568F0B6C000C15F3FECF3983EDCF3FF
:101AE000869577956795B795F7959F5FC9F7880FA6
:101AF000911D9695879597F90895E1E0660F771FF8
:101B0000881FBB1F621773078407BA0720F0621B88
:101B1000730B840BBA0BEE1F88F7E095089504D081
:101B20006894B111D9C00895BCD088F09F5790F047
:101B3000B92F9927B751A0F0D1F0660F771F881FF2
:101B4000991F1AF0BA95C9F712C0B13081F0C3D00D
:101B5000B1E00895C0C0672F782F8827B85F39F0AB
:101B6000B93FCCF3869577956795B395D9F73EF451
:101B700090958095709561957F4F8F4F9F4F0895F9
:101B8000E89409C097FB3EF4909580957095619517
:101B90007F4F8F4F9F4F9923A9F0F92F96E9BB27CD
:101BA0009395F695879577956795B795F111F8CF49
:101BB000FAF4BB0F11F460FF1BC06F5F7F4F8F4FB4
:101BC0009F4F16C0882311F096E911C0772321F0AA
:101BD0009EE8872F762F05C0662371F096E8862F42
:101BE00070E060E02AF09A95660F771F881FDAF799
:101BF000880F9695879597F90895990F0008550FC6
:101C0000AA0BE0E8FEEF16161706E807F907C0F082
:101C100012161306E407F50798F0621B730B840B8A
:101C2000950B39F40A2661F0232B242B252B21F464
:101C300008950A2609F4A140A6958FEF811D811D04
:101C4000089597F99F6780E870E060E008959FEF3E
:101C500080EC089500240A94161617061806090643
:101C6000089500240A941216130614060506089512
:101C7000092E0394000C11F4882352F0BB0F40F49A
:101C8000BF2B11F460FF04C06F5F7F4F8F4F9F4FDA
:101C9000089557FD9058440F551F59F05F3F71F05C
:101CA0004795880F97FB991F61F09F3F79F08795C3
:101CB0000895121613061406551FF2CF4695F1DF4C
:101CC00008C0161617061806991FF1CF86957105DC
:101CD000610508940895E894BB2766277727CB0110
:101CE00097F908958ADF08F48FEF08950BD0C0CFDD
:101CF000B1DF28F0B6DF18F0952309F0A2CFA7CF07
:101D00001124EACFC6DFA0F3959FD1F3950F50E0E1
:101D1000551F629FF001729FBB27F00DB11D639F9D
:101D2000AA27F00DB11DAA1F649F6627B00DA11D43
:101D3000661F829F2227B00DA11D621F739FB00DE9
:101D4000A11D621F839FA00D611D221F749F332759
:101D5000A00D611D231F849F600D211D822F762FF2
:101D60006A2F11249F5750408AF0E1F088234AF0EF
:101D7000EE0FFF1FBB1F661F771F881F915050403B
:101D8000A9F79E3F510570F05CCFA6CF5F3FECF303
:101D9000983EDCF3869577956795B795F795E79527
:101DA0009F5FC1F7FE2B880F911D9695879597F938
:101DB0000895AEE0B0E0EFEDFEE00C9481110D89E6
:101DC0001E8986E08C831A8309838FEF9FE79E83A9
:101DD0008D83AE01475E5F4F6F89788DCE0101968E
:101DE0000E94FB0EEF81F885E00FF11F10822E9606
:101DF000E4E00C949D11ACE0B0E0E1E0FFE00C9475
:101E000073117C016B018A01FC01178216828381A8
:101E100081FFBDC1CE0101964C01F7019381F6010E
:101E200093FD859193FF81916F01882309F4ABC1E4
:101E3000853239F493FD859193FF81916F0185324D
:101E400029F4B70190E00E94E310E7CF512C312C28
:101E500020E02032A0F48B3269F030F4803259F067
:101E6000833269F420612CC08D3239F0803339F42B
:101E7000216026C02260246023C0286021C027FD85
:101E800027C030ED380F3A3078F426FF06C0FAE06C
:101E90005F9E300D1124532E13C08AE0389E300D02
:101EA0001124332E20620CC08E3221F426FD6BC12A
:101EB000206406C08C3611F4206802C0883641F4D4
:101EC000F60193FD859193FF81916F018111C1CF3F
:101ED000982F9F7D9554933028F40C5F1F4FFFE39C
:101EE000F9830DC0833631F0833771F0833509F003
:101EF0005BC022C0F801808189830E5F1F4F44249C
:101F00004394512C540115C03801F2E06F0E711C3E
:101F1000F801A080B18026FF03C0652D70E002C0EB
:101F20006FEF7FEFC5012C870E94D8102C01830131
:101F30002C852F77222E17C03801F2E06F0E711C0E
:101F4000F801A080B18026FF03C0652D70E002C0BB
:101F50006FEF7FEFC5012C870E94CD102C012C85DF
:101F60002068222E830123FC1BC0832D90E048169D
:101F70005906B0F4B70180E290E00E94E3103A9471
:101F8000F4CFF50127FC859127FE81915F01B70110
:101F900090E00E94E31031103A94F1E04F1A51089A
:101FA0004114510471F7E5C0843611F0893639F5D2
:101FB000F80127FF07C060817181828193810C5FE6
:101FC0001F4F08C060817181882777FD8095982F09
:101FD0000E5F1F4F2F76B22E97FF09C09095809508
:101FE000709561957F4F8F4F9F4F2068B22E2AE0EA
:101FF00030E0A4010E941511A82EA81844C085370E
:1020000029F42F7EB22E2AE030E025C0F22FF97F8E
:10201000BF2E8F36C1F018F4883579F0B4C0803700
:1020200019F0883721F0AFC02F2F2061B22EB4FEF7
:102030000DC08B2D8460B82E09C024FF0AC09F2FCD
:102040009660B92E06C028E030E005C020E130E0FF
:1020500002C020E132E0F801B7FE07C06081718163
:10206000828193810C5F1F4F06C06081718180E087
:1020700090E00E5F1F4FA4010E941511A82EA81812
:10208000FB2DFF77BF2EB6FE0BC02B2D2E7FA51488
:1020900050F4B4FE0AC0B2FC08C02B2D2E7E05C041
:1020A0007A2C2B2D03C07A2C01C0752C24FF0DC077
:1020B000FE01EA0DF11D8081803311F4297E09C0F3
:1020C00022FF06C07394739404C0822F867809F0AF
:1020D000739423FD13C020FF06C05A2C731418F408
:1020E000530C5718732C731468F4B70180E290E016
:1020F0002C870E94E31073942C85F5CF731410F491
:10210000371801C0312C24FF12C0B70180E390E0E2
:102110002C870E94E3102C8522FF17C021FF03C0EB
:1021200088E590E002C088E790E0B7010CC0822FFC
:10213000867859F021FD02C080E201C08BE227FDC4
:102140008DE2B70190E00E94E310A51438F4B701C6
:1021500080E390E00E94E3105A94F7CFAA94F40130
:10216000EA0DF11D8081B70190E00E94E310A110FB
:10217000F5CF332009F451CEB70180E290E00E9400
:10218000E3103A94F6CFF7018681978102C08FEF72
:102190009FEF2C96E2E10C948F11FC0105906150A9
:1021A00070400110D8F7809590958E0F9F1F08956D
:1021B000FC016150704001900110D8F78095909516
:1021C0008E0F9F1F08950F931F93CF93DF93182FA8
:1021D000092FEB018B8181FD03C08FEF9FEF20C0A2
:1021E00082FF10C04E815F812C813D8142175307D1
:1021F0007CF4E881F9819F012F5F3F4F3983288369
:10220000108306C0E885F985812F0995892B29F768
:102210002E813F812F5F3F4F3F832E83812F902F51
:10222000DF91CF911F910F910895FA01AA272830CD
:1022300051F1203181F1E8946F936E7F6E5F7F4F93
:102240008F4F9F4FAF4FB1E03ED0B4E03CD0670F0F
:10225000781F891F9A1FA11D680F791F8A1F911D62
:10226000A11D6A0F711D811D911DA11D20D009F4B2
:1022700068943F912AE0269F11243019305D3193F4
:10228000DEF6CF010895462F4770405D4193B3E0DD
:102290000FD0C9F7F6CF462F4F70405D4A3318F084
:1022A000495D31FD4052419302D0A9F7EACFB4E035
:1022B000A6959795879577956795BA95C9F70097ED
:1022C0006105710508959B01AC010A2E069457958E
:1022D000479537952795BA95C9F7620F731F841FE5
:1022E000951FA01D08952F923F924F925F926F927B
:1022F0007F928F929F92AF92BF92CF92DF92EF9296
:10230000FF920F931F93CF93DF93CDB7DEB7CA1B16
:10231000DB0B0FB6F894DEBF0FBECDBF09942A8841
:10232000398848885F846E847D848C849B84AA84E9
:10233000B984C884DF80EE80FD800C811B81AA8176
:10234000B981CE0FD11D0FB6F894DEBF0FBECDBF41
:08235000ED010895F894FFCFA0
:102358000A253032642E25303264000D0A496E6930
:102368007469616C697A6174696F6E20636F6D70EE
:102378006C65746564210D0A0D0A0041444320769A
:10238800616C75653A20092564000D0A0054656D75
:1023980070657261747572653A20090020430D0AF0
:0623A80000E7E7E7E7E7AC
:00000001FF
