:100000000C9434000C9451000C9451000C94510049
:100010000C9451000C9451000C9451000C9451001C
:100020000C9451000C9451000C9451000C9451000C
:100030000C9451000C9451000C9451000C945100FC
:100040000C9451000C9451000C9451000C945100EC
:100050000C9451000C9451000C9451000C945100DC
:100060000C9451000C94510011241FBECFEFD8E026
:10007000DEBFCDBF11E0A0E0B1E0ECE3FFE102C0E4
:1000800005900D92AE31B107D9F711E0AEE1B1E0C4
:1000900001C01D92AB32B107E1F70E948B050C94B1
:1000A0009C0F0C940000CF93DF93CDB7DEB78CE7A5
:1000B00090E02CE730E0F90120812064FC012083EE
:1000C0008AE790E02AE730E0F90120812460FC0112
:1000D00020838AE790E02AE730E0F901208122605E
:1000E000FC0120838AE790E02AE730E0F9012081D3
:1000F0002160FC0120838AE790E02AE730E0F901E3
:1001000020812068FC012083DF91CF910895CF9357
:10011000DF931F92CDB7DEB789838CE790E02CE7A1
:1001200030E0F9012081322F307F29812F70232B7D
:10013000FC01208385E590E025E530E0F901208190
:100140002260FC01208385E590E025E530E0F9019F
:1001500020812160FC0120838AE790E02AE730E0DB
:10016000F90120812064FC01208300008AE790E0EF
:10017000FC018081882F90E0807499270097B1F767
:1001800088E790E0FC01808191810F90DF91CF9111
:100190000895CF93DF93CDB7DEB780E00E9487004C
:1001A000CC01A0E0B0E0BC01CD010E94B20BDC01AB
:1001B000CB012AEC36E24BE153E4BC01CD010E94B5
:1001C000B00ADC01CB0120E030E44EE455E4BC0190
:1001D000CD010E94680CDC01CB0120E030E040E85A
:1001E00054E4BC01CD010E94190BDC01CB0120E0DD
:1001F00030E040E251E4BC01CD010E94190BDC016A
:10020000CB01BC01CD01DF91CF910895CF93DF9356
:10021000CDB7DEB72A970FB6F894DEBF0FBECDBFBD
:100220006F83788789879A876F81788589859A8592
:100230000E94810BDC01CB019C838B838B819C8191
:10024000AA2797FDA095BA2FBC01CD010E94B40B3F
:10025000DC01CB019C01AD016F81788589859A8590
:100260000E94B00ADC01CB0120E030E048EC52E40F
:10027000BC01CD010E94680CDC01CB01BC01CD01A9
:100280000E94810BDC01CB019A83898389819A8149
:1002900099233CF489819A819195819591099A835A
:1002A00089838A818F9389818F938C818F938B81AE
:1002B0008F9385E091E0892F8F9385E091E08F9374
:1002C0008E818F938D818F930E94CB0C8DB79EB7BB
:1002D00008960FB6F894DEBF0FBECDBF8D819E810C
:1002E0002A960FB6F894DEBF0FBECDBFDF91CF9137
:1002F0000895CF93DF93CDB7DEB78BE290E02BE28A
:1003000030E0F90120812B7FFC012083DF91CF9128
:100310000895CF93DF93CDB7DEB78BE290E02BE269
:1003200030E0F90120812460FC012083DF91CF912E
:100330000895CF93DF93CDB7DEB78AE290E02AE24B
:1003400030E0F90120812460FC012083DF91CF910E
:100350000895CF93DF9300D0CDB7DEB78A838A812B
:10036000882351F08BE290E02BE230E0F90120810C
:100370002160FC01208309C08BE290E02BE230E099
:10038000F90120812E7FFC0120838BE290E02BE29B
:1003900030E0F90120812260FC0120838AE290E0B4
:1003A0002AE230E0F90120812F77FC0120838AE2E4
:1003B00090E02AE230E0F90120812F7BFC012083CC
:1003C0008AE290E02AE230E0F90120812F7DFC01F1
:1003D00020838AE290E02AE230E0F90120812F7E3A
:1003E000FC0120830E948901F2E0FA95F1F700C038
:1003F00089E290E0FC018081282F207189E290E061
:10040000FC0180818072282B89E290E0FC018081D0
:100410008074282B89E290E0FC0180818078822B17
:1004200089830E947901F2E0FA95F1F700C00E94F9
:10043000890182E08A95F1F700C089E290E0FC0131
:100440008081882F90E08071992721E0009709F43E
:1004500020E0222F30E089E290E0FC018081882FAB
:1004600090E080729927009719F082E090E002C036
:1004700080E090E0282B392B89E290E0FC0180811C
:10048000882F90E080749927009719F084E090E01D
:1004900002C080E090E0282B392B89E290E0FC013B
:1004A000808188231CF488E090E002C080E090E026
:1004B000822B932B982F8981892B89830E94790124
:1004C0008AE290E02AE230E0F90120812068FC0114
:1004D00020838AE290E02AE230E0F9012081206462
:1004E000FC0120838AE290E02AE230E0F9012081D9
:1004F0002062FC0120838AE290E02AE230E0F901E8
:1005000020812061FC0120838BE290E02BE230E02F
:10051000F90120812068FC0120838BE290E02BE22E
:1005200030E0F90120812064FC0120838BE290E01F
:100530002BE230E0F90120812062FC0120838BE274
:1005400090E02BE230E0F90120812061FC01208362
:100550008BE290E02BE230E0F90120812D7FFC015D
:1005600020838A81882329F0F5EDFA95F1F70000C0
:1005700004C085E08A95F1F7000089810F900F9003
:10058000DF91CF910895CF93DF93CDB7DEB781E0B0
:100590000E94A901DF91CF910895CF93DF9300D0FE
:1005A000CDB7DEB789836A838A81882351F08BE2D5
:1005B00090E02BE230E0F90120812160FC012083F2
:1005C00009C08BE290E02BE230E0F90120812E7F20
:1005D000FC0120838981882354F48BE290E02BE294
:1005E00030E0F90120812068FC01208309C08BE202
:1005F00090E02BE230E0F90120812F77FC0120838D
:100600008981882F90E080749927009751F08BE2C0
:1006100090E02BE230E0F90120812064FC0120838E
:1006200009C08BE290E02BE230E0F90120812F7BC2
:10063000FC0120838981882F90E0807299270097A0
:1006400051F08BE290E02BE230E0F9012081206252
:10065000FC01208309C08BE290E02BE230E0F9013D
:1006600020812F7DFC0120838981882F90E080717B
:100670009927009751F08BE290E02BE230E0F901EE
:1006800020812061FC01208309C08BE290E02BE2F5
:1006900030E0F90120812F7EFC01208300C00E9400
:1006A0008901F2E0FA95F1F700C00E947901898191
:1006B000882F90E088709927009751F08BE290E0A6
:1006C0002BE230E0F90120812068FC01208309C081
:1006D0008BE290E02BE230E0F90120812F77FC01E2
:1006E00020838981882F90E084709927009751F0AA
:1006F0008BE290E02BE230E0F90120812064FC01E4
:10070000208309C08BE290E02BE230E0F9012081E8
:100710002F7BFC0120838981882F90E082709927AC
:10072000009751F08BE290E02BE230E0F90120815C
:100730002062FC01208309C08BE290E02BE230E0D4
:10074000F90120812F7DFC0120838981882F90E091
:1007500081709927009751F08BE290E02BE230E016
:10076000F90120812061FC01208309C08BE290E027
:100770002BE230E0F90120812F7EFC01208300C0B4
:100780000E948901F2E0FA95F1F700C00E94790118
:100790008BE290E02BE230E0F90120812068FC013F
:1007A00020838BE290E02BE230E0F901208120648D
:1007B000FC0120838BE290E02BE230E0F901208104
:1007C0002062FC0120838BE290E02BE230E0F90113
:1007D00020812061FC0120838A81882351F4898152
:1007E000843038F48FE999E10197F1F700C00000F7
:1007F00004C095ED9A95F1F700000F900F90DF91EE
:10080000CF910895CF93DF931F92CDB7DEB7898341
:1008100060E089810E94CD020F90DF91CF91089511
:10082000CF93DF931F92CDB7DEB78983898180583C
:100830000E9402040F90DF91CF910895CF93DF9330
:10084000CDB7DEB781E00E940204DF91CF91089519
:10085000CF93DF93CDB7DEB782E00E940204DF9131
:10086000CF910895CF93DF931F92CDB7DEB78983E1
:1008700061E089810E94CD020F90DF91CF910895B0
:100880001F93CF93DF9300D0CDB7DEB79A838983D0
:1008900003C0812F0E94320489819A819C012F5FBD
:1008A0003F4F3A832983FC011081112391F70F9068
:1008B0000F90DF91CF911F9108951F93CF93DF93F6
:1008C00000D000D01F92CDB7DEB79D838C8303C0CC
:1008D000812F0E9432048C819D819C012F5F3F4FAC
:1008E0003D832C839A83898389819A81FC01849139
:1008F0008B838B81182F112359F70F900F900F9036
:100900000F900F90DF91CF911F910895CF93DF93B8
:10091000CDB7DEB70E9499018AE290E02AE230E08A
:10092000F90120812160FC0120838AE290E02AE223
:1009300030E0F90120812260FC0120838AE290E00E
:100940002AE230E0F90120812068FC0120838AE25C
:1009500090E02AE230E0F90120812064FC0120834C
:100960008AE290E02AE230E0F90120812062FC0175
:1009700020838AE290E02AE230E0F90120812061C0
:10098000FC0120830E9479018BE290E02BE230E0B1
:10099000F90120812E7FFC0120838BE290E02BE285
:1009A00030E0F90120812D7FFC0120838BE290E073
:1009B0002BE230E0F90120812068FC0120838BE2EA
:1009C00090E02BE230E0F90120812064FC012083DB
:1009D0008BE290E02BE230E0F90120812062FC0103
:1009E00020838BE290E02BE230E0F901208120614E
:1009F000FC0120838FE59AEE0197F1F700C000001B
:100A00008BE290E02BE230E0F90120812F77FC01AE
:100A100020838BE290E02BE230E0F90120812F7BF4
:100A2000FC01208300C00E948901F2E0FA95F1F7F1
:100A300000C00E9479018FE090E40197F1F700C0B7
:100A400000000E94890192E09A95F1F700C00E948F
:100A50007901EFE8F1E03197F1F700C000000E9462
:100A60008901F2E0FA95F1F700C00E94790185ED65
:100A70008A95F1F700008BE290E02BE230E0F9017B
:100A800020812F7EFC01208300C00E948901F2E0BA
:100A9000FA95F1F700C00E94790185ED8A95F1F78A
:100AA00000008BE290E02BE230E0F90120812F7E04
:100AB000FC01208300C00E948901F2E0FA95F1F761
:100AC00000C00E94790182E08A95F1F700C08BE2B4
:100AD00090E02BE230E0F90120812068FC012083C6
:100AE00000C00E948901F2E0FA95F1F700C00E946F
:100AF000790185ED8A95F1F7000088E00E940204F3
:100B00000E941E0486E00E9402048CE00E940204FF
:100B1000DF91CF910895CF93DF93CDB7DEB7AA973A
:100B20000FB6F894DEBF0FBECDBF0E9431070E9402
:100B300053000E94860468E082E00E94400780E043
:100B400091E00E94A90780E090E0AAE7B4E48983DD
:100B50009A83AB83BC8320E030E04AE755E46981A7
:100B60007A818B819C810E94680CDC01CB018D8392
:100B70009E83AF83B88720E030E040E85FE36D817B
:100B80007E818F8198850E94150B88232CF481E04B
:100B900090E09A8789873FC020E03FEF4FE757E416
:100BA0006D817E818F8198850E94640C18164CF5AA
:100BB00020E030E040E251E469817A818B819C81C0
:100BC0000E94680CDC01CB01BC01CD010E94860BA8
:100BD000DC01CB019A8789870FC080E991E09C876F
:100BE0008B878B859C850197F1F79C878B878985FF
:100BF0009A8501979A87898789859A85009769F7E9
:100C000014C06D817E818F8198850E94860BDC01E6
:100C1000CB019A87898789859A859E878D878D855F
:100C20009E850197F1F79E878D870E94280482E1B7
:100C300091E00E94400480E090E0AAE7B4E48F874E
:100C4000988BA98BBA8B20E030E04AE755E46F859A
:100C5000788989899A890E94680CDC01CB018B8B89
:100C60009C8BAD8BBE8B20E030E040E85FE36B896E
:100C70007C898D899E890E94150B88232CF481E044
:100C800090E0988F8F8B3FC020E03FEF4FE757E415
:100C90006B897C898D899E890E94640C18164CF59D
:100CA00020E030E040E251E46F85788989899A89B3
:100CB0000E94680CDC01CB01BC01CD010E94860BB7
:100CC000DC01CB01988F8F8B0FC080E991E09A8F68
:100CD000898F898D9A8D0197F1F79A8F898F8F89E6
:100CE000988D0197988F8F8B8F89988D009769F7D2
:100CF00014C06B897C898D899E890E94860BDC01DA
:100D0000CB01988F8F8B8F89988D9C8F8B8F8B8D3C
:100D10009C8D0197F1F79C8F8B8F0E941E040E947F
:100D2000C900DC01CB0180931E0190931F01A093A9
:100D30002001B09321010E94280480911E0190910E
:100D40001F01A0912001B0912101BC01CD010E94A1
:100D500006010E94400480911E0190911F01A09104
:100D60002001B0912101BC01CD010E9406010E9429
:100D70003E0800000E946B088823E1F780E090E0C5
:100D8000A8ECB2E48D8F9E8FAF8FB8A320E030E047
:100D90004AE755E46D8D7E8D8F8D98A10E94680C79
:100DA000DC01CB0189A39AA3ABA3BCA320E030E074
:100DB00040E85FE369A17AA18BA19CA10E94150B79
:100DC00088232CF481E090E09EA38DA33FC020E017
:100DD0003FEF4FE757E469A17AA18BA19CA10E9444
:100DE000640C18164CF520E030E040E251E46D8DC3
:100DF0007E8D8F8D98A10E94680CDC01CB01BC0117
:100E0000CD010E94860BDC01CB019EA38DA30FC0F8
:100E100080E991E098A78FA38FA198A50197F1F79A
:100E200098A78FA38DA19EA101979EA38DA38DA1AD
:100E30009EA1009769F714C069A17AA18BA19CA11A
:100E40000E94860BDC01CB019EA38DA38DA19EA1E8
:100E50009AA789A789A59AA50197F1F79AA789A7C3
:100E60005ECFCF93DF93CDB7DEB70E94F00980E06D
:100E70000E94240A81E00E94440ADF91CF910895E4
:100E8000CF93DF9300D0CDB7DEB789836A838A81A1
:100E900080932A01698185E00E94920960E081E1E6
:100EA0000E94920980912A01682F82E10E94920992
:100EB00060E083E10E94920960E084E10E9492096F
:100EC00060E085E10E94920960E086E10E9492095B
:100ED00066E086E00E94920968E080E00E94920944
:100EE00063E081E00E94920963E082E00E9492093F
:100EF0006FE484E00E94920960E08CE10E94920914
:100F00000E94B4080F900F90DF91CF910895CF9376
:100F1000DF9300D0CDB7DEB79A83898380E00E944B
:100F2000240A89819A8145E0BC018BE00E94CF09A7
:100F300081E00E94240A0F900F90DF91CF910895D5
:100F4000CF93DF93CDB7DEB780912A01DF91CF91A8
:100F50000895CF93DF9300D0CDB7DEB79A8389830E
:100F600089819A8145E0BC018AE00E94CF0989818C
:100F70009A8145E0BC0180E10E94CF090F900F905B
:100F8000DF91CF910895CF93DF931F92CDB7DEB756
:100F90000E94810889838981882F90E08074992735
:100FA000009711F081E007C00E94DF07982F81E0D1
:100FB000992309F080E00F90DF91CF910895CF93AE
:100FC000DF931F92CDB7DEB741E0CE010196BC01A1
:100FD00087E10E94AC09898181700F90DF91CF91E8
:100FE0000895CF93DF931F92CDB7DEB780E00E94C4
:100FF000440A80E60E94EF0880E00E94EF0889839F
:1010000081E00E94440A89810F90DF91CF91089579
:10101000CF93DF9300D0CDB7DEB79A83898380E08A
:101020000E94440A81E60E94EF0840912A0129812A
:101030003A8189819A81B9010E94370981E00E9431
:10104000440A60E487E00E9492090F900F90DF91BC
:10105000CF910895CF93DF931F92CDB7DEB741E0D4
:10106000CE010196BC0188E00E94AC0989818F7095
:10107000898389810F90DF91CF910895CF93DF937A
:1010800000D0CDB7DEB79A83898380E00E94240A1E
:101090000E94D20880E00E94440A81EE0E94EF087C
:1010A00081E00E94440A80E00E94440A80EA0E9493
:1010B000EF0820912A0189819A81622F0E946E098E
:1010C00081E00E94440A81E00E94240A0F900F9060
:1010D000DF91CF910895CF93DF931F92CDB7DEB705
:1010E0000E94810889838981882F90E080739927E5
:1010F000009711F080E001C081E00F90DF91CF9167
:101100000895CF93DF931F92CDB7DEB780E00E94A2
:10111000440A8FEF0E94EF08898381E00E94440A0D
:1011200089810F90DF91CF910895CF93DF931F9224
:10113000CDB7DEB70E94810889838981882F90E02E
:1011400080729927009711F080E00AC08981882F6A
:1011500090E080719927009711F081E001C08FEF36
:101160000F90DF91CF910895CF93DF93CDB7DEB786
:1011700080E00E94440A82EE0E94EF0881E00E9413
:10118000440A60E787E00E94920980E00E94240AF6
:101190006BE080E00E94920981E00E94240ADF91C6
:1011A000CF910895CF93DF93CDB7DEB760E787E0A7
:1011B0000E9492096AE080E00E949209DF91CF913B
:1011C0000895CF93DF93CDB7DEB780E00E94240A65
:1011D00068E080E00E949209DF91CF910895CF935B
:1011E000DF9300D01F92CDB7DEB78B8319821A82AE
:1011F00080E00E94640A198230C08B81882F90E0C1
:101200002981222F30E047E050E0BA01621B730BC6
:101210009B01022E02C0959587950A94E2F7817092
:101220009927009721F081E00E94840A03C080E0A2
:101230000E94840A81E00E94640A8A81880F8A835E
:101240000E94A40A882319F08A8181608A8380E041
:101250000E94640A89818F5F89838981883068F25E
:101260008A810F900F900F90DF91CF9108950F9387
:101270001F93CF93DF9300D000D000D0CDB7DEB75F
:101280009B838A837D836C834E83198218C08981F6
:10129000882F90E02C813D818901080F191F8981D9
:1012A000882F90E02A813B81820F931FFC0180816F
:1012B0000E94EF08F801808389818F5F898399817B
:1012C0008E81981720F326960FB6F894DEBF0FBED6
:1012D000CDBFDF91CF911F910F910895CF93DF93F1
:1012E00000D000D0CDB7DEB79B838A836C83198290
:1012F0000EC08981882F90E02A813B81820F931F45
:10130000FC0180810E94EF0889818F5F8983998128
:101310008C81981770F30F900F900F900F90DF91C2
:10132000CF910895CF93DF9300D0CDB7DEB78983F7
:101330006A8380E00E94440A89818F7180620E94E2
:10134000EF088A810E94EF0881E00E94440A0F9012
:101350000F90DF91CF910895CF93DF9300D000D00D
:10136000CDB7DEB789837B836A834C8380E00E949C
:10137000440A89818F710E94EF082A813B818A810A
:101380009B814C81B9010E94370981E00E94440A87
:101390000F900F900F900F90DF91CF910895CF9302
:1013A000DF9300D000D0CDB7DEB789837B836A831B
:1013B0004C8380E00E94440A89818F7180620E9480
:1013C000EF088A819B816C810E946E0981E00E94F6
:1013D000440A0F900F900F900F90DF91CF910895D6
:1013E000CF93DF93CDB7DEB787E290E027E230E01E
:1013F000F90120812062FC01208387E290E027E24E
:1014000030E0F90120812061FC01208384E290E03A
:1014100024E230E0F90120812062FC01208384E293
:1014200090E024E230E0F90120812860FC01208373
:1014300084E290E024E230E0F90120812F7EFC017B
:101440002083DF91CF910895CF93DF931F92CDB783
:10145000DEB789838981882351F088E290E028E211
:1014600030E0F90120812062FC01208309C088E27C
:1014700090E028E230E0F90120812F7DFC012083FB
:101480000F90DF91CF910895CF93DF931F92CDB747
:10149000DEB789838981882351F088E290E028E2D1
:1014A00030E0F90120812061FC01208309C088E23D
:1014B00090E028E230E0F90120812F7EFC012083BA
:1014C0000F90DF91CF910895CF93DF931F92CDB707
:1014D000DEB789838981882351F085E290E025E297
:1014E00030E0F90120812062FC01208309C085E2FF
:1014F00090E025E230E0F90120812F7DFC0120837E
:101500000F90DF91CF910895CF93DF931F92CDB7C6
:10151000DEB789838981882351F085E290E025E256
:1015200030E0F90120812860FC01208309C085E2B8
:1015300090E025E230E0F9012081277FFC01208343
:101540000F90DF91CF910895CF93DF93CDB7DEB7A2
:1015500083E290E0FC0180818071DF91CF9108955A
:101560005058BB27AA270ED075C166D130F06BD179
:1015700020F031F49F3F11F41EF45BC10EF4E095AE
:10158000E7FB51C1E92F77D180F3BA1762077307E0
:101590008407950718F071F49EF58FC10EF4E0955D
:1015A0000B2EBA2FA02D0B01B90190010C01CA011D
:1015B000A0011124FF27591B99F0593F50F4503EC8
:1015C00068F11A16F040A22F232F342F4427585FBA
:1015D000F3CF469537952795A795F0405395C9F7D2
:1015E0007EF41F16BA0B620B730B840BBAF091508A
:1015F000A1F0FF0FBB1F661F771F881FC2F70EC029
:10160000BA0F621F731F841F48F4879577956795FB
:10161000B795F7959E3F08F0B3CF9395880F08F0E4
:101620009927EE0F979587950895D9D008F481E012
:1016300008950CD00FC107D140F0FED030F021F456
:101640005F3F19F0F0C0511139C1F3C014D198F3C4
:101650009923C9F35523B1F3951B550BBB27AA2733
:1016600062177307840738F09F5F5F4F220F331FA5
:10167000441FAA1FA9F333D00E2E3AF0E0E830D071
:1016800091505040E695001CCAF729D0FE2F27D074
:10169000660F771F881FBB1F261737074807AB0742
:1016A000B0E809F0BB0B802DBF01FF2793585F4FB7
:1016B0002AF09E3F510568F0B6C000C15F3FECF3D1
:1016C000983EDCF3869577956795B795F7959F5F7C
:1016D000C9F7880F911D9695879597F90895E1E0D0
:1016E000660F771F881FBB1F621773078407BA072F
:1016F00020F0621B730B840BBA0BEE1F88F7E0958A
:10170000089504D06894B111D9C00895BCD088F070
:101710009F5790F0B92F9927B751A0F0D1F0660FDD
:10172000771F881F991F1AF0BA95C9F712C0B130F8
:1017300081F0C3D0B1E00895C0C0672F782F88270B
:10174000B85F39F0B93FCCF3869577956795B39537
:10175000D9F73EF490958095709561957F4F8F4FA6
:101760009F4F0895E89409C097FB3EF490958095AB
:10177000709561957F4F8F4F9F4F9923A9F0F92F57
:1017800096E9BB279395F695879577956795B795D5
:10179000F111F8CFFAF4BB0F11F460FF1BC06F5FBB
:1017A0007F4F8F4F9F4F16C0882311F096E911C0CD
:1017B000772321F09EE8872F762F05C0662371F0EE
:1017C00096E8862F70E060E02AF09A95660F771F02
:1017D000881FDAF7880F9695879597F90895990FDE
:1017E0000008550FAA0BE0E8FEEF16161706E807EB
:1017F000F907C0F012161306E407F50798F0621B0C
:10180000730B840B950B39F40A2661F0232B242BE0
:10181000252B21F408950A2609F4A140A6958FEFFF
:10182000811D811D089597F99F6780E870E060E051
:1018300008959FEF80EC089500240A941616170669
:1018400018060906089500240A94121613061406B1
:1018500005060895092E0394000C11F4882352F014
:10186000BB0F40F4BF2B11F460FF04C06F5F7F4FCC
:101870008F4F9F4F089557FD9058440F551F59F0B3
:101880005F3F71F04795880F97FB991F61F09F3F6D
:1018900079F087950895121613061406551FF2CF96
:1018A0004695F1DF08C0161617061806991FF1CFE6
:1018B00086957105610508940895E894BB2766270D
:1018C0007727CB0197F908958ADF08F48FEF089501
:1018D0000BD0C0CFB1DF28F0B6DF18F0952309F0A8
:1018E000A2CFA7CF1124EACFC6DFA0F3959FD1F3F3
:1018F000950F50E0551F629FF001729FBB27F00DBE
:10190000B11D639FAA27F00DB11DAA1F649F662712
:10191000B00DA11D661F829F2227B00DA11D621F61
:10192000739FB00DA11D621F839FA00D611D221F1B
:10193000749F3327A00D611D231F849F600D211DFF
:10194000822F762F6A2F11249F5750408AF0E1F0A2
:1019500088234AF0EE0FFF1FBB1F661F771F881FEB
:1019600091505040A9F79E3F510570F05CCFA6CF33
:101970005F3FECF3983EDCF3869577956795B795D6
:10198000F795E7959F5FC1F7FE2B880F911D969500
:10199000879597F90895AEE0B0E0E1EDFCE00C9496
:1019A000730F0D891E8986E08C831A8309838FEF5C
:1019B0009FE79E838D83AE01475E5F4F6F89788D71
:1019C000CE0101960E94ED0CEF81F885E00FF11F2A
:1019D00010822E96E4E00C948F0FACE0B0E0E3EFC1
:1019E000FCE00C94650F7C016B018A01FC011782FD
:1019F0001682838181FFBDC1CE0101964C01F701A2
:101A00009381F60193FD859193FF81916F01882366
:101A100009F4ABC1853239F493FD859193FF81912F
:101A20006F01853229F4B70190E00E94D50EE7CF0F
:101A3000512C312C20E02032A0F48B3269F030F4AC
:101A4000803259F0833269F420612CC08D3239F034
:101A5000803339F4216026C02260246023C02860CE
:101A600021C027FD27C030ED380F3A3078F426FF2B
:101A700006C0FAE05F9E300D1124532E13C08AE099
:101A8000389E300D1124332E20620CC08E3221F48A
:101A900026FD6BC1206406C08C3611F4206802C09C
:101AA000883641F4F60193FD859193FF81916F0192
:101AB0008111C1CF982F9F7D9554933028F40C5FEE
:101AC0001F4FFFE3F9830DC0833631F0833771F088
:101AD000833509F05BC022C0F801808189830E5FE5
:101AE0001F4F44244394512C540115C03801F2E097
:101AF0006F0E711CF801A080B18026FF03C0652D18
:101B000070E002C06FEF7FEFC5012C870E94CA0E04
:101B10002C0183012C852F77222E17C03801F2E08B
:101B20006F0E711CF801A080B18026FF03C0652DE7
:101B300070E002C06FEF7FEFC5012C870E94BF0EDF
:101B40002C012C852068222E830123FC1BC0832DB1
:101B500090E048165906B0F4B70180E290E00E9488
:101B6000D50E3A94F4CFF50127FC859127FE81919B
:101B70005F01B70190E00E94D50E31103A94F1E078
:101B80004F1A51084114510471F7E5C0843611F021
:101B9000893639F5F80127FF07C06081718182819C
:101BA00093810C5F1F4F08C060817181882777FD8A
:101BB0008095982F0E5F1F4F2F76B22E97FF09C08A
:101BC00090958095709561957F4F8F4F9F4F2068BE
:101BD000B22E2AE030E0A4010E94070FA82EA81818
:101BE00044C0853729F42F7EB22E2AE030E025C08C
:101BF000F22FF97FBF2E8F36C1F018F4883579F0B7
:101C0000B4C0803719F0883721F0AFC02F2F206182
:101C1000B22EB4FE0DC08B2D8460B82E09C024FFF7
:101C20000AC09F2F9660B92E06C028E030E005C09C
:101C300020E130E002C020E132E0F801B7FE07C049
:101C400060817181828193810C5F1F4F06C060812A
:101C5000718180E090E00E5F1F4FA4010E94070F8A
:101C6000A82EA818FB2DFF77BF2EB6FE0BC02B2D7C
:101C70002E7FA51450F4B4FE0AC0B2FC08C02B2D70
:101C80002E7E05C07A2C2B2D03C07A2C01C0752C1A
:101C900024FF0DC0FE01EA0DF11D8081803311F497
:101CA000297E09C022FF06C07394739404C0822F5A
:101CB000867809F0739423FD13C020FF06C05A2CC8
:101CC000731418F4530C5718732C731468F4B70179
:101CD00080E290E02C870E94D50E73942C85F5CF7E
:101CE000731410F4371801C0312C24FF12C0B7014F
:101CF00080E390E02C870E94D50E2C8522FF17C030
:101D000021FF03C088E590E002C088E790E0B701BA
:101D10000CC0822F867859F021FD02C080E201C0FC
:101D20008BE227FD8DE2B70190E00E94D50EA5144D
:101D300038F4B70180E390E00E94D50E5A94F7CFB3
:101D4000AA94F401EA0DF11D8081B70190E00E9490
:101D5000D50EA110F5CF332009F451CEB70180E2A2
:101D600090E00E94D50E3A94F6CFF70186819781D4
:101D700002C08FEF9FEF2C96E2E10C94810FFC01E3
:101D80000590615070400110D8F7809590958E0FA6
:101D90009F1F0895FC016150704001900110D8F719
:101DA000809590958E0F9F1F08950F931F93CF934B
:101DB000DF93182F092FEB018B8181FD03C08FEF7B
:101DC0009FEF20C082FF10C04E815F812C813D813A
:101DD000421753077CF4E881F9819F012F5F3F4F41
:101DE00039832883108306C0E885F985812F0995FA
:101DF000892B29F72E813F812F5F3F4F3F832E8311
:101E0000812F902FDF91CF911F910F910895FA01AB
:101E1000AA27283051F1203181F1E8946F936E7F29
:101E20006E5F7F4F8F4F9F4FAF4FB1E03ED0B4E01A
:101E30003CD0670F781F891F9A1FA11D680F791F5B
:101E40008A1F911DA11D6A0F711D811D911DA11D6C
:101E500020D009F468943F912AE0269F112430197C
:101E6000305D3193DEF6CF010895462F4770405D17
:101E70004193B3E00FD0C9F7F6CF462F4F70405DC6
:101E80004A3318F0495D31FD4052419302D0A9F721
:101E9000EACFB4E0A6959795879577956795BA951B
:101EA000C9F700976105710508959B01AC010A2EE1
:101EB00006945795479537952795BA95C9F7620FB8
:101EC000731F841F951FA01D08952F923F924F925C
:101ED0005F926F927F928F929F92AF92BF92CF92BA
:101EE000DF92EF92FF920F931F93CF93DF93CDB7C3
:101EF000DEB7CA1BDB0B0FB6F894DEBF0FBECDBF3B
:101F000009942A88398848885F846E847D848C840B
:101F10009B84AA84B984C884DF80EE80FD800C8114
:101F20001B81AA81B981CE0FD11D0FB6F894DEBFF7
:0C1F30000FBECDBFED010895F894FFCF67
:101F3C00E7E7E7E7E7253032642E253032642043AB
:0E1F4C00000048656C6C6F20576F726C64006B
:00000001FF
