:100000000C9434000C9451000C9451000C94510049
:100010000C9451000C9451000C9451000C9451001C
:100020000C9451000C94450D0C9451000C9451000B
:100030000C9451000C9451000C9451000C945100FC
:100040000C9451000C9451000C9451000C945100EC
:100050000C9451000C9451000C9451000C945100DC
:100060000C9451000C94510011241FBECFEFD8E026
:10007000DEBFCDBF11E0A0E0B1E0E4EAF4E202C0EF
:1000800005900D92A231B107D9F711E0A2E1B1E0DC
:1000900001C01D92AF31B107E1F70E94770C0C94BB
:1000A00050120C9400000F931F93CF93DF93CDB7A2
:1000B000DEB7C954D1090FB6F894DEBF0FBECDBF6D
:1000C00088E290E028E230E0F90120812E7FFC01F7
:1000D000208387E290E027E230E0F901208121606F
:1000E000FC01208380E090E0A0EFB3E48A839B834F
:1000F000AC83BD832EE333EC4EE25DE36A817B810A
:100100008C819D810E941C0FDC01CB018E839F831B
:10011000A887B98720E030E040E85FE36E817F8107
:10012000888599850E94C90D88231CF481E08A87FF
:1001300091C020E030E04FE753E46E817F818885F5
:1001400099850E94180F18160CF07BC020E030E053
:100150004AE754E46A817B818C819D810E94CD0DA8
:10016000DC01CB018B879C87AD87BE8720E030E028
:1001700040E052E46B857C858D859E850E941C0F36
:10018000DC01CB018F87988BA98BBA8B20E030E004
:1001900040E85FE36F85788989899A890E94C90D53
:1001A00088232CF481E090E09C8B8B8B3FC020E077
:1001B0003FEF4FE757E46F85788989899A890E94D4
:1001C000180F18164CF520E030E040E251E46B8542
:1001D0007C858D859E850E941C0FDC01CB01BC01B6
:1001E000CD010E943A0EDC01CB019C8B8B8B0FC0A2
:1001F00083E090E09E8B8D8B8D899E890197F1F72E
:100200009E8B8D8B8B899C8901979C8B8B8B8B898B
:100210009C89009769F724C06F85788989899A89B4
:100220000E943A0EDC01CB019C8B8B8B8B899C89C5
:10023000988F8F8B8F89988D0197F1F7988F8F8B7F
:100240000FC06E817F81888599850E943A0EDC01FE
:10025000CB018A878A85898F898D8A95F1F7898F65
:1002600087E290E027E230E0F90120812E7FFC0157
:10027000208380E090E0A0E7B2E48A8F9B8FAC8F70
:10028000BD8F2EE333EC4EE25DE36A8D7B8D8C8D6A
:100290009D8D0E941C0FDC01CB018E8F9F8FA8A328
:1002A000B9A320E030E040E85FE36E8D7F8D88A148
:1002B00099A10E94C90D88231CF481E08AA391C0F2
:1002C00020E030E04FE753E46E8D7F8D88A199A147
:1002D0000E94180F18160CF07BC020E030E04AE7AF
:1002E00054E46A8D7B8D8C8D9D8D0E94CD0DDC013B
:1002F000CB018BA39CA3ADA3BEA320E030E040E0E4
:1003000052E46BA17CA18DA19EA10E941C0FDC0177
:10031000CB018FA398A7A9A7BAA720E030E040E8B7
:100320005FE36FA178A589A59AA50E94C90D8823CE
:100330002CF481E090E09CA78BA73FC020E03FEF2A
:100340004FE757E46FA178A589A59AA50E94180FD9
:1003500018164CF520E030E040E251E46BA17CA19E
:100360008DA19EA10E941C0FDC01CB01BC01CD011F
:100370000E943A0EDC01CB019CA78BA70FC083E043
:1003800090E09EA78DA78DA59EA50197F1F79EA74A
:100390008DA78BA59CA501979CA78BA78BA59CA53A
:1003A000009769F724C06FA178A589A59AA50E9436
:1003B0003A0EDC01CB019CA78BA78BA59CA598AB23
:1003C0008FA78FA598A90197F1F798AB8FA70FC0BA
:1003D0006E8D7F8D88A199A10E943A0EDC01CB0120
:1003E0008AA38AA189AB89A98A95F1F789AB86E2AC
:1003F00090E0FC0180818170898380E090E0A2ED33
:10040000B3E48AAB9BABACABBDAB2EE333EC4EE2BB
:100410005DE36AA97BA98CA99DA90E941C0FDC0140
:10042000CB018EAB9FABA8AFB9AF20E030E040E886
:100430005FE36EA97FA988AD99AD0E94C90D88239D
:100440001CF481E08AAFD4C020E030E04FE753E4F1
:100450006EA97FA988AD99AD0E94180F18160CF0EF
:10046000BEC020E030E04AE754E46AA97BA98CA929
:100470009DA90E94CD0DDC01CB018BAF9CAFADAF30
:10048000BEAF8E01015C1F4F20E030E040E052E43F
:100490006BAD7CAD8DAD9EAD0E941C0FDC01CB0120
:1004A000F80180839183A283B383CE01CF9620E0AD
:1004B00030E040E85FE3FC016081718182819381DB
:1004C0000E94C90D88234CF4CE018D5B9F4F21E023
:1004D00030E0FC013183208367C0CE01CF9620E05D
:1004E0003FEF4FE757E4FC01608171818281938186
:1004F0000E94180F18160CF046C020E030E040E2D1
:1005000051E46BAD7CAD8DAD9EAD0E941C0FDC0146
:10051000CB018E010D5B1F4FBC01CD010E943A0E35
:10052000DC01CB01F8019183808324C0CE018B5B79
:100530009F4F23E030E0FC0131832083CE018B5BB1
:100540009F4FFC01808191810197F1F79E012B5B08
:100550003F4FF90191838083CE018D5B9F4F9E01B8
:100560002D5B3F4FF9012081318121503109FC0180
:1005700031832083CE018D5B9F4FFC01808191816F
:100580000097A1F648C08E010D5B1F4FCE01CF969C
:10059000FC0160817181828193810E943A0EDC01AD
:1005A000CB01F80191838083CE01895B9F4F9E012F
:1005B0002D5B3F4FF90120813181FC013183208384
:1005C000CE01895B9F4FFC01808191810197F1F7FA
:1005D0009E01295B3F4FF901918380831CC06EA966
:1005E0007FA988AD99AD0E943A0EDC01CB018AAF9C
:1005F000CE01875B9F4F2AADFC012083CE01875B34
:100600009F4FFC018081282F2A95F1F7CE01875B4F
:100610009F4FFC0120838981C75BDF4F0FB6F894A1
:10062000DEBF0FBECDBFDF91CF911F910F91089517
:10063000CF93DF93CDB7DEB7E1970FB6F894DEBF67
:100640000FBECDBF89AB88E290E028E230E0F9012F
:1006500020812E7FFC01208387E290E027E230E0BA
:10066000F90120812160FC01208380E090E0A0E876
:10067000BFE389839A83AB83BC832EE333EC4EE2E2
:100680005DE369817A818B819C810E941C0FDC0172
:10069000CB018D839E83AF83B88720E030E040E8B4
:1006A0005FE36D817E818F8198850E94C90D8823CB
:1006B0001CF481E0898791C020E030E04FE753E4EB
:1006C0006D817E818F8198850E94180F18160CF01D
:1006D0007BC020E030E04AE754E469817A818B8175
:1006E0009C810E94CD0DDC01CB018A879B87AC8762
:1006F000BD8720E030E040E052E46A857B858C8550
:100700009D850E941C0FDC01CB018E879F87A88BE3
:10071000B98B20E030E040E85FE36E857F85888913
:1007200099890E94C90D88232CF481E090E09B8B6D
:100730008A8B3FC020E03FEF4FE757E46E857F850F
:10074000888999890E94180F18164CF520E030E02E
:1007500040E251E46A857B858C859D850E941C0F53
:10076000DC01CB01BC01CD010E943A0EDC01CB01C2
:100770009B8B8A8B0FC083E090E09D8B8C8B8C8948
:100780009D890197F1F79D8B8C8B8A899B890197B5
:100790009B8B8A8B8A899B89009769F724C06E8519
:1007A0007F85888999890E943A0EDC01CB019B8B59
:1007B0008A8B8A899B899F8B8E8B8E899F890197D3
:1007C000F1F79F8B8E8B0FC06D817E818F81988515
:1007D0000E943A0EDC01CB0189878985888F888D3C
:1007E0008A95F1F7888F89A9882349F087E290E0FC
:1007F00027E230E0F90120812E7FFC01208380E098
:1008000090E0A0E7B2E4898F9A8FAB8FBC8F2EE384
:1008100033EC4EE25DE3698D7A8D8B8D9C8D0E9469
:100820001C0FDC01CB018D8F9E8FAF8FB8A320E012
:1008300030E040E85FE36D8D7E8D8F8D98A10E9442
:10084000C90D88231CF481E089A391C020E030E029
:100850004FE753E46D8D7E8D8F8D98A10E94180F08
:1008600018160CF07BC020E030E04AE754E4698DB4
:100870007A8D8B8D9C8D0E94CD0DDC01CB018AA3DE
:100880009BA3ACA3BDA320E030E040E052E46AA10A
:100890007BA18CA19DA10E941C0FDC01CB018EA32A
:1008A0009FA3A8A7B9A720E030E040E85FE36EA1CE
:1008B0007FA188A599A50E94C90D88232CF481E009
:1008C00090E09BA78AA73FC020E03FEF4FE757E4A7
:1008D0006EA17FA188A599A50E94180F18164CF546
:1008E00020E030E040E251E46AA17BA18CA19DA10F
:1008F0000E941C0FDC01CB01BC01CD010E943A0E0D
:10090000DC01CB019BA78AA70FC083E090E09DA7E5
:100910008CA78CA59DA50197F1F79DA78CA78AA50B
:100920009BA501979BA78AA78AA59BA5009769F716
:1009300024C06EA17FA188A599A50E943A0EDC0172
:10094000CB019BA78AA78AA59BA59FA78EA78EA54B
:100950009FA50197F1F79FA78EA70FC06D8D7E8D84
:100960008F8D98A10E943A0EDC01CB0189A389A149
:1009700088AB88A98A95F1F788AB87E290E027E2F7
:1009800030E0F90120812E7FFC012083E1960FB633
:10099000F894DEBF0FBECDBFDF91CF9108950F93C6
:1009A0001F93CF93DF93CDB7DEB7C954D1090FB6EC
:1009B000F894DEBF0FBECDBF198288E290E028E236
:1009C00030E0F90120812E7FFC01208387E290E056
:1009D00027E230E0F90120812160FC01208380E0E2
:1009E00090E0A0E8BFE38A839B83AC83BD832EE3C2
:1009F00033EC4EE25DE36A817B818C819D810E94B4
:100A00001C0FDC01CB018E839F83A887B98720E070
:100A100030E040E85FE36E817F81888599850E94A0
:100A2000C90D88231CF481E08A8791C020E030E062
:100A30004FE753E46E817F81888599850E94180F66
:100A400018160CF07BC020E030E04AE754E46A81DD
:100A50007B818C819D810E94CD0DDC01CB018B8738
:100A60009C87AD87BE8720E030E040E052E46B8594
:100A70007C858D859E850E941C0FDC01CB018F87B4
:100A8000988BA98BBA8B20E030E040E85FE36F855C
:100A9000788989899A890E94C90D88232CF481E07C
:100AA00090E09C8B8B8B3FC020E03FEF4FE757E4FB
:100AB0006F85788989899A890E94180F18164CF5D4
:100AC00020E030E040E251E46B857C858D859E8599
:100AD0000E941C0FDC01CB01BC01CD010E943A0E2B
:100AE000DC01CB019C8B8B8B0FC083E090E09E8B55
:100AF0008D8B8D899E890197F1F79E8B8D8B8B89CC
:100B00009C8901979C8B8B8B8B899C89009769F7BB
:100B100024C06F85788989899A890E943A0EDC0100
:100B2000CB019C8B8B8B8B899C89988F8F8B8F892A
:100B3000988D0197F1F7988F8F8B0FC06E817F8111
:100B4000888599850E943A0EDC01CB018A878A85C7
:100B5000898F898D8A95F1F7898F87E290E027E266
:100B600030E0F90120812E7FFC01208380E090E0BD
:100B7000A0E6B1E48A8F9B8FAC8FBD8F2EE333EC60
:100B80004EE25DE36A8D7B8D8C8D9D8D0E941C0FE6
:100B9000DC01CB018E8F9F8FA8A3B9A320E030E0AA
:100BA00040E85FE36E8D7F8D88A199A10E94C90DF9
:100BB00088231CF481E08AA391C020E030E04FE755
:100BC00053E46E8D7F8D88A199A10E94180F18168D
:100BD0000CF07BC020E030E04AE754E46A8D7B8D66
:100BE0008C8D9D8D0E94CD0DDC01CB018BA39CA330
:100BF000ADA3BEA320E030E040E052E46BA17CA1B5
:100C00008DA19EA10E941C0FDC01CB018FA398A790
:100C1000A9A7BAA720E030E040E85FE36FA178A57C
:100C200089A59AA50E94C90D88232CF481E090E043
:100C30009CA78BA73FC020E03FEF4FE757E46FA191
:100C400078A589A59AA50E94180F18164CF520E0E2
:100C500030E040E251E46BA17CA18DA19EA10E94F5
:100C60001C0FDC01CB01BC01CD010E943A0EDC015E
:100C7000CB019CA78BA70FC083E090E09EA78DA718
:100C80008DA59EA50197F1F79EA78DA78BA59CA585
:100C900001979CA78BA78BA59CA5009769F724C0FB
:100CA0006FA178A589A59AA50E943A0EDC01CB0117
:100CB0009CA78BA78BA59CA598AB8FA78FA598A960
:100CC0000197F1F798AB8FA70FC06E8D7F8D88A12C
:100CD00099A10E943A0EDC01CB018AA38AA189ABBB
:100CE00089A98A95F1F789AB86E290E0FC018081C1
:100CF000882F90E081709927009711F081E0898317
:100D000080E090E0A4E3B2E48AAB9BABACABBDABBC
:100D10002EE333EC4EE25DE36AA97BA98CA99DA981
:100D20000E941C0FDC01CB018EAB9FABA8AFB9AF0B
:100D300020E030E040E85FE36EA97FA988AD99AD7F
:100D40000E94C90D88231CF481E08AAFD4C020E042
:100D500030E04FE753E46EA97FA988AD99AD0E94BA
:100D6000180F18160CF0BEC020E030E04AE754E43B
:100D70006AA97BA98CA99DA90E94CD0DDC01CB019C
:100D80008BAF9CAFADAFBEAF8E01015C1F4F20E0BB
:100D900030E040E052E46BAD7CAD8DAD9EAD0E9485
:100DA0001C0FDC01CB01F80180839183A283B38304
:100DB000CE01CF9620E030E040E85FE3FC016081A7
:100DC0007181828193810E94C90D88234CF4CE01E8
:100DD0008D5B9F4F21E030E0FC013183208367C0B1
:100DE000CE01CF9620E03FEF4FE757E4FC01608152
:100DF0007181828193810E94180F18160CF046C0F1
:100E000020E030E040E251E46BAD7CAD8DAD9EADB5
:100E10000E941C0FDC01CB018E010D5B1F4FBC013A
:100E2000CD010E943A0EDC01CB01F8019183808351
:100E300024C0CE018B5B9F4F23E030E0FC01318367
:100E40002083CE018B5B9F4FFC01808191810197B4
:100E5000F1F79E012B5B3F4FF90191838083CE0117
:100E60008D5B9F4F9E012D5B3F4FF90120813181AA
:100E700021503109FC0131832083CE018D5B9F4FCE
:100E8000FC01808191810097A1F648C08E010D5B25
:100E90001F4FCE01CF96FC016081718182819381C9
:100EA0000E943A0EDC01CB01F80191838083CE01D0
:100EB000895B9F4F9E012D5B3F4FF901208131815E
:100EC000FC0131832083CE01895B9F4FFC0180812F
:100ED00091810197F1F79E01295B3F4FF9019183C1
:100EE00080831CC06EA97FA988AD99AD0E943A0E7F
:100EF000DC01CB018AAFCE01875B9F4F2AADFC019D
:100F00002083CE01875B9F4FFC018081282F2A958B
:100F1000F1F7CE01875B9F4FFC0120838981C75B7E
:100F2000DF4F0FB6F894DEBF0FBECDBFDF91CF917C
:100F30001F910F910895CF93DF9300D0CDB7DEB707
:100F40008A8388E0898307C08A8181700E941803A0
:100F50008A8186958A8389819FEF980F9983882358
:100F600099F70F900F90DF91CF910895CF93DF9372
:100F700000D0CDB7DEB788E089831A8210C08A819D
:100F800086958A830E94CF04882F90E09695982FAB
:100F9000882797958795982F8A81892B8A838981BD
:100FA0009FEF980F9983882351F78A810F900F90B4
:100FB000DF91CF910895CF93DF9300D000D000D080
:100FC000CDB7DEB719821A821B821C82F8940E9468
:100FD00053008CEC0E949B0784E40E949B07000056
:100FE0000E94CF048823E1F30E9453008CEC0E94FE
:100FF0009B078EEB0E949B070E94B6078D830E9481
:10100000B6078E8378948E81882F90E0382F222720
:101010008D81882F90E0820F931FAA2797FDA095BE
:10102000BA2FBC01CD010E94680EDC01CB0120E08B
:1010300030E040E85DE3BC01CD010E941C0FDC0103
:10104000CB0189839A83AB83BC8389819A81AB81ED
:10105000BC81BC01CD0126960FB6F894DEBF0FBE51
:10106000CDBFDF91CF910895CF93DF93CDB7DEB79A
:101070000E94F30A80E00E94270B81E00E94470B48
:10108000DF91CF910895CF93DF9300D0CDB7DEB736
:1010900089836A838A8180931401698185E00E9433
:1010A000950A60E081E10E94950A80911401682F01
:1010B00082E10E94950A60E083E10E94950A60E067
:1010C00084E10E94950A60E085E10E94950A60E053
:1010D00086E10E94950A66E086E00E94950A68E033
:1010E00080E00E94950A63E081E00E94950A63E037
:1010F00082E00E94950A6FE484E00E94950A60E015
:101100008CE10E94950A0E94B7090F900F90DF9121
:10111000CF910895CF93DF9300D0CDB7DEB79A83F8
:10112000898380E00E94270B89819A8145E0BC0178
:101130008BE00E94D20A81E00E94270B0F900F9053
:10114000DF91CF910895CF93DF93CDB7DEB7809134
:101150001401DF91CF910895CF93DF9300D0CDB7E5
:10116000DEB79A83898389819A8145E0BC018AE050
:101170000E94D20A89819A8145E0BC0180E10E94E7
:10118000D20A0F900F90DF91CF910895CF93DF9304
:101190001F92CDB7DEB70E94840989838981882F89
:1011A00090E080749927009711F081E007C00E94B9
:1011B000E208982F81E0992309F080E00F90DF91F9
:1011C000CF910895CF93DF931F92CDB7DEB741E063
:1011D000CE010196BC0187E10E94AF0A898181702E
:1011E0000F90DF91CF910895CF93DF931F92CDB7EA
:1011F000DEB780E00E94470B80E60E94F20980E0A3
:101200000E94F209898381E00E94470B89810F9037
:10121000DF91CF910895CF93DF9300D0CDB7DEB7A4
:101220009A83898380E00E94470B81E60E94F2093D
:101230004091140129813A8189819A81B9010E94E2
:101240003A0A81E00E94470B60E487E00E94950A19
:101250000F900F90DF91CF910895CF93DF931F925E
:10126000CDB7DEB741E0CE010196BC0188E00E9417
:10127000AF0A89818F70898389810F90DF91CF9127
:101280000895CF93DF9300D0CDB7DEB79A838983DB
:1012900080E00E94270B0E94D50980E00E94470B46
:1012A00081EE0E94F20981E00E94470B80E00E94DB
:1012B000470B80EA0E94F2092091140189819A81EA
:1012C000622F0E94710A81E00E94470B81E00E9418
:1012D000270B0F900F90DF91CF910895CF93DF935D
:1012E0001F92CDB7DEB70E94840989838981882F38
:1012F00090E080739927009711F080E001C081E0B1
:101300000F90DF91CF910895CF93DF931F92CDB7C8
:10131000DEB780E00E94470B8FEF0E94F2098983BD
:1013200081E00E94470B89810F90DF91CF91089552
:10133000CF93DF931F92CDB7DEB70E9484098983D4
:101340008981882F90E080729927009711F080E0C2
:101350000AC08981882F90E080719927009711F049
:1013600081E001C08FEF0F90DF91CF910895CF936F
:10137000DF93CDB7DEB780E00E94470B82EE0E947C
:10138000F20981E00E94470B60E787E00E94950A1E
:1013900080E00E94270B6BE080E00E94950A81E0CC
:1013A0000E94270BDF91CF910895CF93DF93CDB7A4
:1013B000DEB760E787E00E94950A6AE080E00E945D
:1013C000950ADF91CF910895CF93DF93CDB7DEB724
:1013D00080E00E94270B68E080E00E94950ADF9180
:1013E000CF910895CF93DF9300D01F92CDB7DEB792
:1013F0008B8319821A8280E00E94670B198230C0A9
:101400008B81882F90E02981222F30E047E050E047
:10141000BA01621B730B9B01022E02C09595879542
:101420000A94E2F781709927009721F081E00E94E9
:10143000870B03C080E00E94870B81E00E94670B4E
:101440008A81880F8A830E94A70B882319F08A81DA
:1014500081608A8380E00E94670B89818F5F898326
:101460008981883068F28A810F900F900F90DF9108
:10147000CF9108950F931F93CF93DF9300D000D0A7
:1014800000D0CDB7DEB79B838A837D836C834E8388
:10149000198218C08981882F90E02C813D818901B3
:1014A000080F191F8981882F90E02A813B81820FC4
:1014B000931FFC0180810E94F209F80180838981D9
:1014C0008F5F898399818E81981720F326960FB6B6
:1014D000F894DEBF0FBECDBFDF91CF911F910F916A
:1014E0000895CF93DF9300D000D0CDB7DEB79B83B4
:1014F0008A836C8319820EC08981882F90E02A81AB
:101500003B81820F931FFC0180810E94F209898137
:101510008F5F898399818C81981770F30F900F905A
:101520000F900F90DF91CF910895CF93DF9300D06C
:10153000CDB7DEB789836A8380E00E94470B89813B
:101540008F7180620E94F2098A810E94F20981E013
:101550000E94470B0F900F90DF91CF910895CF938A
:10156000DF9300D000D0CDB7DEB789837B836A8359
:101570004C8380E00E94470B89818F710E94F209A1
:101580002A813B818A819B814C81B9010E943A0A60
:1015900081E00E94470B0F900F900F900F90DF910A
:1015A000CF910895CF93DF9300D000D0CDB7DEB7B1
:1015B00089837B836A834C8380E00E94470B898107
:1015C0008F7180620E94F2098A819B816C810E94E6
:1015D000710A81E00E94470B0F900F900F900F90BF
:1015E000DF91CF910895CF93DF93CDB7DEB787E238
:1015F00090E027E230E0F90120812062FC012083A5
:1016000087E290E027E230E0F90120812061FC01CF
:10161000208384E290E024E230E0F901208120621E
:10162000FC01208384E290E024E230E0F901208193
:101630002860FC01208384E290E024E230E0F9019C
:1016400020812F7EFC012083DF91CF910895CF93DD
:10165000DF931F92CDB7DEB789838981882351F04C
:1016600088E290E028E230E0F90120812062FC016C
:10167000208309C088E290E028E230E0F90120816F
:101680002F7DFC0120830F90DF91CF910895CF93A0
:10169000DF931F92CDB7DEB789838981882351F00C
:1016A00088E290E028E230E0F90120812061FC012D
:1016B000208309C088E290E028E230E0F90120812F
:1016C0002F7EFC0120830F90DF91CF910895CF935F
:1016D000DF931F92CDB7DEB789838981882351F0CC
:1016E00085E290E025E230E0F90120812062FC01F2
:1016F000208309C085E290E025E230E0F9012081F5
:101700002F7DFC0120830F90DF91CF910895CF931F
:10171000DF931F92CDB7DEB789838981882351F08B
:1017200085E290E025E230E0F90120812860FC01AB
:10173000208309C085E290E025E230E0F9012081B4
:10174000277FFC0120830F90DF91CF910895CF93E5
:10175000DF93CDB7DEB783E290E0FC01808180713A
:10176000DF91CF910895CF93DF93CDB7DEB72A975E
:101770000FB6F894DEBF0FBECDBF85E091E09A832F
:1017800089831C821B821E821D821F8218861986F5
:101790001A860E94DB07DC01CB018F839887A9871B
:1017A000BA876F81788589859A850E94350EDC011C
:1017B000CB019C838B838B819C81AA2797FDA0956D
:1017C000BA2FBC01CD010E94680EDC01CB019C0147
:1017D000AD016F81788589859A850E94640DDC0151
:1017E000CB0120E030E048EC52E4BC01CD010E9486
:1017F0001C0FDC01CB01BC01CD010E94350EDC01C8
:10180000CB019E838D838E818F938D818F938C816D
:101810008F938B818F9386E091E0892F8F9386E061
:1018200091E08F938A818F9389818F930E947F0F9C
:101830008DB79EB708960FB6F894DEBF0FBECDBF2A
:1018400089819A812A960FB6F894DEBF0FBECDBF6C
:10185000DF91CF910895CF93DF93CDB7DEB781EBC2
:1018600090E021EB30E0F90120812460FC0120832D
:1018700081EB90E021EB30E0F90120812260FC0156
:10188000208381EB90E021EB30E0F90120812160A1
:10189000FC01208382EB90E0FC01108280E790E065
:1018A00020E730E0F90120812160FC012083789459
:1018B000DF91CF910895CF93DF93CDB7DEB7F89442
:1018C00083E590E023E530E0F90120812160FC010F
:1018D00020837894889583E590E023E530E0F90152
:1018E00020812E7FFC012083DF91CF910895CF933B
:1018F000DF93CDB7DEB72E970FB6F894DEBF0FBEDD
:10190000CDBF0E9434080E942B0C8AE290E02AE2AC
:1019100030E0F90120812062FC01208383E590E022
:1019200023E530E0F9012081217F2660FC0120833E
:1019300068E082E00E94430880E091E00E94AC08E9
:101940008091120190911301853091050CF49AC099
:10195000F89410921301109212018BE290E02BE2A6
:1019600030E0F90120812062FC0120830E94B30B4A
:1019700090931601809315018091150190911601A5
:101980000E94410900000E946E098823E1F780E06F
:1019900090E0A8ECB2E489839A83AB83BC8320E017
:1019A00030E040E052E469817A818B819C810E9421
:1019B0001C0FDC01CB018D839E83AF83B88720E0B1
:1019C00030E040E85FE36D817E818F8198850E94E1
:1019D000C90D88232CF481E090E09A8789873FC065
:1019E00020E03FEF4FE757E46D817E818F8198853E
:1019F0000E94180F18164CF520E030E040E251E448
:101A000069817A818B819C810E941C0FDC01CB0152
:101A1000BC01CD010E943A0EDC01CB019A87898777
:101A20000FC083E090E09C878B878B859C85019716
:101A3000F1F79C878B8789859A8501979A87898793
:101A400089859A85009769F714C06D817E818F81A1
:101A500098850E943A0EDC01CB019A878987898597
:101A60009A859E878D878D859E850197F1F79E8744
:101A70008D878BE290E02BE230E0F90120812F7D11
:101A8000FC0120830E945B0C5BCF1F920F920090A1
:101A90005F000F9211248F939F93CF93DF93CDB765
:101AA000DEB780911201909113010196909313017A
:101AB00080931201DF91CF919F918F910F900092AF
:101AC0005F000F901F9018955058BB27AA270ED083
:101AD00075C166D130F06BD120F031F49F3F11F425
:101AE0001EF45BC10EF4E095E7FB51C1E92F77D1FD
:101AF00080F3BA17620773078407950718F071F42B
:101B00009EF58FC10EF4E0950B2EBA2FA02D0B0180
:101B1000B90190010C01CA01A0011124FF27591B32
:101B200099F0593F50F4503E68F11A16F040A22F38
:101B3000232F342F4427585FF3CF469537952795A9
:101B4000A795F0405395C9F77EF41F16BA0B620BA8
:101B5000730B840BBAF09150A1F0FF0FBB1F661FEF
:101B6000771F881FC2F70EC0BA0F621F731F841F32
:101B700048F4879577956795B795F7959E3F08F058
:101B8000B3CF9395880F08F09927EE0F9795879517
:101B90000895D9D008F481E008950CD00FC107D181
:101BA00040F0FED030F021F45F3F19F0F0C0511149
:101BB00039C1F3C014D198F39923C9F35523B1F374
:101BC000951B550BBB27AA2762177307840738F0AC
:101BD0009F5F5F4F220F331F441FAA1FA9F333D00B
:101BE0000E2E3AF0E0E830D091505040E695001CBF
:101BF000CAF729D0FE2F27D0660F771F881FBB1F7B
:101C0000261737074807AB07B0E809F0BB0B802D54
:101C1000BF01FF2793585F4F2AF09E3F510568F0A0
:101C2000B6C000C15F3FECF3983EDCF38695779534
:101C30006795B795F7959F5FC9F7880F911D9695A2
:101C4000879597F90895E1E0660F771F881FBB1FFE
:101C5000621773078407BA0720F0621B730B840BAB
:101C6000BA0BEE1F88F7E095089504D06894B1117F
:101C7000D9C00895BCD088F09F5790F0B92F99270C
:101C8000B751A0F0D1F0660F771F881F991F1AF087
:101C9000BA95C9F712C0B13081F0C3D0B1E0089550
:101CA000C0C0672F782F8827B85F39F0B93FCCF3D1
:101CB000869577956795B395D9F73EF4909580957D
:101CC000709561957F4F8F4F9F4F0895E89409C09D
:101CD00097FB3EF490958095709561957F4F8F4F5F
:101CE0009F4F9923A9F0F92F96E9BB279395F69575
:101CF000879577956795B795F111F8CFFAF4BB0FF3
:101D000011F460FF1BC06F5F7F4F8F4F9F4F16C056
:101D1000882311F096E911C0772321F09EE8872FE0
:101D2000762F05C0662371F096E8862F70E060E09C
:101D30002AF09A95660F771F881FDAF7880F969515
:101D4000879597F90895990F0008550FAA0BE0E8B9
:101D5000FEEF16161706E807F907C0F0121613066D
:101D6000E407F50798F0621B730B840B950B39F4AD
:101D70000A2661F0232B242B252B21F408950A2613
:101D800009F4A140A6958FEF811D811D089597F953
:101D90009F6780E870E060E008959FEF80EC089511
:101DA00000240A941616170618060906089500243A
:101DB0000A9412161306140605060895092E0394B4
:101DC000000C11F4882352F0BB0F40F4BF2B11F428
:101DD00060FF04C06F5F7F4F8F4F9F4F089557FD87
:101DE0009058440F551F59F05F3F71F04795880F89
:101DF00097FB991F61F09F3F79F087950895121620
:101E000013061406551FF2CF4695F1DF08C01616CB
:101E100017061806991FF1CF86957105610508947C
:101E20000895E894BB2766277727CB0197F9089593
:101E30008ADF08F48FEF08950BD0C0CFB1DF28F010
:101E4000B6DF18F0952309F0A2CFA7CF1124EACF6F
:101E5000C6DFA0F3959FD1F3950F50E0551F629F09
:101E6000F001729FBB27F00DB11D639FAA27F00DF3
:101E7000B11DAA1F649F6627B00DA11D661F829F1A
:101E80002227B00DA11D621F739FB00DA11D621FFF
:101E9000839FA00D611D221F749F3327A00D611D1C
:101EA000231F849F600D211D822F762F6A2F1124FE
:101EB0009F5750408AF0E1F088234AF0EE0FFF1F51
:101EC000BB1F661F771F881F91505040A9F79E3F88
:101ED000510570F05CCFA6CF5F3FECF3983EDCF38A
:101EE000869577956795B795F795E7959F5FC1F7C5
:101EF000FE2B880F911D9695879597F90895AEE072
:101F0000B0E0E5E8FFE00C9427120D891E8986E019
:101F10008C831A8309838FEF9FE79E838D83AE01A5
:101F2000475E5F4F6F89788DCE0101960E94A10FA9
:101F3000EF81F885E00FF11F10822E96E4E00C94FB
:101F40004312ACE0B0E0E7EAFFE00C9419127C0128
:101F50006B018A01FC0117821682838181FFBDC15A
:101F6000CE0101964C01F7019381F60193FD859115
:101F700093FF81916F01882309F4ABC1853239F455
:101F800093FD859193FF81916F01853229F4B7010B
:101F900090E00E948911E7CF512C312C20E02032B3
:101FA000A0F48B3269F030F4803259F0833269F456
:101FB00020612CC08D3239F0803339F4216026C085
:101FC0002260246023C0286021C027FD27C030ED97
:101FD000380F3A3078F426FF06C0FAE05F9E300DE5
:101FE0001124532E13C08AE0389E300D1124332E55
:101FF00020620CC08E3221F426FD6BC1206406C025
:102000008C3611F4206802C0883641F4F60193FD45
:10201000859193FF81916F018111C1CF982F9F7D91
:102020009554933028F40C5F1F4FFFE3F9830DC0E4
:10203000833631F0833771F0833509F05BC022C0FD
:10204000F801808189830E5F1F4F44244394512CF3
:10205000540115C03801F2E06F0E711CF801A08028
:10206000B18026FF03C0652D70E002C06FEF7FEFE7
:10207000C5012C870E947E112C0183012C852F77AE
:10208000222E17C03801F2E06F0E711CF801A080FB
:10209000B18026FF03C0652D70E002C06FEF7FEFB7
:1020A000C5012C870E9473112C012C852068222EDB
:1020B000830123FC1BC0832D90E048165906B0F421
:1020C000B70180E290E00E9489113A94F4CFF501C3
:1020D00027FC859127FE81915F01B70190E00E9466
:1020E000891131103A94F1E04F1A5108411451040A
:1020F00071F7E5C0843611F0893639F5F80127FF0C
:1021000007C060817181828193810C5F1F4F08C07D
:1021100060817181882777FD8095982F0E5F1F4F12
:102120002F76B22E97FF09C0909580957095619596
:102130007F4F8F4F9F4F2068B22E2AE030E0A401DE
:102140000E94BB11A82EA81844C0853729F42F7E01
:10215000B22E2AE030E025C0F22FF97FBF2E8F3655
:10216000C1F018F4883579F0B4C0803719F0883799
:1021700021F0AFC02F2F2061B22EB4FE0DC08B2DE9
:102180008460B82E09C024FF0AC09F2F9660B92E24
:1021900006C028E030E005C020E130E002C020E1C8
:1021A00032E0F801B7FE07C06081718182819381BE
:1021B0000C5F1F4F06C06081718180E090E00E5F70
:1021C0001F4FA4010E94BB11A82EA818FB2DFF775A
:1021D000BF2EB6FE0BC02B2D2E7FA51450F4B4FEDF
:1021E0000AC0B2FC08C02B2D2E7E05C07A2C2B2DE8
:1021F00003C07A2C01C0752C24FF0DC0FE01EA0D2E
:10220000F11D8081803311F4297E09C022FF06C0B0
:102210007394739404C0822F867809F0739423FD1D
:1022200013C020FF06C05A2C731418F4530C57180F
:10223000732C731468F4B70180E290E02C870E943D
:10224000891173942C85F5CF731410F4371801C0DD
:10225000312C24FF12C0B70180E390E02C870E944C
:1022600089112C8522FF17C021FF03C088E590E06B
:1022700002C088E790E0B7010CC0822F867859F041
:1022800021FD02C080E201C08BE227FD8DE2B70193
:1022900090E00E948911A51438F4B70180E390E022
:1022A0000E9489115A94F7CFAA94F401EA0DF11D06
:1022B0008081B70190E00E948911A110F5CF3320F1
:1022C00009F451CEB70180E290E00E9489113A945E
:1022D000F6CFF7018681978102C08FEF9FEF2C9692
:1022E000E2E10C943512FC01059061507040011040
:1022F000D8F7809590958E0F9F1F0895FC0161502F
:10230000704001900110D8F7809590958E0F9F1F17
:1023100008950F931F93CF93DF93182F092FEB018D
:102320008B8181FD03C08FEF9FEF20C082FF10C023
:102330004E815F812C813D81421753077CF4E881F7
:10234000F9819F012F5F3F4F39832883108306C097
:10235000E885F985812F0995892B29F72E813F8101
:102360002F5F3F4F3F832E83812F902FDF91CF919F
:102370001F910F910895FA01AA27283051F12031B9
:1023800081F1E8946F936E7F6E5F7F4F8F4F9F4F09
:10239000AF4FB1E03ED0B4E03CD0670F781F891F4B
:1023A0009A1FA11D680F791F8A1F911DA11D6A0F19
:1023B000711D811D911DA11D20D009F468943F91CC
:1023C0002AE0269F11243019305D3193DEF6CF01CB
:1023D0000895462F4770405D4193B3E00FD0C9F791
:1023E000F6CF462F4F70405D4A3318F0495D31FDFE
:1023F0004052419302D0A9F7EACFB4E0A695979551
:10240000879577956795BA95C9F700976105710526
:1024100008959B01AC010A2E069457954795379570
:102420002795BA95C9F7620F731F841F951FA01DCA
:1024300008952F923F924F925F926F927F928F9268
:102440009F92AF92BF92CF92DF92EF92FF920F9343
:102450001F93CF93DF93CDB7DEB7CA1BDB0B0FB64D
:10246000F894DEBF0FBECDBF09942A88398848880A
:102470005F846E847D848C849B84AA84B984C884A0
:10248000DF80EE80FD800C811B81AA81B981CE0F97
:10249000D11D0FB6F894DEBF0FBECDBFED0108957C
:0424A000F894FFCFDE
:1024A400E7E7E7E7E700253032642E253032642081
:0224B4004300E3
:00000001FF
