:100000000C9434000C9451000C9451000C94510049
:100010000C9451000C9451000C9451000C9451001C
:100020000C9451000C9451000C9451000C9451000C
:100030000C9451000C949C080C9451000C945100A9
:100040000C9451000C9451000C9451000C945100EC
:100050000C9451000C9451000C9451000C945100DC
:100060000C9451000C94510011241FBECFEFD8E026
:10007000DEBFCDBF11E0A0E0B1E0E2EAF2E202C0F3
:1000800005900D92A032B107D9F711E0A0E2B1E0DE
:1000900001C01D92A133B107E1F70E94AA050C949B
:1000A0004F110C940000CF93DF93CDB7DEB78CE7F0
:1000B00090E02CE730E0F90120812064FC012083EE
:1000C0008AE790E02AE730E0F90120812460FC0112
:1000D00020838AE790E02AE730E0F901208122605E
:1000E000FC0120838AE790E02AE730E0F9012081D3
:1000F0002160FC0120838AE790E02AE730E0F901E3
:1001000020812068FC012083DF91CF910895CF9357
:10011000DF931F92CDB7DEB789838CE790E02CE7A1
:1001200030E0F9012081322F307F29812F70232B7D
:10013000FC01208385E590E025E530E0F901208190
:100140002260FC01208385E590E025E530E0F9019F
:1001500020812160FC0120838AE790E02AE730E0DB
:10016000F90120812064FC01208300008AE790E0EF
:10017000FC018081882F90E0807499270097B1F767
:1001800088E790E0FC01808191810F90DF91CF9111
:100190000895CF93DF93CDB7DEB780E00E9487004C
:1001A000CC01A0E0B0E0BC01CD010E94650DDC01F6
:1001B000CB012AEC36E24BE153E4BC01CD010E94B5
:1001C000630CDC01CB0120E030E44EE455E4BC01DB
:1001D000CD010E941B0EDC01CB0120E030E040E8A5
:1001E00054E4BC01CD010E94CC0CDC01CB0120E029
:1001F00030E040E251E4BC01CD010E94CC0CDC01B6
:10020000CB01BC01CD01DF91CF910895CF93DF9356
:10021000CDB7DEB72A970FB6F894DEBF0FBECDBFBD
:100220006F83788789879A876F81788589859A8592
:100230000E94340DDC01CB019C838B838B819C81DC
:10024000AA2797FDA095BA2FBC01CD010E94670D8A
:10025000DC01CB019C01AD016F81788589859A8590
:100260000E94630CDC01CB0120E030E048EC52E45A
:10027000BC01CD010E941B0EDC01CB01BC01CD01F4
:100280000E94340DDC01CB019A83898389819A8194
:1002900099233CF489819A819195819591099A835A
:1002A00089838A818F9389818F938C818F938B81AE
:1002B0008F9387E091E0892F8F9387E091E08F9370
:1002C0008E818F938D818F930E947E0E8DB79EB706
:1002D00008960FB6F894DEBF0FBECDBF8D819E810C
:1002E0002A960FB6F894DEBF0FBECDBFDF91CF9137
:1002F0000895CF93DF93CDB7DEB78BE290E02BE28A
:1003000030E0F90120812B7FFC012083DF91CF9128
:100310000895CF93DF93CDB7DEB78BE290E02BE269
:1003200030E0F90120812460FC012083DF91CF912E
:100330000895CF93DF93CDB7DEB78AE290E02AE24B
:1003400030E0F90120812460FC012083DF91CF910E
:100350000895CF93DF9300D0CDB7DEB78A838A812B
:10036000882351F08BE290E02BE230E0F90120810C
:100370002160FC01208309C08BE290E02BE230E099
:10038000F90120812E7FFC0120838BE290E02BE29B
:1003900030E0F90120812260FC0120838AE290E0B4
:1003A0002AE230E0F90120812F77FC0120838AE2E4
:1003B00090E02AE230E0F90120812F7BFC012083CC
:1003C0008AE290E02AE230E0F90120812F7DFC01F1
:1003D00020838AE290E02AE230E0F90120812F7E3A
:1003E000FC0120830E94890100C000C089E290E0E6
:1003F000FC018081282F207189E290E0FC0180813E
:100400008072282B89E290E0FC0180818074282B87
:1004100089E290E0FC0180818078822B89830E94B0
:10042000790100C000C00E94890100C000C089E2BB
:1004300090E0FC018081882F90E08071992721E075
:10044000009709F420E0222F30E089E290E0FC01DF
:100450008081882F90E080729927009719F082E0C0
:1004600090E002C080E090E0282B392B89E290E0F8
:10047000FC018081882F90E080749927009719F003
:1004800084E090E002C080E090E0282B392B89E2E4
:1004900090E0FC01808188231CF488E090E002C099
:1004A00080E090E0822B932B982F8981892B898380
:1004B0000E9479018AE290E02AE230E0F90120818D
:1004C0002068FC0120838AE290E02AE230E0F90112
:1004D00020812064FC0120838AE290E02AE230E05F
:1004E000F90120812062FC0120838AE290E02AE267
:1004F00030E0F90120812061FC0120838BE290E053
:100500002BE230E0F90120812068FC0120838BE29E
:1005100090E02BE230E0F90120812064FC0120838F
:100520008BE290E02BE230E0F90120812062FC01B7
:1005300020838BE290E02BE230E0F9012081206102
:10054000FC0120838BE290E02BE230E0F901208176
:100550002D7FFC0120838A81882329F0FAE6FA9511
:10056000F1F700C004C082E08A95F1F700C08981EC
:100570000F900F90DF91CF910895CF93DF93CDB778
:10058000DEB781E00E94A901DF91CF910895CF935A
:10059000DF9300D0CDB7DEB789836A838A81882351
:1005A00051F08BE290E02BE230E0F90120812160F4
:1005B000FC01208309C08BE290E02BE230E0F901DE
:1005C00020812E7FFC0120838981882354F48BE2D3
:1005D00090E02BE230E0F90120812068FC012083CB
:1005E00009C08BE290E02BE230E0F90120812F7707
:1005F000FC0120838981882F90E0807499270097DF
:1006000051F08BE290E02BE230E0F9012081206490
:10061000FC01208309C08BE290E02BE230E0F9017D
:1006200020812F7BFC0120838981882F90E08072BC
:100630009927009751F08BE290E02BE230E0F9012E
:1006400020812062FC01208309C08BE290E02BE234
:1006500030E0F90120812F7DFC0120838981882FE2
:1006600090E080719927009751F08BE290E02BE2A7
:1006700030E0F90120812061FC01208309C08BE278
:1006800090E02BE230E0F90120812F7EFC012083F5
:1006900000000E94890100C000C00E947901898188
:1006A000882F90E088709927009751F08BE290E0B6
:1006B0002BE230E0F90120812068FC01208309C091
:1006C0008BE290E02BE230E0F90120812F77FC01F2
:1006D00020838981882F90E084709927009751F0BA
:1006E0008BE290E02BE230E0F90120812064FC01F4
:1006F000208309C08BE290E02BE230E0F9012081F9
:100700002F7BFC0120838981882F90E082709927BC
:10071000009751F08BE290E02BE230E0F90120816C
:100720002062FC01208309C08BE290E02BE230E0E4
:10073000F90120812F7DFC0120838981882F90E0A1
:1007400081709927009751F08BE290E02BE230E026
:10075000F90120812061FC01208309C08BE290E037
:100760002BE230E0F90120812F7EFC012083000084
:100770000E94890100C000C00E9479018BE290E0D4
:100780002BE230E0F90120812068FC0120838BE21C
:1007900090E02BE230E0F90120812064FC0120830D
:1007A0008BE290E02BE230E0F90120812062FC0135
:1007B00020838BE290E02BE230E0F9012081206180
:1007C000FC0120838A81882351F48981843038F4A4
:1007D0008FEC9CE00197F1F700C0000004C09AE69E
:1007E0009A95F1F700C00F900F90DF91CF91089587
:1007F000CF93DF931F92CDB7DEB7898360E0898105
:100800000E94C7020F90DF91CF910895CF93DF939D
:100810001F92CDB7DEB78983898180580E94F80383
:100820000F90DF91CF910895CF93DF93CDB7DEB7CF
:1008300081E00E94F803DF91CF910895CF93DF9379
:10084000CDB7DEB782E00E94F803DF91CF91089523
:10085000CF93DF931F92CDB7DEB7898361E08981A3
:100860000E94C7020F90DF91CF9108951F93CF93FD
:10087000DF9300D0CDB7DEB79A83898303C0812F81
:100880000E94280489819A819C012F5F3F4F3A83FF
:100890002983FC011081112391F70F900F90DF91B4
:1008A000CF911F9108951F93CF93DF9300D000D075
:1008B0001F92CDB7DEB79D838C8303C0812F0E942A
:1008C00028048C819D819C012F5F3F4F3D832C83A9
:1008D0009A83898389819A81FC0184918B838B819E
:1008E000182F112359F70F900F900F900F900F9022
:1008F000DF91CF911F910895CF93DF93CDB7DEB7EE
:100900000E9499018AE290E02AE230E0F901208118
:100910002160FC0120838AE290E02AE230E0F901C4
:1009200020812260FC0120838AE290E02AE230E00C
:10093000F90120812068FC0120838AE290E02AE20C
:1009400030E0F90120812064FC0120838AE290E0FC
:100950002AE230E0F90120812062FC0120838AE252
:1009600090E02AE230E0F90120812061FC0120833F
:100970000E9479018BE290E02BE230E0F9012081C6
:100980002E7FFC0120838BE290E02BE230E0F90126
:1009900020812D7FFC0120838BE290E02BE230E070
:1009A000F90120812068FC0120838BE290E02BE29A
:1009B00030E0F90120812064FC0120838BE290E08B
:1009C0002BE230E0F90120812062FC0120838BE2E0
:1009D00090E02BE230E0F90120812061FC012083CE
:1009E0008FE295E70197F1F700C000008BE290E0FD
:1009F0002BE230E0F90120812F77FC0120838BE28C
:100A000090E02BE230E0F90120812F7BFC01208374
:100A100000000E94890100C000C00E94790187E0A7
:100A200090E20197F1F700C000000E94890100C028
:100A300000C00E947901E7ECF0E03197F1F700C0C7
:100A400000000E94890100C000C00E947901FAE6FE
:100A5000FA95F1F700C08BE290E02BE230E0F9016B
:100A600020812F7EFC01208300000E94890100C0AC
:100A700000C00E947901FAE6FA95F1F700C08BE216
:100A800090E02BE230E0F90120812F7EFC012083F1
:100A900000000E94890100C000C00E94790100C0CE
:100AA00000C08BE290E02BE230E0F9012081206869
:100AB000FC01208300000E94890100C000C00E9448
:100AC0007901FAE6FA95F1F700C088E00E94F80390
:100AD0000E94140486E00E94F8038CE00E94F80350
:100AE000DF91CF910895CF93DF93CDB7DEB78FE637
:100AF00090E02FE630E0F90120812160FC012083A5
:100B0000789481E890E021E830E0F90120812460C8
:100B1000FC012083DF91CF910895CF93DF93CDB770
:100B2000DEB7F89483E590E023E530E0F901208119
:100B30002160FC0120837894889583E590E023E58B
:100B400030E0F90120812E7FFC0120837894DF9131
:100B5000CF9108950F931F93CF93DF93CDB7DEB757
:100B6000C654D1090FB6F894DEBF0FBECDBF0E94A8
:100B7000E4080E9453000E947C040E94730568E010
:100B800082E00E94F30880E091E00E945C0980E02E
:100B900090E0AAE7B4E489839A83AB83BC8320E026
:100BA00030E04AEF54E469817A818B819C810E9414
:100BB0001B0EDC01CB018D839E83AF83B88720E0C1
:100BC00030E040E85FE36D817E818F8198850E94EF
:100BD000C80C88232CF481E090E09A8789873FC075
:100BE00020E03FEF4FE757E46D817E818F8198854C
:100BF0000E94170E18164CF520E030E040E251E458
:100C000069817A818B819C810E941B0EDC01CB0162
:100C1000BC01CD010E94390DDC01CB019A87898787
:100C20000FC088EC90E09C878B878B859C85019713
:100C3000F1F79C878B8789859A8501979A878987A1
:100C400089859A85009769F714C06D817E818F81AF
:100C500098850E94390DDC01CB019A8789878985A7
:100C60009A859E878D878D859E850197F1F79E8752
:100C70008D870E941E0484E191E00E94360480E08A
:100C800090E0AAE7B4E48F87988BA98BBA8B20E019
:100C900030E04AEF54E46F85788989899A890E9407
:100CA0001B0EDC01CB018B8B9C8BAD8BBE8B20E0B4
:100CB00030E040E85FE36B897C898D899E890E94E2
:100CC000C80C88232CF481E090E0988F8F8B3FC074
:100CD00020E03FEF4FE757E46B897C898D899E893F
:100CE0000E94170E18164CF520E030E040E251E467
:100CF0006F85788989899A890E941B0EDC01CB0156
:100D0000BC01CD010E94390DDC01CB01988F8F8B86
:100D10000FC088EC90E09A8F898F898D9A8D01970A
:100D2000F1F79A8F898F8F89988D0197988F8F8B84
:100D30008F89988D009769F714C06B897C898D899C
:100D40009E890E94390DDC01CB01988F8F8B8F8992
:100D5000988D9C8F8B8F8B8D9C8D0197F1F79C8F3D
:100D60008B8F0E94140480910501909106018130BF
:100D7000910509F0E0C185E290E025E230E0F9015B
:100D800020812260FC01208380E090E0A8ECB2E4A6
:100D90008D8F9E8FAF8FB8A320E030E04AEF54E4F0
:100DA0006D8D7E8D8F8D98A10E941B0EDC01CB0175
:100DB00089A39AA3ABA3BCA320E030E040E85FE3A3
:100DC00069A17AA18BA19CA10E94C80C88232CF454
:100DD00081E090E09EA38DA33FC020E03FEF4FE76E
:100DE00057E469A17AA18BA19CA10E94170E181645
:100DF0004CF520E030E040E251E46D8D7E8D8F8D2A
:100E000098A10E941B0EDC01CB01BC01CD010E9408
:100E1000390DDC01CB019EA38DA30FC088EC90E0BF
:100E200098A78FA38FA198A50197F1F798A78FA3F3
:100E30008DA19EA101979EA38DA38DA19EA1009738
:100E400069F714C069A17AA18BA19CA10E94390DF8
:100E5000DC01CB019EA38DA38DA19EA19AA789A79A
:100E600089A59AA50197F1F79AA789A785E290E04D
:100E700025E230E0F90120812D7FFC01208380E014
:100E800090E0A8ECB2E48BA79CA7ADA7BEA720E09A
:100E900030E04AEF54E46BA57CA58DA59EA50E9489
:100EA0001B0EDC01CB018FA798ABA9ABBAAB20E03E
:100EB00030E040E85FE36FA578A989A99AA90E946C
:100EC000C80C88232CF481E090E09CAB8BAB3FC036
:100ED00020E03FEF4FE757E46FA578A989A99AA9C9
:100EE0000E94170E18164CF520E030E040E251E465
:100EF0006BA57CA58DA59EA50E941B0EDC01CB01D8
:100F0000BC01CD010E94390DDC01CB019CAB8BAB48
:100F10000FC088EC90E09EAB8DAB8DA99EA9019788
:100F2000F1F79EAB8DAB8BA99CA901979CAB8BABCA
:100F30008BA99CA9009769F714C06FA578A989A906
:100F40009AA90E94390DDC01CB019CAB8BAB8BA91C
:100F50009CA998AF8FAB8FA998AD0197F1F798AF87
:100F60008FAB0E94C900DC01CB01809324019093D8
:100F70002501A0932601B09327010E941E048091B1
:100F8000240190912501A0912601B0912701BC0177
:100F9000CD010E9406010E943604809124019091A7
:100FA0002501A0912601B0912701BC01CD010E942D
:100FB00006010E94F10900000E941E0A8823E1F741
:100FC00080E090E0A8ECB2E489AF9AAFABAFBCAFE1
:100FD00020E030E04AEF54E469AD7AAD8BAD9CADD2
:100FE0000E941B0EDC01CB019E01235C3F4FF901E7
:100FF00080839183A283B38320E030E040E85FE305
:10100000CE01CD96FC0160817181828193810E9425
:10101000C80C88234CF4CE018F5B9F4F21E030E059
:10102000FC013183208367C020E03FEF4FE757E4A6
:10103000CE01CD96FC0160817181828193810E94F5
:10104000170E18160CF046C020E030E040E251E4E4
:1010500069AD7AAD8BAD9CAD0E941B0EDC01CB015E
:101060008E010F5B1F4FBC01CD010E94390DDC01C9
:10107000CB01F8019183808324C0CE018D5B9F4F0B
:1010800028EC30E0FC0131832083CE018D5B9F4F43
:10109000FC01808191810197F1F79E012D5B3F4F0B
:1010A000F90191838083CE018F5B9F4F9E012F5B5F
:1010B0003F4FF9012081318121503109FC013183F9
:1010C0002083CE018F5B9F4FFC018081918100972F
:1010D000A1F62BC08E010F5B1F4FCE01CD96FC01F8
:1010E00060817181828193810E94390DDC01CB0185
:1010F000F80191838083CE018B5B9F4F9E012F5B14
:101100003F4FF90120813181FC0131832083CE01E1
:101110008B5B9F4FFC01808191810197F1F79E01CC
:101120002B5B3F4FF901918380831092060110924F
:1011300005010E948D0517CE1F920F9200905F004F
:101140000F9211248F939F93AF93BF93CF93DF930D
:10115000CDB7DEB78091200190912101A0912201AD
:10116000B09123010196A11DB11D809320019093A0
:101170002101A0932201B09323018091200190913D
:101180002101A0912201B091230185309105A10593
:10119000B10574F081E090E0909306018093050121
:1011A000109220011092210110922201109223012D
:1011B000DF91CF91BF91AF919F918F910F9000924E
:1011C0005F000F901F901895CF93DF93CDB7DEB7D8
:1011D0000E94A30B80E00E94D70B81E00E94F70BD6
:1011E000DF91CF910895CF93DF9300D0CDB7DEB7D5
:1011F00089836A838A8180933001698185E00E94B6
:10120000450B60E081E10E94450B80913001682F21
:1012100082E10E94450B60E083E10E94450B60E0A3
:1012200084E10E94450B60E085E10E94450B60E08F
:1012300086E10E94450B66E086E00E94450B68E06F
:1012400080E00E94450B63E081E00E94450B63E073
:1012500082E00E94450B6FE484E00E94450B60E051
:101260008CE10E94450B0E94670A0F900F90DF915E
:10127000CF910895CF93DF9300D0CDB7DEB79A8397
:10128000898380E00E94D70B89819A8145E0BC0167
:101290008BE00E94820B81E00E94D70B0F900F9091
:1012A000DF91CF910895CF93DF93CDB7DEB78091D3
:1012B0003001DF91CF910895CF93DF9300D0CDB768
:1012C000DEB79A83898389819A8145E0BC018AE0EF
:1012D0000E94820B89819A8145E0BC0180E10E94D5
:1012E000820B0F900F90DF91CF910895CF93DF93F2
:1012F0001F92CDB7DEB70E94340A89838981882F77
:1013000090E080749927009711F081E007C00E9457
:101310009209982F81E0992309F080E00F90DF91E6
:10132000CF910895CF93DF931F92CDB7DEB741E001
:10133000CE010196BC0187E10E945F0B898181701B
:101340000F90DF91CF910895CF93DF931F92CDB788
:10135000DEB780E00E94F70B80E60E94A20A80E0E0
:101360000E94A20A898381E00E94F70B89810F9075
:10137000DF91CF910895CF93DF9300D0CDB7DEB743
:101380009A83898380E00E94F70B81E60E94A20A7B
:101390004091300129813A8189819A81B9010E9465
:1013A000EA0A81E00E94F70B60E487E00E94450BA7
:1013B0000F900F90DF91CF910895CF93DF931F92FD
:1013C000CDB7DEB741E0CE010196BC0188E00E94B6
:1013D0005F0B89818F70898389810F90DF91CF9115
:1013E0000895CF93DF9300D0CDB7DEB79A8389837A
:1013F00080E00E94D70B0E94850A80E00E94F70BD4
:1014000081EE0E94A20A81E00E94F70B80E00E9418
:10141000F70B80EA0E94A20A2091300189819A810B
:10142000622F0E94210B81E00E94F70B81E00E9455
:10143000D70B0F900F90DF91CF910895CF93DF934B
:101440001F92CDB7DEB70E94340A89838981882F25
:1014500090E080739927009711F080E001C081E04F
:101460000F90DF91CF910895CF93DF931F92CDB767
:10147000DEB780E00E94F70B8FEF0E94A20A8983FB
:1014800081E00E94F70B89810F90DF91CF91089541
:10149000CF93DF931F92CDB7DEB70E94340A8983C2
:1014A0008981882F90E080729927009711F080E061
:1014B0000AC08981882F90E080719927009711F0E8
:1014C00081E001C08FEF0F90DF91CF910895CF930E
:1014D000DF93CDB7DEB780E00E94F70B82EE0E946B
:1014E000A20A81E00E94F70B60E787E00E94450BAB
:1014F00080E00E94D70B6BE080E00E94450B81E00A
:101500000E94D70BDF91CF910895CF93DF93CDB792
:10151000DEB760E787E00E94450B6AE080E00E944A
:10152000450BDF91CF910895CF93DF93CDB7DEB711
:1015300080E00E94D70B68E080E00E94450BDF91BD
:10154000CF910895CF93DF9300D01F92CDB7DEB730
:101550008B8319821A8280E00E94170C198230C096
:101560008B81882F90E02981222F30E047E050E0E6
:10157000BA01621B730B9B01022E02C095958795E1
:101580000A94E2F781709927009721F081E00E9488
:10159000370C03C080E00E94370C81E00E94170CDA
:1015A0008A81880F8A830E94570C882319F08A81C8
:1015B00081608A8380E00E94170C89818F5F898314
:1015C0008981883068F28A810F900F900F90DF91A7
:1015D000CF9108950F931F93CF93DF9300D000D046
:1015E00000D0CDB7DEB79B838A837D836C834E8327
:1015F000198218C08981882F90E02C813D81890152
:10160000080F191F8981882F90E02A813B81820F62
:10161000931FFC0180810E94A20AF80180838981C6
:101620008F5F898399818E81981720F326960FB654
:10163000F894DEBF0FBECDBFDF91CF911F910F9108
:101640000895CF93DF9300D000D0CDB7DEB79B8352
:101650008A836C8319820EC08981882F90E02A8149
:101660003B81820F931FFC0180810E94A20A898125
:101670008F5F898399818C81981770F30F900F90F9
:101680000F900F90DF91CF910895CF93DF9300D00B
:10169000CDB7DEB789836A8380E00E94F70B89812A
:1016A0008F7180620E94A20A8A810E94A20A81E050
:1016B0000E94F70B0F900F90DF91CF910895CF9379
:1016C000DF9300D000D0CDB7DEB789837B836A83F8
:1016D0004C8380E00E94F70B89818F710E94A20ADF
:1016E0002A813B818A819B814C81B9010E94EA0A4F
:1016F00081E00E94F70B0F900F900F900F90DF91F9
:10170000CF910895CF93DF9300D000D0CDB7DEB74F
:1017100089837B836A834C8380E00E94F70B8981F5
:101720008F7180620E94A20A8A819B816C810E94D3
:10173000210B81E00E94F70B0F900F900F900F90FC
:10174000DF91CF910895CF93DF93CDB7DEB787E2D6
:1017500090E027E230E0F90120812062FC01208343
:1017600087E290E027E230E0F90120812061FC016E
:10177000208384E290E024E230E0F90120812062BD
:10178000FC01208384E290E024E230E0F901208132
:101790002860FC01208384E290E024E230E0F9013B
:1017A00020812F7EFC012083DF91CF910895CF937C
:1017B000DF931F92CDB7DEB789838981882351F0EB
:1017C00088E290E028E230E0F90120812062FC010B
:1017D000208309C088E290E028E230E0F90120810E
:1017E0002F7DFC0120830F90DF91CF910895CF933F
:1017F000DF931F92CDB7DEB789838981882351F0AB
:1018000088E290E028E230E0F90120812061FC01CB
:10181000208309C088E290E028E230E0F9012081CD
:101820002F7EFC0120830F90DF91CF910895CF93FD
:10183000DF931F92CDB7DEB789838981882351F06A
:1018400085E290E025E230E0F90120812062FC0190
:10185000208309C085E290E025E230E0F901208193
:101860002F7DFC0120830F90DF91CF910895CF93BE
:10187000DF931F92CDB7DEB789838981882351F02A
:1018800085E290E025E230E0F90120812860FC014A
:10189000208309C085E290E025E230E0F901208153
:1018A000277FFC0120830F90DF91CF910895CF9384
:1018B000DF93CDB7DEB783E290E0FC0180818071D9
:1018C000DF91CF9108955058BB27AA270ED075C13C
:1018D00066D130F06BD120F031F49F3F11F41EF44B
:1018E0005BC10EF4E095E7FB51C1E92F77D180F39E
:1018F000BA17620773078407950718F071F49EF50D
:101900008FC10EF4E0950B2EBA2FA02D0B01B9015B
:1019100090010C01CA01A0011124FF27591B99F065
:10192000593F50F4503E68F11A16F040A22F232F71
:10193000342F4427585FF3CF469537952795A795C1
:10194000F0405395C9F77EF41F16BA0B620B730B68
:10195000840BBAF09150A1F0FF0FBB1F661F771FD9
:10196000881FC2F70EC0BA0F621F731F841F48F48E
:10197000879577956795B795F7959E3F08F0B3CF14
:101980009395880F08F09927EE0F979587950895FE
:10199000D9D008F481E008950CD00FC107D140F0F0
:1019A000FED030F021F45F3F19F0F0C0511139C181
:1019B000F3C014D198F39923C9F35523B1F3951BC0
:1019C000550BBB27AA2762177307840738F09F5F60
:1019D0005F4F220F331F441FAA1FA9F333D00E2ECF
:1019E0003AF0E0E830D091505040E695001CCAF73C
:1019F00029D0FE2F27D0660F771F881FBB1F261701
:101A000037074807AB07B0E809F0BB0B802DBF01D3
:101A1000FF2793585F4F2AF09E3F510568F0B6C0EC
:101A200000C15F3FECF3983EDCF3869577956795B0
:101A3000B795F7959F5FC9F7880F911D9695879584
:101A400097F90895E1E0660F771F881FBB1F6217A3
:101A500073078407BA0720F0621B730B840BBA0B61
:101A6000EE1F88F7E095089504D06894B111D9C0AD
:101A70000895BCD088F09F5790F0B92F9927B7519F
:101A8000A0F0D1F0660F771F881F991F1AF0BA9542
:101A9000C9F712C0B13081F0C3D0B1E00895C0C021
:101AA000672F782F8827B85F39F0B93FCCF3869538
:101AB00077956795B395D9F73EF490958095709595
:101AC00061957F4F8F4F9F4F0895E89409C097FB12
:101AD0003EF490958095709561957F4F8F4F9F4F05
:101AE0009923A9F0F92F96E9BB279395F695879549
:101AF00077956795B795F111F8CFFAF4BB0F11F40C
:101B000060FF1BC06F5F7F4F8F4F9F4F16C08823B2
:101B100011F096E911C0772321F09EE8872F762FE8
:101B200005C0662371F096E8862F70E060E02AF029
:101B30009A95660F771F881FDAF7880F9695879515
:101B400097F90895990F0008550FAA0BE0E8FEEFEA
:101B500016161706E807F907C0F012161306E40771
:101B6000F50798F0621B730B840B950B39F40A266A
:101B700061F0232B242B252B21F408950A2609F448
:101B8000A140A6958FEF811D811D089597F99F674C
:101B900080E870E060E008959FEF80EC08950024F5
:101BA0000A941616170618060906089500240A94C2
:101BB00012161306140605060895092E0394000C48
:101BC00011F4882352F0BB0F40F4BF2B11F460FFD7
:101BD00004C06F5F7F4F8F4F9F4F089557FD905800
:101BE000440F551F59F05F3F71F04795880F97FBE1
:101BF000991F61F09F3F79F087950895121613069B
:101C00001406551FF2CF4695F1DF08C016161706C9
:101C10001806991FF1CF86957105610508940895FE
:101C2000E894BB2766277727CB0197F908958ADFC9
:101C300008F48FEF08950BD0C0CFB1DF28F0B6DFE6
:101C400018F0952309F0A2CFA7CF1124EACFC6DF61
:101C5000A0F3959FD1F3950F50E0551F629FF001BF
:101C6000729FBB27F00DB11D639FAA27F00DB11D18
:101C7000AA1F649F6627B00DA11D661F829F2227A1
:101C8000B00DA11D621F739FB00DA11D621F839F28
:101C9000A00D611D221F749F3327A00D611D231FFE
:101CA000849F600D211D822F762F6A2F11249F574C
:101CB00050408AF0E1F088234AF0EE0FFF1FBB1F6F
:101CC000661F771F881F91505040A9F79E3F51050E
:101CD00070F05CCFA6CF5F3FECF3983EDCF38695C7
:101CE00077956795B795F795E7959F5FC1F7FE2BB9
:101CF000880F911D9695879597F90895AEE0B0E00D
:101D0000E4E8FEE00C9426110D891E8986E08C83A0
:101D10001A8309838FEF9FE79E838D83AE01475E11
:101D20005F4F6F89788DCE0101960E94A00EEF81E2
:101D3000F885E00FF11F10822E96E4E00C9442111A
:101D4000ACE0B0E0E6EAFEE00C9418117C016B0117
:101D50008A01FC0117821682838181FFBDC1CE01F9
:101D600001964C01F7019381F60193FD859193FF54
:101D700081916F01882309F4ABC1853239F493FD59
:101D8000859193FF81916F01853229F4B70190E02D
:101D90000E948810E7CF512C312C20E02032A0F493
:101DA0008B3269F030F4803259F0833269F420616B
:101DB0002CC08D3239F0803339F4216026C0226086
:101DC000246023C0286021C027FD27C030ED380FD4
:101DD0003A3078F426FF06C0FAE05F9E300D1124F9
:101DE000532E13C08AE0389E300D1124332E20620A
:101DF0000CC08E3221F426FD6BC1206406C08C36E7
:101E000011F4206802C0883641F4F60193FD8591F3
:101E100093FF81916F018111C1CF982F9F7D9554C0
:101E2000933028F40C5F1F4FFFE3F9830DC0833616
:101E300031F0833771F0833509F05BC022C0F801BF
:101E4000808189830E5F1F4F44244394512C540199
:101E500015C03801F2E06F0E711CF801A080B1804E
:101E600026FF03C0652D70E002C06FEF7FEFC50154
:101E70002C870E947D102C0183012C852F77222E28
:101E800017C03801F2E06F0E711CF801A080B1801C
:101E900026FF03C0652D70E002C06FEF7FEFC50124
:101EA0002C870E9472102C012C852068222E830121
:101EB00023FC1BC0832D90E048165906B0F4B701EF
:101EC00080E290E00E9488103A94F4CFF50127FC5C
:101ED000859127FE81915F01B70190E00E948810F3
:101EE00031103A94F1E04F1A51084114510471F73E
:101EF000E5C0843611F0893639F5F80127FF07C0AF
:101F000060817181828193810C5F1F4F08C0608165
:101F10007181882777FD8095982F0E5F1F4F2F7650
:101F2000B22E97FF09C090958095709561957F4F6F
:101F30008F4F9F4F2068B22E2AE030E0A4010E940C
:101F4000BA10A82EA81844C0853729F42F7EB22EC7
:101F50002AE030E025C0F22FF97FBF2E8F36C1F086
:101F600018F4883579F0B4C0803719F0883721F03B
:101F7000AFC02F2F2061B22EB4FE0DC08B2D846018
:101F8000B82E09C024FF0AC09F2F9660B92E06C044
:101F900028E030E005C020E130E002C020E132E07E
:101FA000F801B7FE07C060817181828193810C5F67
:101FB0001F4F06C06081718180E090E00E5F1F4F6F
:101FC000A4010E94BA10A82EA818FB2DFF77BF2EDF
:101FD000B6FE0BC02B2D2E7FA51450F4B4FE0AC004
:101FE000B2FC08C02B2D2E7E05C07A2C2B2D03C0F1
:101FF0007A2C01C0752C24FF0DC0FE01EA0DF11DE5
:102000008081803311F4297E09C022FF06C07394B9
:10201000739404C0822F867809F0739423FD13C053
:1020200020FF06C05A2C731418F4530C5718732C45
:10203000731468F4B70180E290E02C870E94881046
:1020400073942C85F5CF731410F4371801C0312C1C
:1020500024FF12C0B70180E390E02C870E94881013
:102060002C8522FF17C021FF03C088E590E002C045
:1020700088E790E0B7010CC0822F867859F021FDE7
:1020800002C080E201C08BE227FD8DE2B70190E043
:102090000E948810A51438F4B70180E390E00E94F4
:1020A00088105A94F7CFAA94F401EA0DF11D8081AB
:1020B000B70190E00E948810A110F5CF332009F4F9
:1020C00051CEB70180E290E00E9488103A94F6CF9A
:1020D000F7018681978102C08FEF9FEF2C96E2E196
:1020E0000C943411FC010590615070400110D8F738
:1020F000809590958E0F9F1F0895FC016150704050
:1021000001900110D8F7809590958E0F9F1F08952C
:102110000F931F93CF93DF93182F092FEB018B8120
:1021200081FD03C08FEF9FEF20C082FF10C04E8162
:102130005F812C813D81421753077CF4E881F9814E
:102140009F012F5F3F4F39832883108306C0E885A6
:10215000F985812F0995892B29F72E813F812F5FE2
:102160003F4F3F832E83812F902FDF91CF911F917F
:102170000F910895FA01AA27283051F1203181F1F9
:10218000E8946F936E7F6E5F7F4F8F4F9F4FAF4F7F
:10219000B1E03ED0B4E03CD0670F781F891F9A1F92
:1021A000A11D680F791F8A1F911DA11D6A0F711D46
:1021B000811D911DA11D20D009F468943F912AE052
:1021C000269F11243019305D3193DEF6CF0108953A
:1021D000462F4770405D4193B3E00FD0C9F7F6CF6B
:1021E000462F4F70405D4A3318F0495D31FD405233
:1021F000419302D0A9F7EACFB4E0A69597958795C9
:1022000077956795BA95C9F70097610571050895A7
:102210009B01AC010A2E0694579547953795279553
:10222000BA95C9F7620F731F841F951FA01D0895EB
:102230002F923F924F925F926F927F928F929F92D6
:10224000AF92BF92CF92DF92EF92FF920F931F93C4
:10225000CF93DF93CDB7DEB7CA1BDB0B0FB6F89475
:10226000DEBF0FBECDBF09942A88398848885F84B5
:102270006E847D848C849B84AA84B984C884DF8026
:10228000EE80FD800C811B81AA81B981CE0FD11D0A
:102290000FB6F894DEBF0FBECDBFED010895F894E0
:0222A000FFCF6E
:1022A200E7E7E7E7E70100253032642E25303264A4
:1022B2002043000048656C6C6F20576F726C64009D
:00000001FF
