:100000000C9434000C9451000C9451000C94510049
:100010000C9451000C9451000C9451000C9451001C
:100020000C9451000C94DC100C9451000C94510071
:100030000C9451000C9451000C9451000C945100FC
:100040000C9451000C9451000C9434080C948108C9
:100050000C9451000C9451000C9451000C945100DC
:100060000C9451000C94510011241FBECFEFD8E026
:10007000DEBFCDBF11E0A0E0B1E0E4E4FEE202C0EB
:1000800005900D92A035B107D9F711E0A0E5B1E0D8
:1000900001C01D92AE39B107E1F70E947F0F0C94A9
:1000A00020170C9400000F931F93CF93DF93CDB7CD
:1000B000DEB7C954D1090FB6F894DEBF0FBECDBF6D
:1000C00088E290E028E230E0F90120812B7FFC01FA
:1000D000208387E290E027E230E0F901208124606C
:1000E000FC01208380E090E0A0EFB3E48A839B834F
:1000F000AC83BD832EE333EC4EE25DE36A817B810A
:100100008C819D810E94B312DC01CB018E839F8381
:10011000A887B98720E030E040E85FE36E817F8107
:10012000888599850E94601188231CF481E08A8764
:1001300091C020E030E04FE753E46E817F818885F5
:1001400099850E94AF1218160CF07BC020E030E0B9
:100150004AE754E46A817B818C819D810E9464110D
:10016000DC01CB018B879C87AD87BE8720E030E028
:1001700040E052E46B857C858D859E850E94B3129C
:10018000DC01CB018F87988BA98BBA8B20E030E004
:1001900040E85FE36F85788989899A890E946011B8
:1001A00088232CF481E090E09C8B8B8B3FC020E077
:1001B0003FEF4FE757E46F85788989899A890E94D4
:1001C000AF1218164CF520E030E040E251E46B85A8
:1001D0007C858D859E850E94B312DC01CB01BC011C
:1001E000CD010E94D111DC01CB019C8B8B8B0FC008
:1001F00083E090E09E8B8D8B8D899E890197F1F72E
:100200009E8B8D8B8B899C8901979C8B8B8B8B898B
:100210009C89009769F724C06F85788989899A89B4
:100220000E94D111DC01CB019C8B8B8B8B899C892B
:10023000988F8F8B8F89988D0197F1F7988F8F8B7F
:100240000FC06E817F81888599850E94D111DC0164
:10025000CB018A878A85898F898D8A95F1F7898F65
:1002600087E290E027E230E0F90120812B7FFC015A
:10027000208380E090E0A0E7B2E48A8F9B8FAC8F70
:10028000BD8F2EE333EC4EE25DE36A8D7B8D8C8D6A
:100290009D8D0E94B312DC01CB018E8F9F8FA8A38E
:1002A000B9A320E030E040E85FE36E8D7F8D88A148
:1002B00099A10E94601188231CF481E08AA391C057
:1002C00020E030E04FE753E46E8D7F8D88A199A147
:1002D0000E94AF1218160CF07BC020E030E04AE715
:1002E00054E46A8D7B8D8C8D9D8D0E946411DC01A0
:1002F000CB018BA39CA3ADA3BEA320E030E040E0E4
:1003000052E46BA17CA18DA19EA10E94B312DC01DD
:10031000CB018FA398A7A9A7BAA720E030E040E8B7
:100320005FE36FA178A589A59AA50E946011882333
:100330002CF481E090E09CA78BA73FC020E03FEF2A
:100340004FE757E46FA178A589A59AA50E94AF123F
:1003500018164CF520E030E040E251E46BA17CA19E
:100360008DA19EA10E94B312DC01CB01BC01CD0185
:100370000E94D111DC01CB019CA78BA70FC083E0A9
:1003800090E09EA78DA78DA59EA50197F1F79EA74A
:100390008DA78BA59CA501979CA78BA78BA59CA53A
:1003A000009769F724C06FA178A589A59AA50E9436
:1003B000D111DC01CB019CA78BA78BA59CA598AB89
:1003C0008FA78FA598A90197F1F798AB8FA70FC0BA
:1003D0006E8D7F8D88A199A10E94D111DC01CB0186
:1003E0008AA38AA189AB89A98A95F1F789AB86E2AC
:1003F00090E0FC0180818470898380E090E0A2ED30
:10040000B3E48AAB9BABACABBDAB2EE333EC4EE2BB
:100410005DE36AA97BA98CA99DA90E94B312DC01A6
:10042000CB018EAB9FABA8AFB9AF20E030E040E886
:100430005FE36EA97FA988AD99AD0E946011882302
:100440001CF481E08AAFD4C020E030E04FE753E4F1
:100450006EA97FA988AD99AD0E94AF1218160CF055
:10046000BEC020E030E04AE754E46AA97BA98CA929
:100470009DA90E946411DC01CB018BAF9CAFADAF95
:10048000BEAF8E01015C1F4F20E030E040E052E43F
:100490006BAD7CAD8DAD9EAD0E94B312DC01CB0186
:1004A000F80180839183A283B383CE01CF9620E0AD
:1004B00030E040E85FE3FC016081718182819381DB
:1004C0000E94601188234CF4CE018D5B9F4F21E088
:1004D00030E0FC013183208367C0CE01CF9620E05D
:1004E0003FEF4FE757E4FC01608171818281938186
:1004F0000E94AF1218160CF046C020E030E040E237
:1005000051E46BAD7CAD8DAD9EAD0E94B312DC01AC
:10051000CB018E010D5B1F4FBC01CD010E94D1119B
:10052000DC01CB01F8019183808324C0CE018B5B79
:100530009F4F23E030E0FC0131832083CE018B5BB1
:100540009F4FFC01808191810197F1F79E012B5B08
:100550003F4FF90191838083CE018D5B9F4F9E01B8
:100560002D5B3F4FF9012081318121503109FC0180
:1005700031832083CE018D5B9F4FFC01808191816F
:100580000097A1F648C08E010D5B1F4FCE01CF969C
:10059000FC0160817181828193810E94D111DC0113
:1005A000CB01F80191838083CE01895B9F4F9E012F
:1005B0002D5B3F4FF90120813181FC013183208384
:1005C000CE01895B9F4FFC01808191810197F1F7FA
:1005D0009E01295B3F4FF901918380831CC06EA966
:1005E0007FA988AD99AD0E94D111DC01CB018AAF02
:1005F000CE01875B9F4F2AADFC012083CE01875B34
:100600009F4FFC018081282F2A95F1F7CE01875B4F
:100610009F4FFC0120838981C75BDF4F0FB6F894A1
:10062000DEBF0FBECDBFDF91CF911F910F91089517
:10063000CF93DF93CDB7DEB7E1970FB6F894DEBF67
:100640000FBECDBF89AB88E290E028E230E0F9012F
:1006500020812B7FFC01208387E290E027E230E0BD
:10066000F90120812460FC01208380E090E0A0E873
:10067000BFE389839A83AB83BC832EE333EC4EE2E2
:100680005DE369817A818B819C810E94B312DC01D8
:10069000CB018D839E83AF83B88720E030E040E8B4
:1006A0005FE36D817E818F8198850E946011882330
:1006B0001CF481E0898791C020E030E04FE753E4EB
:1006C0006D817E818F8198850E94AF1218160CF083
:1006D0007BC020E030E04AE754E469817A818B8175
:1006E0009C810E946411DC01CB018A879B87AC87C7
:1006F000BD8720E030E040E052E46A857B858C8550
:100700009D850E94B312DC01CB018E879F87A88B49
:10071000B98B20E030E040E85FE36E857F85888913
:1007200099890E94601188232CF481E090E09B8BD2
:100730008A8B3FC020E03FEF4FE757E46E857F850F
:10074000888999890E94AF1218164CF520E030E094
:1007500040E251E46A857B858C859D850E94B312B9
:10076000DC01CB01BC01CD010E94D111DC01CB0128
:100770009B8B8A8B0FC083E090E09D8B8C8B8C8948
:100780009D890197F1F79D8B8C8B8A899B890197B5
:100790009B8B8A8B8A899B89009769F724C06E8519
:1007A0007F85888999890E94D111DC01CB019B8BBF
:1007B0008A8B8A899B899F8B8E8B8E899F890197D3
:1007C000F1F79F8B8E8B0FC06D817E818F81988515
:1007D0000E94D111DC01CB0189878985888F888DA2
:1007E0008A95F1F7888F89A9882349F087E290E0FC
:1007F00027E230E0F90120812B7FFC01208380E09B
:1008000090E0A0E7B2E4898F9A8FAB8FBC8F2EE384
:1008100033EC4EE25DE3698D7A8D8B8D9C8D0E9469
:10082000B312DC01CB018D8F9E8FAF8FB8A320E078
:1008300030E040E85FE36D8D7E8D8F8D98A10E9442
:10084000601188231CF481E089A391C020E030E08E
:100850004FE753E46D8D7E8D8F8D98A10E94AF126E
:1008600018160CF07BC020E030E04AE754E4698DB4
:100870007A8D8B8D9C8D0E946411DC01CB018AA343
:100880009BA3ACA3BDA320E030E040E052E46AA10A
:100890007BA18CA19DA10E94B312DC01CB018EA390
:1008A0009FA3A8A7B9A720E030E040E85FE36EA1CE
:1008B0007FA188A599A50E94601188232CF481E06E
:1008C00090E09BA78AA73FC020E03FEF4FE757E4A7
:1008D0006EA17FA188A599A50E94AF1218164CF5AC
:1008E00020E030E040E251E46AA17BA18CA19DA10F
:1008F0000E94B312DC01CB01BC01CD010E94D111D9
:10090000DC01CB019BA78AA70FC083E090E09DA7E5
:100910008CA78CA59DA50197F1F79DA78CA78AA50B
:100920009BA501979BA78AA78AA59BA5009769F716
:1009300024C06EA17FA188A599A50E94D111DC01D8
:10094000CB019BA78AA78AA59BA59FA78EA78EA54B
:100950009FA50197F1F79FA78EA70FC06D8D7E8D84
:100960008F8D98A10E94D111DC01CB0189A389A1AF
:1009700088AB88A98A95F1F788AB87E290E027E2F7
:1009800030E0F90120812B7FFC012083E1960FB636
:10099000F894DEBF0FBECDBFDF91CF9108950F93C6
:1009A0001F93CF93DF93CDB7DEB7C954D1090FB6EC
:1009B000F894DEBF0FBECDBF198288E290E028E236
:1009C00030E0F90120812B7FFC01208387E290E059
:1009D00027E230E0F90120812460FC01208380E0DF
:1009E00090E0A0E8BFE38A839B83AC83BD832EE3C2
:1009F00033EC4EE25DE36A817B818C819D810E94B4
:100A0000B312DC01CB018E839F83A887B98720E0D6
:100A100030E040E85FE36E817F81888599850E94A0
:100A2000601188231CF481E08A8791C020E030E0C7
:100A30004FE753E46E817F81888599850E94AF12CC
:100A400018160CF07BC020E030E04AE754E46A81DD
:100A50007B818C819D810E946411DC01CB018B879D
:100A60009C87AD87BE8720E030E040E052E46B8594
:100A70007C858D859E850E94B312DC01CB018F871A
:100A8000988BA98BBA8B20E030E040E85FE36F855C
:100A9000788989899A890E94601188232CF481E0E1
:100AA00090E09C8B8B8B3FC020E03FEF4FE757E4FB
:100AB0006F85788989899A890E94AF1218164CF53A
:100AC00020E030E040E251E46B857C858D859E8599
:100AD0000E94B312DC01CB01BC01CD010E94D111F7
:100AE000DC01CB019C8B8B8B0FC083E090E09E8B55
:100AF0008D8B8D899E890197F1F79E8B8D8B8B89CC
:100B00009C8901979C8B8B8B8B899C89009769F7BB
:100B100024C06F85788989899A890E94D111DC0166
:100B2000CB019C8B8B8B8B899C89988F8F8B8F892A
:100B3000988D0197F1F7988F8F8B0FC06E817F8111
:100B4000888599850E94D111DC01CB018A878A852D
:100B5000898F898D8A95F1F7898F87E290E027E266
:100B600030E0F90120812B7FFC01208380E090E0C0
:100B7000A0E6B1E48A8F9B8FAC8FBD8F2EE333EC60
:100B80004EE25DE36A8D7B8D8C8D9D8D0E94B3124C
:100B9000DC01CB018E8F9F8FA8A3B9A320E030E0AA
:100BA00040E85FE36E8D7F8D88A199A10E9460115E
:100BB00088231CF481E08AA391C020E030E04FE755
:100BC00053E46E8D7F8D88A199A10E94AF121816F3
:100BD0000CF07BC020E030E04AE754E46A8D7B8D66
:100BE0008C8D9D8D0E946411DC01CB018BA39CA395
:100BF000ADA3BEA320E030E040E052E46BA17CA1B5
:100C00008DA19EA10E94B312DC01CB018FA398A7F6
:100C1000A9A7BAA720E030E040E85FE36FA178A57C
:100C200089A59AA50E94601188232CF481E090E0A8
:100C30009CA78BA73FC020E03FEF4FE757E46FA191
:100C400078A589A59AA50E94AF1218164CF520E048
:100C500030E040E251E46BA17CA18DA19EA10E94F5
:100C6000B312DC01CB01BC01CD010E94D111DC012A
:100C7000CB019CA78BA70FC083E090E09EA78DA718
:100C80008DA59EA50197F1F79EA78DA78BA59CA585
:100C900001979CA78BA78BA59CA5009769F724C0FB
:100CA0006FA178A589A59AA50E94D111DC01CB017D
:100CB0009CA78BA78BA59CA598AB8FA78FA598A960
:100CC0000197F1F798AB8FA70FC06E8D7F8D88A12C
:100CD00099A10E94D111DC01CB018AA38AA189AB21
:100CE00089A98A95F1F789AB86E290E0FC018081C1
:100CF000882F90E084709927009711F081E0898314
:100D000080E090E0A4E3B2E48AAB9BABACABBDABBC
:100D10002EE333EC4EE25DE36AA97BA98CA99DA981
:100D20000E94B312DC01CB018EAB9FABA8AFB9AF71
:100D300020E030E040E85FE36EA97FA988AD99AD7F
:100D40000E94601188231CF481E08AAFD4C020E0A7
:100D500030E04FE753E46EA97FA988AD99AD0E94BA
:100D6000AF1218160CF0BEC020E030E04AE754E4A1
:100D70006AA97BA98CA99DA90E946411DC01CB0101
:100D80008BAF9CAFADAFBEAF8E01015C1F4F20E0BB
:100D900030E040E052E46BAD7CAD8DAD9EAD0E9485
:100DA000B312DC01CB01F80180839183A283B3836A
:100DB000CE01CF9620E030E040E85FE3FC016081A7
:100DC0007181828193810E94601188234CF4CE014D
:100DD0008D5B9F4F21E030E0FC013183208367C0B1
:100DE000CE01CF9620E03FEF4FE757E4FC01608152
:100DF0007181828193810E94AF1218160CF046C057
:100E000020E030E040E251E46BAD7CAD8DAD9EADB5
:100E10000E94B312DC01CB018E010D5B1F4FBC01A0
:100E2000CD010E94D111DC01CB01F80191838083B7
:100E300024C0CE018B5B9F4F23E030E0FC01318367
:100E40002083CE018B5B9F4FFC01808191810197B4
:100E5000F1F79E012B5B3F4FF90191838083CE0117
:100E60008D5B9F4F9E012D5B3F4FF90120813181AA
:100E700021503109FC0131832083CE018D5B9F4FCE
:100E8000FC01808191810097A1F648C08E010D5B25
:100E90001F4FCE01CF96FC016081718182819381C9
:100EA0000E94D111DC01CB01F80191838083CE0136
:100EB000895B9F4F9E012D5B3F4FF901208131815E
:100EC000FC0131832083CE01895B9F4FFC0180812F
:100ED00091810197F1F79E01295B3F4FF9019183C1
:100EE00080831CC06EA97FA988AD99AD0E94D111E5
:100EF000DC01CB018AAFCE01875B9F4F2AADFC019D
:100F00002083CE01875B9F4FFC018081282F2A958B
:100F1000F1F7CE01875B9F4FFC0120838981C75B7E
:100F2000DF4F0FB6F894DEBF0FBECDBFDF91CF917C
:100F30001F910F910895CF93DF9300D0CDB7DEB707
:100F40008A8388E0898307C08A8181700E941803A0
:100F50008A8186958A8389819FEF980F9983882358
:100F600099F70F900F90DF91CF910895CF93DF9372
:100F700000D0CDB7DEB788E089831A8210C08A819D
:100F800086958A830E94CF04882F90E09695982FAB
:100F9000882797958795982F8A81892B8A838981BD
:100FA0009FEF980F9983882351F78A810F900F90B4
:100FB000DF91CF910895CF93DF9300D000D000D080
:100FC000CDB7DEB719821A821B821C82F8940E9468
:100FD00053008CEC0E949B0784E40E949B07000056
:100FE0000E94CF048823E1F30E9453008CEC0E94FE
:100FF0009B078EEB0E949B070E94B6078D830E9481
:10100000B6078E8378948E81882F90E0382F222720
:101010008D81882F90E0820F931FAA2797FDA095BE
:10102000BA2FBC01CD010E94FF11DC01CB0120E0F1
:1010300030E040E85DE3BC01CD010E94B312DC0169
:10104000CB0189839A83AB83BC8389819A81AB81ED
:10105000BC81BC01CD0126960FB6F894DEBF0FBE51
:10106000CDBFDF91CF9108951F920F9200905F0046
:101070000F9211242F938F939F93EF93FF93CF930E
:10108000DF9300D000D0CDB7DEB780EC90E0FC015C
:1010900080818A8386EC90E0FC0180818B838A8149
:1010A00088718983809192018F5F8F718C83809189
:1010B00093019C81981719F482E089830BC08C817D
:1010C000809392018C81882F90E080599E4F2B81D4
:1010D000FC012083909194018981892B8093940154
:1010E0000F900F900F900F90DF91CF91FF91EF91A4
:1010F0009F918F912F910F9000925F000F901F9002
:1011000018951F920F9200905F000F9211242F9359
:101110003F938F939F93EF93FF93CF93DF931F9210
:10112000CDB7DEB790919001809191019817A1F011
:10113000809191018F5F8F71898389818093910163
:1011400086EC90E02981222F30E0205B3E4FF901B0
:101150002081FC01208309C081EC90E021EC30E08B
:10116000F90120812F7DFC0120830F90DF91CF9129
:10117000FF91EF919F918F913F912F910F9000924E
:101180005F000F901F901895CF93DF9300D0CDB7DD
:10119000DEB79A8389831092900110929101109288
:1011A00092011092930189819A81992354F480ECE1
:1011B00090E022E0FC01208389819A819F779A83C5
:1011C000898385EC90E029813A81232F3327FC0124
:1011D000208384EC90E02981FC01208381EC90E065
:1011E00028E9FC01208382EC90E026E0FC012083CA
:1011F0000F900F90DF91CF910895CF93DF9300D0A0
:10120000CDB7DEB79091920180919301981719F4B0
:1012100080E091E017C0809193018F5F8F71898387
:101220008981809393018981882F90E080599E4F16
:10123000FC0180818A8380919401109294018A81BB
:10124000882F90E00F900F90DF91CF910895CF936A
:10125000DF9300D0CDB7DEB78A83809190018F5F96
:101260008F71898300008091910199819817D9F33A
:101270008981882F90E0805B9E4F2A81FC0120832A
:1012800089818093900181EC90E021EC30E0F901BC
:1012900020812062FC0120830F900F90DF91CF917D
:1012A0000895CF93DF9300D0CDB7DEB79A838983BB
:1012B0000BC089819A819C012F5F3F4F3A8329831C
:1012C000FC0180810E94270989819A81FC0180812B
:1012D000882379F70F900F90DF91CF9108951F9396
:1012E000CF93DF9300D000D01F92CDB7DEB79D83A0
:1012F0008C8303C0812F0E9427098C819D819C01D2
:101300002F5F3F4F3D832C839A83898389819A8104
:10131000FC0184918B838B81182F112359F70F9037
:101320000F900F900F900F90DF91CF911F91089524
:10133000CF93DF93CDB7DEB70E94710C80E00E949F
:10134000A50C81E00E94C50CDF91CF910895CF9349
:10135000DF9300D0CDB7DEB789836A838A8180931B
:101360009801698185E00E94F90B60E081E10E94AB
:10137000F90B80919801682F82E10E94F90B60E0DF
:1013800083E10E94F90B60E084E10E94F90B60E0C8
:1013900085E10E94F90B60E086E10E94F90B66E0AE
:1013A00086E00E94F90B68E080E00E94F90B63E0A0
:1013B00081E00E94F90B63E082E00E94F90B6FE488
:1013C00084E00E94F90B60E08CE10E94F90B0E941E
:1013D0001B0B0F900F90DF91CF910895CF93DF9368
:1013E00000D0CDB7DEB79A83898380E00E94A50C38
:1013F00089819A8145E0BC018BE00E94360C81E036
:101400000E94A50C0F900F90DF91CF910895CF937C
:10141000DF93CDB7DEB780919801DF91CF9108952A
:10142000CF93DF9300D0CDB7DEB79A8389838981CC
:101430009A8145E0BC018AE00E94360C89819A813C
:1014400045E0BC0180E10E94360C0F900F90DF91C7
:10145000CF910895CF93DF931F92CDB7DEB70E944F
:10146000E80A89838981882F90E080749927009702
:1014700011F081E007C00E94460A982F81E099236D
:1014800009F080E00F90DF91CF910895CF93DF9323
:101490001F92CDB7DEB741E0CE010196BC0187E1D6
:1014A0000E94130C898181700F90DF91CF91089574
:1014B000CF93DF931F92CDB7DEB780E00E94C50CBB
:1014C00080E60E94560B80E00E94560B898381E0E3
:1014D0000E94C50C89810F90DF91CF910895CF9321
:1014E000DF9300D0CDB7DEB79A83898380E00E9476
:1014F000C50C81E60E94560B4091980129813A81E2
:1015000089819A81B9010E949E0B81E00E94C50CDD
:1015100060E487E00E94F90B0F900F90DF91CF916C
:101520000895CF93DF931F92CDB7DEB741E0CE0190
:101530000196BC0188E00E94130C89818F70898319
:1015400089810F90DF91CF910895CF93DF9300D0E1
:10155000CDB7DEB79A83898380E00E94A50C0E94F4
:10156000390B80E00E94C50C81EE0E94560B81E091
:101570000E94C50C80E00E94C50C80EA0E94560BB8
:101580002091980189819A81622F0E94D50B81E078
:101590000E94C50C81E00E94A50C0F900F90DF9176
:1015A000CF910895CF93DF931F92CDB7DEB70E94FE
:1015B000E80A89838981882F90E0807399270097B2
:1015C00011F080E001C081E00F90DF91CF9108958C
:1015D000CF93DF931F92CDB7DEB780E00E94C50C9A
:1015E0008FEF0E94560B898381E00E94C50C898190
:1015F0000F90DF91CF910895CF93DF931F92CDB7D6
:10160000DEB70E94E80A89838981882F90E0807282
:101610009927009711F080E00AC08981882F90E017
:1016200080719927009711F081E001C08FEF0F9032
:10163000DF91CF910895CF93DF93CDB7DEB780E0F0
:101640000E94C50C82EE0E94560B81E00E94C50CE0
:1016500060E787E00E94F90B80E00E94A50C6BE038
:1016600080E00E94F90B81E00E94A50CDF91CF91F0
:101670000895CF93DF93CDB7DEB760E787E00E9490
:10168000F90B6AE080E00E94F90BDF91CF91089599
:10169000CF93DF93CDB7DEB780E00E94A50C68E062
:1016A00080E00E94F90BDF91CF910895CF93DF93F3
:1016B00000D01F92CDB7DEB78B8319821A8280E0EB
:1016C0000E94E50C198230C08B81882F90E029811F
:1016D000222F30E047E050E0BA01621B730B9B0100
:1016E000022E02C0959587950A94E2F7817099279A
:1016F000009721F081E00E94050D03C080E00E9468
:10170000050D81E00E94E50C8A81880F8A830E9482
:10171000250D882319F08A8181608A8380E00E94E8
:10172000E50C89818F5F89838981883068F28A819D
:101730000F900F900F90DF91CF9108950F931F930B
:10174000CF93DF9300D000D000D0CDB7DEB79B831E
:101750008A837D836C834E83198218C08981882F88
:1017600090E02C813D818901080F191F8981882F04
:1017700090E02A813B81820F931FFC0180810E94AF
:10178000560BF801808389818F5F898399818E81CF
:10179000981720F326960FB6F894DEBF0FBECDBF84
:1017A000DF91CF911F910F910895CF93DF9300D0D8
:1017B00000D0CDB7DEB79B838A836C8319820EC0BD
:1017C0008981882F90E02A813B81820F931FFC0141
:1017D00080810E94560B89818F5F898399818C81DA
:1017E000981770F30F900F900F900F90DF91CF919B
:1017F0000895CF93DF9300D0CDB7DEB789836A8396
:1018000080E00E94C50C89818F7180620E94560B16
:101810008A810E94560B81E00E94C50C0F900F90A8
:10182000DF91CF910895CF93DF9300D000D0CDB753
:10183000DEB789837B836A834C8380E00E94C50C7A
:1018400089818F710E94560B2A813B818A819B81FD
:101850004C81B9010E949E0B81E00E94C50C0F9043
:101860000F900F900F90DF91CF910895CF93DF935A
:1018700000D000D0CDB7DEB789837B836A834C83E9
:1018800080E00E94C50C89818F7180620E94560B96
:101890008A819B816C810E94D50B81E00E94C50CDE
:1018A0000F900F900F900F90DF91CF910895CF93ED
:1018B000DF931F92CDB7DEB7898389818093990129
:1018C0000F90DF91CF910895CF93DF931F92CDB703
:1018D000DEB789838981809397010F90DF91CF9143
:1018E0000895CF93DF93CDB7DEB787E290E027E28C
:1018F00030E0F90120812062FC01208387E290E042
:1019000027E230E0F90120812061FC01208384E29C
:1019100090E024E230E0F90120812062FC01208384
:1019200084E290E024E230E0F90120812860FC01AB
:10193000208384E290E024E230E0F90120812F7ED0
:10194000FC012083DF91CF910895CF93DF931F9205
:10195000CDB7DEB789838981882351F088E290E092
:1019600028E230E0F90120812062FC01208309C0D7
:1019700088E290E028E230E0F90120812F7DFC012F
:1019800020830F90DF91CF910895CF93DF931F9223
:10199000CDB7DEB789838981882351F088E290E052
:1019A00028E230E0F90120812061FC01208309C098
:1019B00088E290E028E230E0F90120812F7EFC01EE
:1019C00020830F90DF91CF910895CF93DF931F92E3
:1019D000CDB7DEB789838981882351F085E290E015
:1019E00025E230E0F90120812062FC01208309C05A
:1019F00085E290E025E230E0F90120812F7DFC01B5
:101A000020830F90DF91CF910895CF93DF931F92A2
:101A1000CDB7DEB789838981882351F085E290E0D4
:101A200025E230E0F90120812860FC01208309C013
:101A300085E290E025E230E0F9012081277FFC017A
:101A400020830F90DF91CF910895CF93DF93CDB78F
:101A5000DEB783E290E0FC0180818071DF91CF915D
:101A60000895CF93DF93CDB7DEB70E949809DF9139
:101A7000CF910895CF93DF93CDB7DEB765970FB6BB
:101A8000F894DEBF0FBECDBF9D8B8C8B8C899D895A
:101A90000E948D0E8B8B8C899D890E949D0E9A834E
:101AA000898383E090E00E9416139C838B839E01C0
:101AB0002D5E3F4F8B819C81B9010E944814298182
:101AC0003A818B819C81B9010E943D148B819C815C
:101AD0000E94A50A00000E94D20A8823E1F780E054
:101AE00090E0A8ECB2E48D839E83AF83B88720E0BA
:101AF00030E040E052E46D817E818F8198850E94C4
:101B0000B312DC01CB0189879A87AB87BC8720E0C1
:101B100030E040E85FE369857A858B859C850E948B
:101B2000601188232CF481E090E09E878D873FC070
:101B300020E03FEF4FE757E469857A858B859C85E8
:101B40000E94AF1218164CF520E030E040E251E45C
:101B50006D817E818F8198850E94B312DC01CB015B
:101B6000BC01CD010E94D111DC01CB019E878D8784
:101B70000FC083E090E0988B8F878F8598890197BD
:101B8000F1F7988B8F878D859E8501979E878D872E
:101B90008D859E85009769F714C069857A858B8548
:101BA0009C850E94D111DC01CB019E878D878D859C
:101BB0009E859A8B898B89899A890197F1F79A8BEF
:101BC000898B8B819C810E94AE1365960FB6F89429
:101BD000DEBF0FBECDBFDF91CF910895CF93DF93CE
:101BE00000D000D01F92CDB7DEB780919701882F2B
:101BF00090E00E9416139A8389830E942A0A882300
:101C000021F089819A810E946F0A89819A81FC0161
:101C10002081CE010396622F0E94610E89819A81F4
:101C20009C012F5F3F4FCE010396B9010E94750EB4
:101C300089819A810E94AE138B819C81AD81BC0108
:101C40008A2F0F900F900F900F900F90DF91CF91F0
:101C50000895CF93DF9300D0CDB7DEB79A83898301
:101C600089819A810E94100A0F900F90DF91CF9185
:101C70000895CF93DF93CDB7DEB790919701809110
:101C80009901692F0E94A709DF91CF910895CF9301
:101C9000DF931F92CDB7DEB7898389810E94570CED
:101CA0000F90DF91CF910895CF93DF931F92CDB71F
:101CB000DEB7898389810E94640C0F90DF91CF91F8
:101CC0000895CF93DF9300D01F92CDB7DEB79A83EC
:101CD00089836B8389819A812B81FC0120830F90FA
:101CE0000F900F90DF91CF910895CF93DF9300D0A5
:101CF00000D0CDB7DEB79A8389837C836B838981DB
:101D00009A812B813C81FC01328321830F900F90BB
:101D10000F900F90DF91CF910895CF93DF9300D074
:101D2000CDB7DEB79A83898389819A81FC0180814E
:101D30000F900F90DF91CF910895CF93DF9300D054
:101D4000CDB7DEB79A83898389819A81FC0181812D
:101D500092810F900F90DF91CF910895CF93DF93F1
:101D6000CDB7DEB72D970FB6F894DEBF0FBECDBF4F
:101D70001F82188619861A861B861C861D861A8263
:101D800019821B821C821D821E820E94DB07DC01DD
:101D9000CB018B839C83AD83BE836B817C818D81E2
:101DA0009E810E94CC11DC01CB018A838A81992714
:101DB00087FD9095A92FB92FBC01CD010E94FF117D
:101DC000DC01CB019C01AD016B817C818D819E8109
:101DD0000E94FB10DC01CB0120E030E048EC52E433
:101DE000BC01CD010E94B312DC01CB01BC01CD01CD
:101DF0000E94CC11DC01CB018983898188231CF4EA
:101E00008981819589838981282F332727FD309502
:101E10008A81992787FD9095432F4F932F93292FE0
:101E20002F938F9386E091E0892F8F9386E091E046
:101E30008F93CE010796292F2F938F930E944F14D3
:101E40008DB79EB708960FB6F894DEBF0FBECDBF14
:101E5000CE0107962D960FB6F894DEBF0FBECDBF0C
:101E6000DF91CF910895CF93DF93CDB7DEB781EBAC
:101E700090E021EB30E0F90120812460FC01208317
:101E800081EB90E021EB30E0F90120812260FC0140
:101E9000208381EB90E021EB30E0F901208121608B
:101EA000FC01208382EB90E0FC01108280E790E04F
:101EB00020E730E0F90120812160FC012083789443
:101EC000DF91CF910895CF93DF93CDB7DEB7F8942C
:101ED00083E590E023E530E0F90120812160FC01F9
:101EE00020837894889583E590E023E530E0F9013C
:101EF00020812E7FFC012083DF91CF910895CF9325
:101F0000DF93CDB7DEB76C970FB6F894DEBF0FBE88
:101F1000CDBF83E391E00E94C4080E94330F8AE2A0
:101F200090E02AE230E0F90120812068FC01208362
:101F30008BE290E02BE230E0F90120812F77FC0169
:101F4000208384E290E024E230E0F90120812260E5
:101F5000FC01208385E290E025E230E0F901208158
:101F60002260FC01208383E590E023E530E0F90165
:101F70002081217F2660FC01208382E191E00E9484
:101F8000510980E090E0AAE7B4E489839A83AB83A7
:101F9000BC8320E030E040E052E469817A818B81AB
:101FA0009C810E94B312DC01CB018D839E83AF83A1
:101FB000B88720E030E040E85FE36D817E818F816B
:101FC00098850E94601188232CF481E090E09A8724
:101FD00089873FC020E03FEF4FE757E46D817E8166
:101FE0008F8198850E94AF1218164CF520E030E0E2
:101FF00040E251E469817A818B819C810E94B31215
:10200000DC01CB01BC01CD010E94D111DC01CB016F
:102010009A8789870FC083E090E09C878B878B85A8
:102020009C850197F1F79C878B8789859A85019715
:102030009A87898789859A85009769F714C06D8189
:102040007E818F8198850E94D111DC01CB019A8716
:10205000898789859A859E878D878D859E8501973D
:10206000F1F79E878D87809195019091960185303B
:1020700091050CF49EC082E391E00E9451091092F8
:102080009601109295018BE290E02BE230E0F9018D
:1020900020812068FC01208385E290E025E230E089
:1020A000F90120812D7FFC01208380E090E0AAE7E8
:1020B000B4E48F87988BA98BBA8B20E030E040E0A6
:1020C00052E46F85788989899A890E94B312DC016C
:1020D000CB018B8B9C8BAD8BBE8B20E030E040E83E
:1020E0005FE36B897C898D899E890E9460118823BA
:1020F0002CF481E090E0988F8F8B3FC020E03FEF81
:102100004FE757E46B897C898D899E890E94AF12C5
:1021100018164CF520E030E040E251E46F857889F4
:1021200089899A890E94B312DC01CB01BC01CD01DF
:102130000E94D111DC01CB01988F8F8B0FC083E0FF
:1021400090E09A8F898F898D9A8D0197F1F79A8FF8
:10215000898F8F89988D0197988F8F8B8F89988D14
:10216000009769F714C06B897C898D899E890E94CC
:10217000D111DC01CB01988F8F8B8F89988D9C8F2B
:102180008B8F8B8D9C8D0197F1F79C8F8B8F8BE2C2
:1021900090E02BE230E0F90120812F77FC012083D1
:1021A00085E290E025E230E0F90120812260FC0127
:1021B00020830E94630F57CF1F920F9200905F0001
:1021C0000F9211248F939F93CF93DF93CDB7DEB7F8
:1021D000809195019091960101969093960180933C
:1021E0009501DF91CF919F918F910F9000925F00A9
:1021F0000F901F9018955058BB27AA270ED075C175
:1022000066D130F06BD120F031F49F3F11F41EF411
:102210005BC10EF4E095E7FB51C1E92F77D180F364
:10222000BA17620773078407950718F071F49EF5D3
:102230008FC10EF4E0950B2EBA2FA02D0B01B90122
:1022400090010C01CA01A0011124FF27591B99F02C
:10225000593F50F4503E68F11A16F040A22F232F38
:10226000342F4427585FF3CF469537952795A79588
:10227000F0405395C9F77EF41F16BA0B620B730B2F
:10228000840BBAF09150A1F0FF0FBB1F661F771FA0
:10229000881FC2F70EC0BA0F621F731F841F48F455
:1022A000879577956795B795F7959E3F08F0B3CFDB
:1022B0009395880F08F09927EE0F979587950895C5
:1022C000D9D008F481E008950CD00FC107D140F0B7
:1022D000FED030F021F45F3F19F0F0C0511139C148
:1022E000F3C014D198F39923C9F35523B1F3951B87
:1022F000550BBB27AA2762177307840738F09F5F27
:102300005F4F220F331F441FAA1FA9F333D00E2E95
:102310003AF0E0E830D091505040E695001CCAF702
:1023200029D0FE2F27D0660F771F881FBB1F2617C7
:1023300037074807AB07B0E809F0BB0B802DBF019A
:10234000FF2793585F4F2AF09E3F510568F0B6C0B3
:1023500000C15F3FECF3983EDCF386957795679577
:10236000B795F7959F5FC9F7880F911D969587954B
:1023700097F90895E1E0660F771F881FBB1F62176A
:1023800073078407BA0720F0621B730B840BBA0B28
:10239000EE1F88F7E095089504D06894B111D9C074
:1023A0000895BCD088F09F5790F0B92F9927B75166
:1023B000A0F0D1F0660F771F881F991F1AF0BA9509
:1023C000C9F712C0B13081F0C3D0B1E00895C0C0E8
:1023D000672F782F8827B85F39F0B93FCCF38695FF
:1023E00077956795B395D9F73EF49095809570955C
:1023F00061957F4F8F4F9F4F0895E89409C097FBD9
:102400003EF490958095709561957F4F8F4F9F4FCB
:102410009923A9F0F92F96E9BB279395F69587950F
:1024200077956795B795F111F8CFFAF4BB0F11F4D2
:1024300060FF1BC06F5F7F4F8F4F9F4F16C0882379
:1024400011F096E911C0772321F09EE8872F762FAF
:1024500005C0662371F096E8862F70E060E02AF0F0
:102460009A95660F771F881FDAF7880F96958795DC
:1024700097F90895990F0008550FAA0BE0E8FEEFB1
:1024800016161706E807F907C0F012161306E40738
:10249000F50798F0621B730B840B950B39F40A2631
:1024A00061F0232B242B252B21F408950A2609F40F
:1024B000A140A6958FEF811D811D089597F99F6713
:1024C00080E870E060E008959FEF80EC08950024BC
:1024D0000A941616170618060906089500240A9489
:1024E00012161306140605060895092E0394000C0F
:1024F00011F4882352F0BB0F40F4BF2B11F460FF9E
:1025000004C06F5F7F4F8F4F9F4F089557FD9058C6
:10251000440F551F59F05F3F71F04795880F97FBA7
:10252000991F61F09F3F79F0879508951216130661
:102530001406551FF2CF4695F1DF08C01616170690
:102540001806991FF1CF86957105610508940895C5
:10255000E894BB2766277727CB0197F908958ADF90
:1025600008F48FEF08950BD0C0CFB1DF28F0B6DFAD
:1025700018F0952309F0A2CFA7CF1124EACFC6DF28
:10258000A0F3959FD1F3950F50E0551F629FF00186
:10259000729FBB27F00DB11D639FAA27F00DB11DDF
:1025A000AA1F649F6627B00DA11D661F829F222768
:1025B000B00DA11D621F739FB00DA11D621F839FEF
:1025C000A00D611D221F749F3327A00D611D231FC5
:1025D000849F600D211D822F762F6A2F11249F5713
:1025E00050408AF0E1F088234AF0EE0FFF1FBB1F36
:1025F000661F771F881F91505040A9F79E3F5105D5
:1026000070F05CCFA6CF5F3FECF3983EDCF386958D
:1026100077956795B795F795E7959F5FC1F7FE2B7F
:10262000880F911D9695879597F90895CF93DF931D
:102630008230910510F482E090E0E0919C01F091ED
:102640009D0120E030E0A0E0B0E0309739F140811A
:10265000518148175907B8F04817590771F482811A
:102660009381109729F013969C938E9312972CC008
:1026700090939D0180939C0127C02115310531F075
:102680004217530718F0A901DB0101C0EF019A01BD
:10269000BD01DF010280F381E02DD7CF2115310587
:1026A000F9F0281B390B2430310580F48A819B8195
:1026B0006115710521F0FB019383828304C090931F
:1026C0009D0180939C01FE01329644C0FE01E20F01
:1026D000F31F8193919322503109398328833AC0A3
:1026E00020919A0130919B01232B41F4209102010A
:1026F0003091030130939B0120939A0120910001B6
:10270000309101012115310541F42DB73EB74091BB
:10271000040150910501241B350BE0919A01F091C1
:102720009B01E217F307A0F42E1B3F0B2817390774
:1027300078F0AC014E5F5F4F2417350748F04E0F1D
:102740005F1F50939B0140939A018193919302C024
:10275000E0E0F0E0CF01DF91CF910895CF93DF93D8
:10276000009709F487C0FC01329713821282C0914E
:102770009C01D0919D01209781F420813181280F07
:10278000391F80919A0190919B018217930779F5E7
:10279000F0939B01E0939A016DC0DE0120E030E0F0
:1027A000AE17BF0750F412964D915C9113979D019F
:1027B0004115510509F1DA01F3CFB383A2834081BA
:1027C0005181840F951F8A179B0771F48D919C91FD
:1027D0001197840F951F02969183808312968D9195
:1027E0009C911397938382832115310529F4F093EB
:1027F0009D01E0939C013EC0D9011396FC93EE939A
:1028000012974D915D91A40FB51FEA17FB0779F45C
:1028100080819181840F951F0296D90111969C9316
:102820008E938281938113969C938E931297E0E00E
:10283000F0E08A819B81009719F0FE01EC01F9CF4D
:10284000CE01029628813981820F931F20919A012F
:1028500030919B012817390769F4309729F41092B9
:102860009D0110929C0102C013821282D0939B01A1
:10287000C0939A01DF91CF910895FB01DC010D9087
:102880000020E9F7119701900D920020E1F70895DB
:10289000FB01DC0101900D920020E1F70895AEE00C
:1028A000B0E0E5E5F4E10C94F7160D891E8986E0A9
:1028B0008C831A8309838FEF9FE79E838D83AE01FC
:1028C000475E5F4F6F89788DCE0101960E9471142B
:1028D000EF81F885E00FF11F10822E96E4E00C9452
:1028E0001317ACE0B0E0E7E7F4E10C94E9167C01E3
:1028F0006B018A01FC0117821682838181FFBDC1B1
:10290000CE0101964C01F7019381F60193FD85916B
:1029100093FF81916F01882309F4ABC1853239F4AB
:1029200093FD859193FF81916F01853229F4B70161
:1029300090E00E945916E7CF512C312C20E0203234
:10294000A0F48B3269F030F4803259F0833269F4AC
:1029500020612CC08D3239F0803339F4216026C0DB
:102960002260246023C0286021C027FD27C030EDED
:10297000380F3A3078F426FF06C0FAE05F9E300D3B
:102980001124532E13C08AE0389E300D1124332EAB
:1029900020620CC08E3221F426FD6BC1206406C07B
:1029A0008C3611F4206802C0883641F4F60193FD9C
:1029B000859193FF81916F018111C1CF982F9F7DE8
:1029C0009554933028F40C5F1F4FFFE3F9830DC03B
:1029D000833631F0833771F0833509F05BC022C054
:1029E000F801808189830E5F1F4F44244394512C4A
:1029F000540115C03801F2E06F0E711CF801A0807F
:102A0000B18026FF03C0652D70E002C06FEF7FEF3D
:102A1000C5012C870E944E162C0183012C852F772F
:102A2000222E17C03801F2E06F0E711CF801A08051
:102A3000B18026FF03C0652D70E002C06FEF7FEF0D
:102A4000C5012C870E9443162C012C852068222E5C
:102A5000830123FC1BC0832D90E048165906B0F477
:102A6000B70180E290E00E9459163A94F4CFF50144
:102A700027FC859127FE81915F01B70190E00E94BC
:102A8000591631103A94F1E04F1A5108411451048B
:102A900071F7E5C0843611F0893639F5F80127FF62
:102AA00007C060817181828193810C5F1F4F08C0D4
:102AB00060817181882777FD8095982F0E5F1F4F69
:102AC0002F76B22E97FF09C09095809570956195ED
:102AD0007F4F8F4F9F4F2068B22E2AE030E0A40135
:102AE0000E948B16A82EA81844C0853729F42F7E83
:102AF000B22E2AE030E025C0F22FF97FBF2E8F36AC
:102B0000C1F018F4883579F0B4C0803719F08837EF
:102B100021F0AFC02F2F2061B22EB4FE0DC08B2D3F
:102B20008460B82E09C024FF0AC09F2F9660B92E7A
:102B300006C028E030E005C020E130E002C020E11E
:102B400032E0F801B7FE07C0608171818281938114
:102B50000C5F1F4F06C06081718180E090E00E5FC6
:102B60001F4FA4010E948B16A82EA818FB2DFF77DB
:102B7000BF2EB6FE0BC02B2D2E7FA51450F4B4FE35
:102B80000AC0B2FC08C02B2D2E7E05C07A2C2B2D3E
:102B900003C07A2C01C0752C24FF0DC0FE01EA0D84
:102BA000F11D8081803311F4297E09C022FF06C007
:102BB0007394739404C0822F867809F0739423FD74
:102BC00013C020FF06C05A2C731418F4530C571866
:102BD000732C731468F4B70180E290E02C870E9494
:102BE000591673942C85F5CF731410F4371801C05F
:102BF000312C24FF12C0B70180E390E02C870E94A3
:102C000059162C8522FF17C021FF03C088E590E0EC
:102C100002C088E790E0B7010CC0822F867859F097
:102C200021FD02C080E201C08BE227FD8DE2B701E9
:102C300090E00E945916A51438F4B70180E390E0A3
:102C40000E9459165A94F7CFAA94F401EA0DF11D87
:102C50008081B70190E00E945916A110F5CF332072
:102C600009F451CEB70180E290E00E9459163A94DF
:102C7000F6CFF7018681978102C08FEF9FEF2C96E8
:102C8000E2E10C940517FC010590615070400110C1
:102C9000D8F7809590958E0F9F1F0895FC01615085
:102CA000704001900110D8F7809590958E0F9F1F6E
:102CB00008950F931F93CF93DF93182F092FEB01E4
:102CC0008B8181FD03C08FEF9FEF20C082FF10C07A
:102CD0004E815F812C813D81421753077CF4E8814E
:102CE000F9819F012F5F3F4F39832883108306C0EE
:102CF000E885F985812F0995892B29F72E813F8158
:102D00002F5F3F4F3F832E83812F902FDF91CF91F5
:102D10001F910F910895FA01AA27283051F120310F
:102D200081F1E8946F936E7F6E5F7F4F8F4F9F4F5F
:102D3000AF4FB1E03ED0B4E03CD0670F781F891FA1
:102D40009A1FA11D680F791F8A1F911DA11D6A0F6F
:102D5000711D811D911DA11D20D009F468943F9122
:102D60002AE0269F11243019305D3193DEF6CF0121
:102D70000895462F4770405D4193B3E00FD0C9F7E7
:102D8000F6CF462F4F70405D4A3318F0495D31FD54
:102D90004052419302D0A9F7EACFB4E0A6959795A7
:102DA000879577956795BA95C9F70097610571057D
:102DB00008959B01AC010A2E0694579547953795C7
:102DC0002795BA95C9F7620F731F841F951FA01D21
:102DD00008952F923F924F925F926F927F928F92BF
:102DE0009F92AF92BF92CF92DF92EF92FF920F939A
:102DF0001F93CF93DF93CDB7DEB7CA1BDB0B0FB6A4
:102E0000F894DEBF0FBECDBF09942A883988488860
:102E10005F846E847D848C849B84AA84B984C884F6
:102E2000DF80EE80FD800C811B81AA81B981CE0FED
:102E3000D11D0FB6F894DEBF0FBECDBFED010895D2
:042E4000F894FFCF34
:102E440000009E012000253032642E25303264209B
:102E540043000D0A496E697469616C697A61746929
:102E64006F6E20636F6D706C65746564210D0A0D5F
:102E74000A0054696D65723220696E7465727275E8
:102E840070742068617070656E6564210D0A0000BD
:00000001FF
