:100000000C9434000C9451000C9451000C94510049
:100010000C9451000C9451000C9451000C9451001C
:100020000C9451000C9451000C9451000C9451000C
:100030000C9451000C9451000C9451000C945100FC
:100040000C9451000C9451000C9451000C945100EC
:100050000C9451000C9451000C9451000C945100DC
:100060000C9451000C94510011241FBECFEFD8E026
:10007000DEBFCDBF11E0A0E0B1E0EAE4F3E102C0F1
:1000800005900D92A233B107D9F711E0A2E3B1E0D8
:1000900001C01D92A134B107E1F70E9430020C9417
:1000A000A3090C940000ECE7F0E080818064808379
:1000B000EAE7F0E0808184608083808182608083D1
:1000C00080818160808380818068808308959091A1
:1000D0007C008F70907F892B80937C0085B7826035
:1000E00085BF85B7816085BF80917A0080648093E9
:1000F0007A0080917A0086FDFCCF80917800909103
:10010000790008955A9808955A9A0895CF93DF93E5
:10011000C82FD62F662311F0589A01C05898C7FFF0
:1001200002C05F9A01C05F98C6FF02C05E9A01C01C
:100130005E98C5FF02C05D9A01C05D98C4FF02C011
:100140005C9A01C05C9800C00E94840082E08A959D
:10015000F1F700C00E948200C3FF02C05F9A01C095
:100160005F98C2FF02C05E9A01C05E98C1FF02C0E4
:100170005D9A01C05D98C0FF02C05C9A01C05C98A6
:1001800000C00E94840092E09A95F1F700C00E949E
:1001900082005F9A5E9A5D9A5C9AD11108C0C43061
:1001A00030F48FE999E10197F1F700C003C095EDB4
:1001B0009A95F1F70000DF91CF910895EF92FF92A9
:1001C0001F93CF93DF93589A599A579856985598FA
:1001D00054980E94840082E08A95F1F700C039B1FA
:1001E00099B129B119B1892F8072932F9071982BF1
:1001F0002074922B1078192B0E94820082E08A953D
:10020000F1F700C00E94840082E08A95F1F700C0F7
:1002100089B182958170C82F80E0D82F4D9903C095
:1002200020E030E002C022E030E0C22BD32B4E9918
:1002300003C020E030E002C024E030E07E01E22A8A
:10024000F32A29B1332727FD3095E901CC27DD0FAB
:10025000CC1FDD2793E0CC0FDD1F9A95E1F70E94BC
:100260008200579A569A559A549A5F9A5E9A5D9A66
:100270005C9A599885ED8A95F1F70000C7018C2B9F
:100280009D2B812BDF91CF911F91FF90EF900895CF
:1002900060E00C94860080580C94480181E00C9436
:1002A000480182E00C94480161E00C948600CF93F1
:1002B000DF93EC018991882319F00E945401FACF51
:1002C000DF91CF910895CF93DF93FC018491EF01EB
:1002D0002196882321F00E945401FE01F7CFDF917F
:1002E000CF910895529A509A519A579A569A559A80
:1002F000549A0E948200589859985F9A5E9A5D9A23
:100300005C9A8FE59AEE0197F1F700C000005F98C4
:100310005E9800C00E94840092E09A95F1F700C0B8
:100320000E9482008FE090E40197F1F700C0000086
:100330000E94840092E09A95F1F700C00E9482002A
:100340008FE891E00197F1F700C000000E9484005F
:1003500092E09A95F1F700C00E94820085ED8A959F
:10036000F1F700005C9800C00E94840092E09A952A
:10037000F1F700C00E94820085ED8A95F1F7000038
:100380005C9800C00E94840092E09A95F1F700C04A
:100390000E94820082E08A95F1F700C05F9A00C057
:1003A0000E94840092E09A95F1F700C00E948200BA
:1003B00085ED8A95F1F7000088E00E9448010E94CF
:1003C0004E0186E00E9448018CE00C9448018F9217
:1003D0009F92AF92BF92CF92DF92EF92FF924B012A
:1003E0005C010E94B0056B017C01882777FD809538
:1003F000982F0E94E3059B01AC01C501B4010E9446
:10040000E30420E030E048EC52E40E946F060E94D2
:10041000B0059B0177FF04C022273327261B370B2B
:100420003F932F93DF92CF9289E191E09F938F9337
:10043000F12CFF92E12CEF920E94D2068DB79EB76D
:1004400008960FB6F8949EBF0FBE8DBFC701FF90F0
:10045000EF90DF90CF90BF90AF909F908F900895D6
:100460000E94CA020E9453000E94720168E082E06A
:100470000E94C40384E191E00E94B3042FEF83ED56
:1004800090E3215080409040E1F700C000000E94BE
:10049000510186E291E00E9457012FEF83ED90E336
:1004A000215080409040E1F700C000000E944E01C2
:1004B00080E00E946700C0900401D0900501E090A8
:1004C0000601F09007018090100190901101A0901A
:1004D0001201B0901301BC0180E090E00E94E105A0
:1004E0002B013C0120910C0130910D0140910E0136
:1004F00050910F01C701B6010E946F06A50194013A
:100500000E9448059B01AC01C301B2010E94E304B3
:10051000A50194010E946F06A70196010E9448055B
:10052000209108013091090140910A0150910B017D
:100530000E94480560933201709333018093340127
:10054000909335010E945101609132017091330105
:1005500080913401909135010E94E7010E9457017A
:100560006091320170913301809134019091350195
:100570000E94E7010E9405040E9424038111FCCF20
:100580002FEF81EE94E0215080409040E1F700C0D1
:1005900000008ECF0E94C20480E00E94C80481E067
:1005A0000C94CE04809140010895EF92FF920F9336
:1005B0001F93CF93E82E80E00E94D40407E010E060
:1005C000C0E0F12CC701002E02C0959587950A94D2
:1005D000E2F780FF02C081E001C080E00E94DA04FF
:1005E00081E00E94D404CC0F0E94E0048111C1601C
:1005F00080E00E94D4040150110920F78C2FCF9184
:100600001F910F91FF90EF900895CF9380E00E948B
:10061000CE0480E60E94D50280E00E94D502C82F59
:1006200081E00E94CE048C2FCF910895CF9380E07B
:100630000E94CE048FEF0E94D502C82F81E00E9455
:10064000CE048C2FCF9108950E941603982F90739B
:1006500081E009F080E008950E94160385FD04C042
:1006600084FD04C08FEF089580E0089581E008952F
:10067000CF92DF92FF920F931F93CF93DF931F923E
:10068000CDB7DEB7F82E8B016C018C2D8F19841736
:1006900058F4F60181916F0149830E94D502F80157
:1006A00081938F014981F1CF0F90DF91CF911F91FD
:1006B0000F91FF90DF90CF900895EF92FF921F93DC
:1006C000CF93DF931F92CDB7DEB7182F7C018E2D0D
:1006D000811B861740F4F70181917F0169830E9495
:1006E000D5026981F4CF0F90DF91CF911F91FF90D8
:1006F000EF9008951F93CF93DF931F92CDB7DEB78E
:10070000182F80E069830E94CE04812F8F71806250
:100710000E94D5026981862F0E94D50281E00F9048
:10072000DF91CF911F910C94CE04CF93DF93EC0116
:1007300080E00E94CE0481E60E94D50240914001F3
:10074000BE01CE010E94380381E00E94CE0460E425
:1007500087E0DF91CF910C947A0380E00E94CE0471
:1007600082EE0E94D50281E00E94CE0460E787E01D
:100770000E947A0380E00E94C8046BE080E00E943F
:100780007A0381E00C94C80460934001682F85E0EF
:100790000E947A0360E081E10E947A036091400147
:1007A00082E10E947A0360E083E10E947A0360E0C4
:1007B00084E10E947A0360E085E10E947A0360E0B0
:1007C00086E10E947A0366E086E00E947A0368E090
:1007D00080E00E947A0363E081E00E947A0363E094
:1007E00082E00E947A036FE484E00E947A0360E072
:1007F0008CE10E947A030C94AD0360E787E00E94CD
:100800007A036AE080E00C947A03CF93DF93EC01E3
:1008100080E00E94C8040E94FD0380E00E94CE0494
:1008200081EE0E94D50281E00E94CE0480E00E9409
:10083000CE0480EA0E94D50260914001CE010E9460
:100840005D0381E00E94CE0481E0DF91CF910C94A2
:10085000C80480E00E94C80468E080E00C947A0339
:10086000EF92FF921F93CF93DF931F92CDB7DEB726
:10087000182F7B0180E049830E94CE04812F8F7165
:100880000E94D5024981B701C7010E94380381E067
:100890000F90DF91CF911F91FF90EF900C94CE04B9
:1008A000CF93DF931F92CDB7DEB741E0BE016F5FFC
:1008B0007F4F87E10E943004898181700F90DF9122
:1008C000CF9108950E94160386FD07C00E94500430
:1008D00091E0882319F090E001C091E0892F0895FC
:1008E000CF93DF931F92CDB7DEB741E0BE016F5FBC
:1008F0007F4F88E00E94300489818F700F90DF91D4
:10090000CF910895FF920F931F93CF93DF931F9280
:10091000CDB7DEB7F82E8B0180E049830E94CE046C
:100920008F2D8F7180620E94D5024981642FC8018A
:100930000E945D0381E00F90DF91CF911F910F9195
:10094000FF900C94CE04CF93DF93EC0180E00E94E3
:10095000C80445E0BE018BE00E94820481E0DF9183
:10096000CF910C94C804CF93DF93EC0145E0BC0118
:100970008AE00E94820445E0BE0180E1DF91CF91D0
:100980000C9482043D9A3C9A259A239A24980895BF
:10099000882311F0459A089545980895882311F009
:1009A000449A089544980895882311F02D9A089543
:1009B0002D980895882311F02B9A08952B98089567
:1009C00083B1807108955058BB27AA270ED04DC11E
:1009D0003ED130F043D120F031F49F3F11F41EF4AA
:1009E00033C10EF4E095E7FB29C1E92F4FD180F325
:1009F000BA17620773078407950718F071F49EF51C
:100A000067C10EF4E0950B2EBA2FA02D0B01B90192
:100A100090010C01CA01A0011124FF27591B99F074
:100A2000593F50F4503E68F11A16F040A22F232F80
:100A3000342F4427585FF3CF469537952795A795D0
:100A4000F0405395C9F77EF41F16BA0B620B730B77
:100A5000840BBAF09150A1F0FF0FBB1F661F771FE8
:100A6000881FC2F70EC0BA0F621F731F841F48F49D
:100A7000879577956795B795F7959E3F08F0B3CF23
:100A80009395880F08F09927EE0F9795879508950D
:100A90000CD0EBC0E3D040F0DAD030F021F45F3F6F
:100AA00019F0CCC0511115C1CFC0F0D098F39923E3
:100AB000C9F35523B1F3951B550BBB27AA27621722
:100AC0007307840738F09F5F5F4F220F331F441F67
:100AD000AA1FA9F333D00E2E3AF0E0E830D091509F
:100AE0005040E695001CCAF729D0FE2F27D0660F8C
:100AF000771F881FBB1F261737074807AB07B0E8CB
:100B000009F0BB0B802DBF01FF2793585F4F2AF0E0
:100B10009E3F510568F092C0DCC05F3FECF3983E09
:100B2000DCF3869577956795B795F7959F5FC9F73D
:100B3000880F911D9695879597F90895E1E0660FC6
:100B4000771F881FBB1F621773078407BA0720F03F
:100B5000621B730B840BBA0BEE1F88F7E0950895A8
:100B600004D06894B111B5C0089598D088F09F570B
:100B700090F0B92F9927B751A0F0D1F0660F771FE9
:100B8000881F991F1AF0BA95C9F712C0B13081F0C9
:100B90009FD0B1E008959CC0672F782F8827B85F59
:100BA00039F0B93FCCF3869577956795B395D9F72A
:100BB0003EF490958095709561957F4F8F4F9F4F34
:100BC0000895E89409C097FB3EF490958095709540
:100BD00061957F4F8F4F9F4F9923A9F0F92F96E989
:100BE000BB279395F695879577956795B795F111FE
:100BF000F8CFFAF4BB0F11F460FF1BC06F5F7F4F9B
:100C00008F4F9F4F16C0882311F096E911C07723AC
:100C100021F09EE8872F762F05C0662371F096E8B5
:100C2000862F70E060E02AF09A95660F771F881F84
:100C3000DAF7880F9695879597F9089597F99F6742
:100C400080E870E060E008959FEF80EC0895002454
:100C50000A941616170618060906089500240A9421
:100C600012161306140605060895092E0394000CA7
:100C700011F4882352F0BB0F40F4BF2B11F460FF36
:100C800004C06F5F7F4F8F4F9F4F089557FD90585F
:100C9000440F551F59F05F3F71F04795880F97FB40
:100CA000991F61F09F3F79F08795089512161306FA
:100CB0001406551FF2CF4695F1DF08C01616170629
:100CC0001806991FF1CF869571056105089408955E
:100CD000E894BB2766277727CB0197F908950BD0B7
:100CE000C4CFB5DF28F0BADF18F0952309F0A6CFFE
:100CF000ABCF1124EECFCADFA0F3959FD1F3950FB0
:100D000050E0551F629FF001729FBB27F00DB11D8F
:100D1000639FAA27F00DB11DAA1F649F6627B00D1F
:100D2000A11D661F829F2227B00DA11D621F739F08
:100D3000B00DA11D621F839FA00D611D221F749F16
:100D40003327A00D611D231F849F600D211D822F5D
:100D5000762F6A2F11249F5750408AF0E1F08823A4
:100D60004AF0EE0FFF1FBB1F661F771F881F9150B1
:100D70005040A9F79E3F510570F060CFAACF5F3F6A
:100D8000ECF3983EDCF3869577956795B795F795E4
:100D9000E7959F5FC1F7FE2B880F911D969587956C
:100DA00097F90895AEE0B0E0E8EDF6E00C947A092A
:100DB0000D891E8986E08C831A8309838FEF9FE754
:100DC0009E838D83AE01475E5F4F6F89788DCE0124
:100DD00001960E94F406EF81F885E00FF11F108262
:100DE0002E96E4E00C949609ACE0B0E0EAEFF6E071
:100DF0000C946C097C016B018A01FC01178216823C
:100E0000838181FFBDC1CE0101964C01F701938121
:100E1000F60193FD859193FF81916F01882309F479
:100E2000ABC1853239F493FD859193FF81916F01B8
:100E3000853229F4B70190E00E94DC08E7CF512CFD
:100E4000312C20E02032A0F48B3269F030F4803273
:100E500059F0833269F420612CC08D3239F080332F
:100E600039F4216026C02260246023C0286021C09C
:100E700027FD27C030ED380F3A3078F426FF06C042
:100E8000FAE05F9E300D1124532E13C08AE0389E85
:100E9000300D1124332E20620CC08E3221F426FD39
:100EA0006BC1206406C08C3611F4206802C08836FD
:100EB00041F4F60193FD859193FF81916F018111BA
:100EC000C1CF982F9F7D9554933028F40C5F1F4F0E
:100ED000FFE3F9830DC0833631F0833771F083353A
:100EE00009F05BC022C0F801808189830E5F1F4F2B
:100EF00044244394512C540115C03801F2E06F0E84
:100F0000711CF801A080B18026FF03C0652D70E040
:100F100002C06FEF7FEFC5012C870E94D1082C0122
:100F200083012C852F77222E17C03801F2E06F0E37
:100F3000711CF801A080B18026FF03C0652D70E010
:100F400002C06FEF7FEFC5012C870E94C6082C01FD
:100F50002C852068222E830123FC1BC0832D90E06A
:100F600048165906B0F4B70180E290E00E94DC0810
:100F70003A94F4CFF50127FC859127FE81915F011A
:100F8000B70190E00E94DC0831103A94F1E04F1A6A
:100F900051084114510471F7E5C0843611F08936C7
:100FA00039F5F80127FF07C0608171818281938143
:100FB0000C5F1F4F08C060817181882777FD809585
:100FC000982F0E5F1F4F2F76B22E97FF09C0909576
:100FD0008095709561957F4F8F4F9F4F2068B22EFF
:100FE0002AE030E0A4010E940E09A82EA81844C0EF
:100FF000853729F42F7EB22E2AE030E025C0F22F6B
:10100000F97FBF2E8F36C1F018F4883579F0B4C05F
:10101000803719F0883721F0AFC02F2F2061B22E12
:10102000B4FE0DC08B2D8460B82E09C024FF0AC009
:101030009F2F9660B92E06C028E030E005C020E161
:1010400030E002C020E132E0F801B7FE07C0608165
:101050007181828193810C5F1F4F06C06081718115
:1010600080E090E00E5F1F4FA4010E940E09A82EA1
:10107000A818FB2DFF77BF2EB6FE0BC02B2D2E7FA1
:10108000A51450F4B4FE0AC0B2FC08C02B2D2E7E6D
:1010900005C07A2C2B2D03C07A2C01C0752C24FF9F
:1010A0000DC0FE01EA0DF11D8081803311F4297E0F
:1010B00009C022FF06C07394739404C0822F8678FF
:1010C00009F0739423FD13C020FF06C05A2C73143B
:1010D00018F4530C5718732C731468F4B70180E29A
:1010E00090E02C870E94DC0873942C85F5CF731454
:1010F00010F4371801C0312C24FF12C0B70180E36F
:1011000090E02C870E94DC082C8522FF17C021FF6D
:1011100003C088E590E002C088E790E0B7010CC00A
:10112000822F867859F021FD02C080E201C08BE257
:1011300027FD8DE2B70190E00E94DC08A51438F489
:10114000B70180E390E00E94DC085A94F7CFAA949C
:10115000F401EA0DF11D8081B70190E00E94DC08E6
:10116000A110F5CF332009F451CEB70180E290E011
:101170000E94DC083A94F6CFF7018681978102C07D
:101180008FEF9FEF2C96E2E10C948809FC0105900B
:10119000615070400110D8F7809590958E0F9F1F79
:1011A0000895FC016150704001900110D8F78095BE
:1011B00090958E0F9F1F08950F931F93CF93DF93EA
:1011C000182F092FEB018B8181FD03C08FEF9FEF5B
:1011D00020C082FF10C04E815F812C813D8142176B
:1011E00053077CF4E881F9819F012F5F3F4F3983DA
:1011F0002883108306C0E885F985812F0995892BFE
:1012000029F72E813F812F5F3F4F3F832E83812F10
:10121000902FDF91CF911F910F910895FA01AA2786
:10122000283051F1203181F1E8946F936E7F6E5F29
:101230007F4F8F4F9F4FAF4FB1E03ED0B4E03CD0D7
:10124000670F781F891F9A1FA11D680F791F8A1FBA
:10125000911DA11D6A0F711D811D911DA11D20D021
:1012600009F468943F912AE0269F11243019305DDB
:101270003193DEF6CF010895462F4770405D4193CC
:10128000B3E00FD0C9F7F6CF462F4F70405D4A3319
:1012900018F0495D31FD4052419302D0A9F7EACFE1
:1012A000B4E0A6959795879577956795BA95C9F710
:1012B00000976105710508959B01AC010A2E069403
:1012C0005795479537952795BA95C9F7620F731FBC
:1012D000841F951FA01D08952F923F924F925F92F9
:1012E0006F927F928F929F92AF92BF92CF92DF9236
:1012F000EF92FF920F931F93CF93DF93CDB7DEB79B
:10130000CA1BDB0B0FB6F894DEBF0FBECDBF09942E
:101310002A88398848885F846E847D848C849B8485
:10132000AA84B984C884DF80EE80FD800C811B8193
:10133000AA81B981CE0FD11D0FB6F894DEBF0FBEC2
:0A134000CDBFED010895F894FFCF32
:10134A00CDCC8C3F00008044000020410000FA43CD
:10135A0000409C45E7E7E7E7E7253032642E253071
:10136A0032642043000048656C6C6F20576F726CC2
:02137A0064000D
:00000001FF
