:100000000C9434000C9451000C9451000C94510049
:100010000C9451000C9451000C9451000C9451001C
:100020000C9451000C94DF040C9451000C9451007A
:100030000C9451000C9451000C9451000C945100FC
:100040000C9451000C9451000C94CE000C94FC00C4
:100050000C9451000C9451000C9451000C945100DC
:100060000C9451000C94510011241FBECFEFD8E026
:10007000DEBFCDBF11E0A0E0B1E0E2E1F5E102C0FA
:1000800005900D92A035B107D9F711E0A0E5B1E0D8
:1000900001C01D92AE39B107E1F70E94AB040C9488
:1000A000870A0C94000042983A9A84E18A95F1F705
:1000B00000C03A9892E09A95F1F700C086B192E1BB
:1000C0009A95F1F78470089542983A9A0000811148
:1000D0003A9882E08A95F1F700C03A9808954298DC
:1000E0003A9A00003A9800C086B192E09A95F1F7EA
:1000F00082FB882780F90895CF93DF93D82FC9E03A
:10010000C15031F08D2F81700E946400D695F8CFD8
:10011000DF91CF910895CF93DF93D9E0C0E0D15024
:1001200049F00E946F0020E8829FC0011124C6950B
:10013000C82BF5CF8C2FDF91CF910895CF93F894F2
:100140000E9453008CEC0E947C0084E40E947C009E
:100150000E946F008823E1F30E9453008CEC0E9400
:100160007C008EEB0E947C000E948B00C82F0E94B6
:100170008B007894682F70E0762F66276C0F711DC6
:10018000882777FD8095982F0E948E0520E030E02B
:1001900040E85DE30E941A06CF9108951F920F92E6
:1001A0000FB60F9211242F938F939F93EF93FF938A
:1001B0008091C0009091C6008871E0915201EF5F7C
:1001C000EF7120915101E21739F0E0935201F0E014
:1001D000EB5AFE4F908301C082E090915001892B31
:1001E00080935001FF91EF919F918F912F910F90EC
:1001F0000FBE0F901F9018951F920F920FB60F927F
:1002000011248F939F93EF93FF93909154018091CA
:100210005301981769F0E0915301EF5FEF71E0939C
:100220005301F0E0EB58FE4F80818093C60005C07B
:100230008091C1008F7D8093C100FF91EF919F91CC
:100240008F910F900FBE0F901F9018951092540130
:1002500010925301109252011092510197FF04C065
:1002600022E02093C0009F779093C5008093C40044
:1002700088E98093C10086E08093C2000895909140
:10028000520180915101981781F0E0915101EF5F87
:10029000EF71E0935101F0E0EB5AFE4F80819091B5
:1002A00050011092500190E0089580E091E008958F
:1002B000909154019F5F9F71209153019217E1F338
:1002C000E92FF0E0EB58FE4F80839093540180912A
:1002D000C10080628093C1000895CF93DF93EC0149
:1002E0008991882319F00E945801FACFDF91CF91AC
:1002F0000895CF93DF93FC018491EF012196882329
:1003000021F00E945801FE01F7CFDF91CF910895AF
:100310000E94860380E00E948C0381E00C9492038B
:10032000809198010895EF92FF920F931F93CF93BE
:10033000E82E80E00E94980307E010E0C0E0F12C76
:10034000C701002E02C0959587950A94E2F780FFB9
:1003500002C081E001C080E00E949E0381E00E9413
:100360009803CC0F0E94A4038111C16080E00E9419
:1003700098030150110920F78C2FCF911F910F91F5
:10038000FF90EF900895CF9380E00E94920380E663
:100390000E94930180E00E949301C82F81E00E9497
:1003A00092038C2FCF910895CF9380E00E94920307
:1003B0008FEF0E949301C82F81E00E9492038C2F3F
:1003C000CF9108950E94D401982F907381E009F095
:1003D00080E008950E94D40185FD04C084FD04C01E
:1003E0008FEF089580E0089581E00895CF92DF9225
:1003F000FF920F931F93CF93DF931F92CDB7DEB77A
:10040000F82E8B016C018C2D8F19841758F4F6018E
:1004100081916F0149830E949301F80181938F01BB
:100420004981F1CF0F90DF91CF911F910F91FF90F4
:10043000DF90CF900895EF92FF921F93CF93DF93B9
:100440001F92CDB7DEB7182F7C018E2D811B86172A
:1004500040F4F70181917F0169830E9493016981D2
:10046000F4CF0F90DF91CF911F91FF90EF900895FF
:100470001F93CF93DF931F92CDB7DEB7182F80E085
:1004800069830E949203812F8F7180620E94930181
:100490006981862F0E94930181E00F90DF91CF91B7
:1004A0001F910C949203CF93DF93EC0180E00E94A4
:1004B000920381E60E94930140919801BE01CE0112
:1004C0000E94F60181E00E94920360E487E0DF91E0
:1004D000CF910C94380280E00E94920382EE0E9439
:1004E000930181E00E94920360E787E00E94380256
:1004F00080E00E948C036BE080E00E94380281E083
:100500000C948C0360939801682F85E00E94380258
:1005100060E081E10E9438026091980182E10E94CE
:10052000380260E083E10E94380260E084E10E94CA
:10053000380260E085E10E94380260E086E10E94B6
:10054000380266E086E00E94380268E080E00E949F
:10055000380263E081E00E94380263E082E00E949A
:1005600038026FE484E00E94380260E08CE10E946F
:1005700038020C946B0260E787E00E9438026AE060
:1005800080E00C943802CF93DF93EC0180E00E946E
:100590008C030E94BB0280E00E94920381EE0E94C5
:1005A000930181E00E94920380E00E94920380EA1E
:1005B0000E94930160919801CE010E941B0281E08C
:1005C0000E94920381E0DF91CF910C948C0380E034
:1005D0000E948C0368E080E00C943802EF92FF9256
:1005E0001F93CF93DF931F92CDB7DEB7182F7B01F8
:1005F00080E049830E949203812F8F710E949301B2
:100600004981B701C7010E94F60181E00F90DF9197
:10061000CF911F91FF90EF900C949203CF93DF93B3
:100620001F92CDB7DEB741E0BE016F5F7F4F87E11C
:100630000E94EE02898181700F90DF91CF91089521
:100640000E94D40186FD07C00E940E0391E088231A
:1006500019F090E001C091E0892F0895CF93DF93C6
:100660001F92CDB7DEB741E0BE016F5F7F4F88E0DC
:100670000E94EE0289818F700F90DF91CF910895D3
:10068000FF920F931F93CF93DF931F92CDB7DEB7E7
:10069000F82E8B0180E049830E9492038F2D8F7189
:1006A00080620E9493014981642FC8010E941B024D
:1006B00081E00F90DF91CF911F910F91FF900C94EB
:1006C0009203CF93DF93EC0180E00E948C0345E01E
:1006D000BE018BE00E94400381E0DF91CF910C943A
:1006E0008C03CF93DF93EC0145E0BC018AE00E94CC
:1006F000400345E0BE0180E1DF91CF910C944003BF
:100700008093990108958093970108953D9A3C9AAA
:10071000259A239A24980895882311F0459A0895DC
:1007200045980895882311F0449A089544980895AF
:10073000882311F02D9A08952D980895882311F09B
:100740002B9A08952B98089583B1807108950C9485
:100750008801EF92FF920F931F93CF93DF931F9225
:10076000CDB7DEB78C010E9425048983C8010E94A1
:1007700028047C0183E090E00E947D068C01BE018C
:100780006F5F7F4F0E94AF07B701C8010E94A407A7
:10079000C8010E94C3020E94E2018111FCCF8FE7D1
:1007A0009CE00197F1F700C00000C8010F90DF91B5
:1007B000CF911F910F91FF90EF900C941507EF923E
:1007C000FF920F931F93CF93DF9300D01F92CDB76B
:1007D000DEB78091970190E00E947D067C010E9427
:1007E0002003882319F0C7010E945302F701619189
:1007F0008F01CE0101960E941E04B801CE01019620
:100800000E942104C7010E94150769817A818B81AA
:100810000F900F900F90DF91CF911F910F91FF904C
:10082000EF9008950C947103609197018091990164
:100830000C9482020C9480030C948303FC0160836B
:100840000895FC01728361830895FC0180810895FD
:10085000FC01818192810895CF92DF92EF92FF9205
:100860000F931F93CF93DF93CDB7DEB727970FB6C4
:10087000F894DEBF0FBECDBF19821A821B821C8284
:100880001D821E821F820E949E006B017C010E94BD
:100890005B05162F772767FD7095872F972F0E948E
:1008A0008E059B01AC01C701B6010E94F60420E051
:1008B00030E048EC52E40E941A060E945B0567FD96
:1008C0006195262F332727FD30953F936F93812F16
:1008D000992787FD90959F931F9386E091E09F93C2
:1008E0008F938E010F5F1F4F1F930F930E94B607C8
:1008F0000FB6F894DEBF0FBECDBFC80127960FB666
:10090000F894DEBF0FBECDBFDF91CF911F910F9145
:10091000FF90EF90DF90CF900895E1EBF0E08081C1
:100920008460808380818260808380818160808315
:100930001092B200E0E7F0E08081816080837894DB
:100940000895F89483B7816083BF7894889583B7BE
:100950008E7F83BF089583E391E00E9426017894FF
:100960000E948D04579A5F98219A299A83B7817FB4
:10097000866083BF82E191E00E946D018FEF9CE76A
:100980000197F1F700C000008091950190919601C8
:10099000059794F082E391E00E946D011092960118
:1009A000109295015F9A29988FEF9CE70197F1F7D4
:1009B00000C000005F98299A0E94A104E5CF1F9211
:1009C0000F920FB60F9211248F939F9380919501F0
:1009D00090919601019690939601809395019F9135
:1009E0008F910F900FBE0F901F9018955058BB27F6
:1009F000AA270ED0E5C0D6D030F0DBD020F031F4FD
:100A00009F3F11F41EF4CBC00EF4E095E7FBC1C08C
:100A1000E92FE7D080F3BA176207730784079507B9
:100A200018F071F49EF5FFC00EF4E0950B2EBA2F6E
:100A3000A02D0B01B90190010C01CA01A0011124E4
:100A4000FF27591B99F0593F50F4503E68F11A1690
:100A5000F040A22F232F342F4427585FF3CF469521
:100A600037952795A795F0405395C9F77EF41F1643
:100A7000BA0B620B730B840BBAF09150A1F0FF0F0D
:100A8000BB1F661F771F881FC2F70EC0BA0F621FF9
:100A9000731F841F48F4879577956795B795F795E9
:100AA0009E3F08F0B3CF9395880F08F09927EE0F7B
:100AB00097958795089504D06894B111B5C00895AD
:100AC00098D088F09F5790F0B92F9927B751A0F090
:100AD000D1F0660F771F881F991F1AF0BA95C9F7D2
:100AE00012C0B13081F09FD0B1E008959CC0672F53
:100AF000782F8827B85F39F0B93FCCF38695779582
:100B00006795B395D9F73EF490958095709561956A
:100B10007F4F8F4F9F4F0895E89409C097FB3EF495
:100B200090958095709561957F4F8F4F9F4F99233A
:100B3000A9F0F92F96E9BB279395F69587957795B8
:100B40006795B795F111F8CFFAF4BB0F11F460FF78
:100B50001BC06F5F7F4F8F4F9F4F16C0882311F0D0
:100B600096E911C0772321F09EE8872F762F05C0E4
:100B7000662371F096E8862F70E060E02AF09A957F
:100B8000660F771F881FDAF7880F9695879597F974
:100B9000089597F99F6780E870E060E008959FEFFF
:100BA00080EC089500240A94161617061806090604
:100BB000089500240A9412161306140605060895D3
:100BC000092E0394000C11F4882352F0BB0F40F45B
:100BD000BF2B11F460FF04C06F5F7F4F8F4F9F4F9B
:100BE000089557FD9058440F551F59F05F3F71F01D
:100BF0004795880F97FB991F61F09F3F79F0879584
:100C00000895121613061406551FF2CF4695F1DF0C
:100C100008C0161617061806991FF1CF869571059C
:100C2000610508940895E894BB2766277727CB01D0
:100C300097F908950BD0C4CFB5DF28F0BADF18F0CC
:100C4000952309F0A6CFABCF1124EECFCADFA0F3D6
:100C5000959FD1F3950F50E0551F629FF001729F51
:100C6000BB27F00DB11D639FAA27F00DB11DAA1F70
:100C7000649F6627B00DA11D661F829F2227B00DBD
:100C8000A11D621F739FB00DA11D621F839FA00D48
:100C9000611D221F749F3327A00D611D231F849F98
:100CA000600D211D822F762F6A2F11249F575040EF
:100CB0008AF0E1F088234AF0EE0FFF1FBB1F661F8A
:100CC000771F881F91505040A9F79E3F510570F043
:100CD00060CFAACF5F3FECF3983EDCF38695779523
:100CE0006795B795F795E7959F5FC1F7FE2B880F3E
:100CF000911D9695879597F90895CF93DF9382304C
:100D0000910510F482E090E0E0919C01F0919D014A
:100D100020E030E0A0E0B0E0309739F1408151812F
:100D200048175907B8F04817590771F48281938121
:100D3000109729F013969C938E9312972CC0909342
:100D40009D0180939C0127C02115310531F0421788
:100D5000530718F0A901DB0101C0EF019A01BD01A1
:100D6000DF010280F381E02DD7CF21153105F9F0A5
:100D7000281B390B2430310580F48A819B81611551
:100D8000710521F0FB019383828304C090939D0140
:100D900080939C01FE01329644C0FE01E20FF31FD6
:100DA0008193919322503109398328833AC020914D
:100DB0009A0130919B01232B41F420910201309143
:100DC000030130939B0120939A01209100013091FF
:100DD00001012115310541F42DB73EB740910401C1
:100DE00050910501241B350BE0919A01F0919B0174
:100DF000E217F307A0F42E1B3F0B2817390778F0F2
:100E0000AC014E5F5F4F2417350748F04E0F5F1F50
:100E100050939B0140939A018193919302C0E0E02B
:100E2000F0E0CF01DF91CF910895CF93DF9300974A
:100E300009F487C0FC01329713821282C0919C0191
:100E4000D0919D01209781F420813181280F391F95
:100E500080919A0190919B018217930779F5F09305
:100E60009B01E0939A016DC0DE0120E030E0AE17F7
:100E7000BF0750F412964D915C9113979D01411557
:100E8000510509F1DA01F3CFB383A2834081518187
:100E9000840F951F8A179B0771F48D919C91119770
:100EA000840F951F02969183808312968D919C9159
:100EB0001397938382832115310529F4F0939D01C3
:100EC000E0939C013EC0D9011396FC93EE931297D8
:100ED0004D915D91A40FB51FEA17FB0779F480814E
:100EE0009181840F951F0296D90111969C938E9340
:100EF0008281938113969C938E931297E0E0F0E0A9
:100F00008A819B81009719F0FE01EC01F9CFCE0197
:100F1000029628813981820F931F20919A01309186
:100F20009B012817390769F4309729F410929D0125
:100F300010929C0102C013821282D0939B01C09335
:100F40009A01DF91CF910895FB01DC010D90002003
:100F5000E9F7119701900D920020E1F70895FB0148
:100F6000DC0101900D920020E1F70895AEE0B0E0C1
:100F7000ECEBF7E00C945E0A0D891E8986E08C8309
:100F80001A8309838FEF9FE79E838D83AE01475EAF
:100F90005F4F6F89788DCE0101960E94D807EF814F
:100FA000F885E00FF11F10822E96E4E00C947A0A87
:100FB000ACE0B0E0EEEDF7E00C94500A7C016B0180
:100FC0008A01FC0117821682838181FFBDC1CE0197
:100FD00001964C01F7019381F60193FD859193FFF2
:100FE00081916F01882309F4ABC1853239F493FDF7
:100FF000859193FF81916F01853229F4B70190E0CB
:101000000E94C009E7CF512C312C20E02032A0F4FF
:101010008B3269F030F4803259F0833269F4206108
:101020002CC08D3239F0803339F4216026C0226023
:10103000246023C0286021C027FD27C030ED380F71
:101040003A3078F426FF06C0FAE05F9E300D112496
:10105000532E13C08AE0389E300D1124332E2062A7
:101060000CC08E3221F426FD6BC1206406C08C3684
:1010700011F4206802C0883641F4F60193FD859191
:1010800093FF81916F018111C1CF982F9F7D95545E
:10109000933028F40C5F1F4FFFE3F9830DC08336B4
:1010A00031F0833771F0833509F05BC022C0F8015D
:1010B000808189830E5F1F4F44244394512C540137
:1010C00015C03801F2E06F0E711CF801A080B180EC
:1010D00026FF03C0652D70E002C06FEF7FEFC501F2
:1010E0002C870E94B5092C0183012C852F77222E95
:1010F00017C03801F2E06F0E711CF801A080B180BA
:1011000026FF03C0652D70E002C06FEF7FEFC501C1
:101110002C870E94AA092C012C852068222E83018D
:1011200023FC1BC0832D90E048165906B0F4B7018C
:1011300080E290E00E94C0093A94F4CFF50127FCC8
:10114000859127FE81915F01B70190E00E94C0095F
:1011500031103A94F1E04F1A51084114510471F7DB
:10116000E5C0843611F0893639F5F80127FF07C04C
:1011700060817181828193810C5F1F4F08C0608103
:101180007181882777FD8095982F0E5F1F4F2F76EE
:10119000B22E97FF09C090958095709561957F4F0D
:1011A0008F4F9F4F2068B22E2AE030E0A4010E94AA
:1011B000F209A82EA81844C0853729F42F7EB22E34
:1011C0002AE030E025C0F22FF97FBF2E8F36C1F024
:1011D00018F4883579F0B4C0803719F0883721F0D9
:1011E000AFC02F2F2061B22EB4FE0DC08B2D8460B6
:1011F000B82E09C024FF0AC09F2F9660B92E06C0E2
:1012000028E030E005C020E130E002C020E132E01B
:10121000F801B7FE07C060817181828193810C5F04
:101220001F4F06C06081718180E090E00E5F1F4F0C
:10123000A4010E94F209A82EA818FB2DFF77BF2E4B
:10124000B6FE0BC02B2D2E7FA51450F4B4FE0AC0A1
:10125000B2FC08C02B2D2E7E05C07A2C2B2D03C08E
:101260007A2C01C0752C24FF0DC0FE01EA0DF11D82
:101270008081803311F4297E09C022FF06C0739457
:10128000739404C0822F867809F0739423FD13C0F1
:1012900020FF06C05A2C731418F4530C5718732CE3
:1012A000731468F4B70180E290E02C870E94C009B3
:1012B00073942C85F5CF731410F4371801C0312CBA
:1012C00024FF12C0B70180E390E02C870E94C00980
:1012D0002C8522FF17C021FF03C088E590E002C0E3
:1012E00088E790E0B7010CC0822F867859F021FD85
:1012F00002C080E201C08BE227FD8DE2B70190E0E1
:101300000E94C009A51438F4B70180E390E00E9460
:10131000C0095A94F7CFAA94F401EA0DF11D808117
:10132000B70190E00E94C009A110F5CF332009F465
:1013300051CEB70180E290E00E94C0093A94F6CF06
:10134000F7018681978102C08FEF9FEF2C96E2E133
:101350000C946C0AFC010590615070400110D8F7A4
:10136000809590958E0F9F1F0895FC0161507040ED
:1013700001900110D8F7809590958E0F9F1F0895CA
:101380000F931F93CF93DF93182F092FEB018B81BE
:1013900081FD03C08FEF9FEF20C082FF10C04E8100
:1013A0005F812C813D81421753077CF4E881F981EC
:1013B0009F012F5F3F4F39832883108306C0E88544
:1013C000F985812F0995892B29F72E813F812F5F80
:1013D0003F4F3F832E83812F902FDF91CF911F911D
:1013E0000F910895FA01AA27283051F1203181F197
:1013F000E8946F936E7F6E5F7F4F8F4F9F4FAF4F1D
:10140000B1E03ED0B4E03CD0670F781F891F9A1F2F
:10141000A11D680F791F8A1F911DA11D6A0F711DE3
:10142000811D911DA11D20D009F468943F912AE0EF
:10143000269F11243019305D3193DEF6CF010895D7
:10144000462F4770405D4193B3E00FD0C9F7F6CF08
:10145000462F4F70405D4A3318F0495D31FD4052D0
:10146000419302D0A9F7EACFB4E0A6959795879566
:1014700077956795BA95C9F7009761057105089545
:101480009B01AC010A2E06945795479537952795F1
:10149000BA95C9F7620F731F841F951FA01D089589
:1014A0002F923F924F925F926F927F928F929F9274
:1014B000AF92BF92CF92DF92EF92FF920F931F9362
:1014C000CF93DF93CDB7DEB7CA1BDB0B0FB6F89413
:1014D000DEBF0FBECDBF09942A88398848885F8453
:1014E0006E847D848C849B84AA84B984C884DF80C4
:1014F000EE80FD800C811B81AA81B981CE0FD11DA8
:101500000FB6F894DEBF0FBECDBFED010895F8947D
:02151000FFCF0B
:1015120000009E012000253032642E2530326420E6
:1015220043000D0A496E697469616C697A61746974
:101532006F6E20636F6D706C65746564210D0A0DAA
:101542000A0054696D65723220696E746572727533
:1015520070742068617070656E6564210D0A000008
:00000001FF
